{
  "abi": [
    {
      "inputs": [],
      "stateMutability": "nonpayable",
      "type": "constructor"
    },
    {
      "inputs": [],
      "name": "getCompanies",
      "outputs": [
        {
          "internalType": "string[]",
          "name": "",
          "type": "string[]"
        }
      ],
      "stateMutability": "view",
      "type": "function"
    },
    {
      "inputs": [
        {
          "internalType": "string",
          "name": "c_name",
          "type": "string"
        }
      ],
      "name": "getComplaints",
      "outputs": [
        {
          "components": [
            {
              "internalType": "string",
              "name": "user",
              "type": "string"
            },
            {
              "internalType": "string",
              "name": "text",
              "type": "string"
            },
            {
              "internalType": "string",
              "name": "dateC",
              "type": "string"
            },
            {
              "internalType": "string",
              "name": "typeC",
              "type": "string"
            },
            {
              "internalType": "string",
              "name": "gender",
              "type": "string"
            },
            {
              "internalType": "string",
              "name": "relation",
              "type": "string"
            },
            {
              "internalType": "bool",
              "name": "consent",
              "type": "bool"
            }
          ],
          "internalType": "struct complaintContract.complaint[]",
          "name": "",
          "type": "tuple[]"
        }
      ],
      "stateMutability": "view",
      "type": "function"
    },
    {
      "inputs": [],
      "name": "getReputation",
      "outputs": [
        {
          "internalType": "uint256[]",
          "name": "",
          "type": "uint256[]"
        }
      ],
      "stateMutability": "view",
      "type": "function"
    },
    {
      "inputs": [
        {
          "internalType": "string",
          "name": "c_name",
          "type": "string"
        },
        {
          "internalType": "string",
          "name": "u_name",
          "type": "string"
        },
        {
          "internalType": "string",
          "name": "_text",
          "type": "string"
        },
        {
          "internalType": "string",
          "name": "_date",
          "type": "string"
        },
        {
          "internalType": "string",
          "name": "_type",
          "type": "string"
        },
        {
          "internalType": "string",
          "name": "_gender",
          "type": "string"
        },
        {
          "internalType": "string",
          "name": "_relation",
          "type": "string"
        },
        {
          "internalType": "bool",
          "name": "_consent",
          "type": "bool"
        }
      ],
      "name": "newComplaint",
      "outputs": [],
      "stateMutability": "nonpayable",
      "type": "function"
    }
  ],
  "devdoc": {
    "kind": "dev",
    "methods": {},
    "version": 1
  },
  "evm": {
    "assembly": "    /* \"complaintContract.sol\":176:2483  contract complaintContract {... */\n  mstore(0x40, 0x80)\n    /* \"complaintContract.sol\":748:750  10 */\n  0x0a\n    /* \"complaintContract.sol\":735:751  new string[](10) */\n  0xffffffffffffffff\n  dup2\n  gt\n  iszero\n  tag_1\n  jumpi\n  tag_2\n  tag_3\n  jump\t// in\ntag_2:\ntag_1:\n  mload(0x40)\n  swap1\n  dup1\n  dup3\n  mstore\n  dup1\n  0x20\n  mul\n  0x20\n  add\n  dup3\n  add\n  0x40\n  mstore\n  dup1\n  iszero\n  tag_4\n  jumpi\n  dup2\n  0x20\n  add\ntag_5:\n  0x60\n  dup2\n  mstore\n  0x20\n  add\n  swap1\n  0x01\n  swap1\n  sub\n  swap1\n  dup2\n  tag_5\n  jumpi\n  swap1\n  pop\ntag_4:\n  pop\n    /* \"complaintContract.sol\":706:751  string[] private companies = new string[](10) */\n  0x00\n  swap1\n  dup1\n  mload\n  swap1\n  0x20\n  add\n  swap1\n  tag_6\n  swap3\n  swap2\n  swap1\n  tag_7\n  jump\t// in\ntag_6:\n  pop\n    /* \"complaintContract.sol\":929:1175  constructor() {... */\n  callvalue\n  dup1\n  iszero\n  tag_8\n  jumpi\n  0x00\n  dup1\n  revert\ntag_8:\n  pop\n    /* \"complaintContract.sol\":950:1058  companies = [\"Telefonica\", \"HP\", \"Deloitte\", \"KPMG\", \"EY\", \"Movistar\", \"MS\", \"Santander\", \"BBVA\", \"Westcon\"] */\n  mload(0x40)\n  dup1\n  0x0140\n  add\n  0x40\n  mstore\n  dup1\n  mload(0x40)\n  dup1\n  0x40\n  add\n  0x40\n  mstore\n  dup1\n  0x0a\n  dup2\n  mstore\n  0x20\n  add\n  0x54656c65666f6e69636100000000000000000000000000000000000000000000\n  dup2\n  mstore\n  pop\n  dup2\n  mstore\n  0x20\n  add\n  mload(0x40)\n  dup1\n  0x40\n  add\n  0x40\n  mstore\n  dup1\n  0x02\n  dup2\n  mstore\n  0x20\n  add\n  0x4850000000000000000000000000000000000000000000000000000000000000\n  dup2\n  mstore\n  pop\n  dup2\n  mstore\n  0x20\n  add\n  mload(0x40)\n  dup1\n  0x40\n  add\n  0x40\n  mstore\n  dup1\n  0x08\n  dup2\n  mstore\n  0x20\n  add\n  0x44656c6f69747465000000000000000000000000000000000000000000000000\n  dup2\n  mstore\n  pop\n  dup2\n  mstore\n  0x20\n  add\n  mload(0x40)\n  dup1\n  0x40\n  add\n  0x40\n  mstore\n  dup1\n  0x04\n  dup2\n  mstore\n  0x20\n  add\n  0x4b504d4700000000000000000000000000000000000000000000000000000000\n  dup2\n  mstore\n  pop\n  dup2\n  mstore\n  0x20\n  add\n  mload(0x40)\n  dup1\n  0x40\n  add\n  0x40\n  mstore\n  dup1\n  0x02\n  dup2\n  mstore\n  0x20\n  add\n  0x4559000000000000000000000000000000000000000000000000000000000000\n  dup2\n  mstore\n  pop\n  dup2\n  mstore\n  0x20\n  add\n  mload(0x40)\n  dup1\n  0x40\n  add\n  0x40\n  mstore\n  dup1\n  0x08\n  dup2\n  mstore\n  0x20\n  add\n  0x4d6f766973746172000000000000000000000000000000000000000000000000\n  dup2\n  mstore\n  pop\n  dup2\n  mstore\n  0x20\n  add\n  mload(0x40)\n  dup1\n  0x40\n  add\n  0x40\n  mstore\n  dup1\n  0x02\n  dup2\n  mstore\n  0x20\n  add\n  0x4d53000000000000000000000000000000000000000000000000000000000000\n  dup2\n  mstore\n  pop\n  dup2\n  mstore\n  0x20\n  add\n  mload(0x40)\n  dup1\n  0x40\n  add\n  0x40\n  mstore\n  dup1\n  0x09\n  dup2\n  mstore\n  0x20\n  add\n  0x53616e74616e6465720000000000000000000000000000000000000000000000\n  dup2\n  mstore\n  pop\n  dup2\n  mstore\n  0x20\n  add\n  mload(0x40)\n  dup1\n  0x40\n  add\n  0x40\n  mstore\n  dup1\n  0x04\n  dup2\n  mstore\n  0x20\n  add\n  0x4242564100000000000000000000000000000000000000000000000000000000\n  dup2\n  mstore\n  pop\n  dup2\n  mstore\n  0x20\n  add\n  mload(0x40)\n  dup1\n  0x40\n  add\n  0x40\n  mstore\n  dup1\n  0x07\n  dup2\n  mstore\n  0x20\n  add\n  0x57657374636f6e00000000000000000000000000000000000000000000000000\n  dup2\n  mstore\n  pop\n  dup2\n  mstore\n  pop\n    /* \"complaintContract.sol\":950:959  companies */\n  0x00\n    /* \"complaintContract.sol\":950:1058  companies = [\"Telefonica\", \"HP\", \"Deloitte\", \"KPMG\", \"EY\", \"Movistar\", \"MS\", \"Santander\", \"BBVA\", \"Westcon\"] */\n  swap1\n  0x0a\n  tag_11\n  swap3\n  swap2\n  swap1\n  tag_12\n  jump\t// in\ntag_11:\n  pop\n    /* \"complaintContract.sol\":1069:1075  uint i */\n  0x00\n    /* \"complaintContract.sol\":1065:1170  for(uint i = 0; i < companies.length ; i++){... */\ntag_13:\n    /* \"complaintContract.sol\":1085:1094  companies */\n  0x00\n    /* \"complaintContract.sol\":1085:1101  companies.length */\n  dup1\n  sload\n  swap1\n  pop\n    /* \"complaintContract.sol\":1081:1082  i */\n  dup2\n    /* \"complaintContract.sol\":1081:1101  i < companies.length */\n  lt\n    /* \"complaintContract.sol\":1065:1170  for(uint i = 0; i < companies.length ; i++){... */\n  iszero\n  tag_14\n  jumpi\n    /* \"complaintContract.sol\":1159:1162  100 */\n  0x64\n    /* \"complaintContract.sol\":1117:1131  companyMapping */\n  0x01\n    /* \"complaintContract.sol\":1132:1141  companies */\n  0x00\n    /* \"complaintContract.sol\":1142:1143  i */\n  dup4\n    /* \"complaintContract.sol\":1132:1144  companies[i] */\n  dup2\n  sload\n  dup2\n  lt\n  tag_16\n  jumpi\n  tag_17\n  tag_18\n  jump\t// in\ntag_17:\ntag_16:\n  swap1\n  0x00\n  mstore\n  keccak256(0x00, 0x20)\n  add\n    /* \"complaintContract.sol\":1117:1145  companyMapping[companies[i]] */\n  mload(0x40)\n  tag_20\n  swap2\n  swap1\n  tag_21\n  jump\t// in\ntag_20:\n  swap1\n  dup2\n  mstore\n  0x20\n  add\n  mload(0x40)\n  dup1\n  swap2\n  sub\n  swap1\n  keccak256\n    /* \"complaintContract.sol\":1117:1156  companyMapping[companies[i]].reputation */\n  0x00\n  add\n    /* \"complaintContract.sol\":1117:1162  companyMapping[companies[i]].reputation = 100 */\n  dup2\n  swap1\n  sstore\n  pop\n    /* \"complaintContract.sol\":1104:1107  i++ */\n  dup1\n  dup1\n  tag_22\n  swap1\n  tag_23\n  jump\t// in\ntag_22:\n  swap2\n  pop\n  pop\n    /* \"complaintContract.sol\":1065:1170  for(uint i = 0; i < companies.length ; i++){... */\n  jump(tag_13)\ntag_14:\n  pop\n    /* \"complaintContract.sol\":176:2483  contract complaintContract {... */\n  jump(tag_24)\ntag_7:\n  dup3\n  dup1\n  sload\n  dup3\n  dup3\n  sstore\n  swap1\n  0x00\n  mstore\n  keccak256(0x00, 0x20)\n  swap1\n  dup2\n  add\n  swap3\n  dup3\n  iszero\n  tag_25\n  jumpi\n  swap2\n  0x20\n  mul\n  dup3\n  add\ntag_26:\n  dup3\n  dup2\n  gt\n  iszero\n  tag_27\n  jumpi\n  dup3\n  mload\n  dup3\n  swap1\n  dup1\n  mload\n  swap1\n  0x20\n  add\n  swap1\n  tag_28\n  swap3\n  swap2\n  swap1\n  tag_29\n  jump\t// in\ntag_28:\n  pop\n  swap2\n  0x20\n  add\n  swap2\n  swap1\n  0x01\n  add\n  swap1\n  jump(tag_26)\ntag_27:\ntag_25:\n  pop\n  swap1\n  pop\n  tag_30\n  swap2\n  swap1\n  tag_31\n  jump\t// in\ntag_30:\n  pop\n  swap1\n  jump\t// out\ntag_12:\n  dup3\n  dup1\n  sload\n  dup3\n  dup3\n  sstore\n  swap1\n  0x00\n  mstore\n  keccak256(0x00, 0x20)\n  swap1\n  dup2\n  add\n  swap3\n  dup3\n  iszero\n  tag_32\n  jumpi\n  swap2\n  0x20\n  mul\n  dup3\n  add\ntag_33:\n  dup3\n  dup2\n  gt\n  iszero\n  tag_34\n  jumpi\n  dup3\n  mload\n  dup3\n  swap1\n  dup1\n  mload\n  swap1\n  0x20\n  add\n  swap1\n  tag_35\n  swap3\n  swap2\n  swap1\n  tag_29\n  jump\t// in\ntag_35:\n  pop\n  swap2\n  0x20\n  add\n  swap2\n  swap1\n  0x01\n  add\n  swap1\n  jump(tag_33)\ntag_34:\ntag_32:\n  pop\n  swap1\n  pop\n  tag_36\n  swap2\n  swap1\n  tag_31\n  jump\t// in\ntag_36:\n  pop\n  swap1\n  jump\t// out\ntag_29:\n  dup3\n  dup1\n  sload\n  tag_37\n  swap1\n  tag_38\n  jump\t// in\ntag_37:\n  swap1\n  0x00\n  mstore\n  keccak256(0x00, 0x20)\n  swap1\n  0x1f\n  add\n  0x20\n  swap1\n  div\n  dup2\n  add\n  swap3\n  dup3\n  tag_40\n  jumpi\n  0x00\n  dup6\n  sstore\n  jump(tag_39)\ntag_40:\n  dup3\n  0x1f\n  lt\n  tag_41\n  jumpi\n  dup1\n  mload\n  not(0xff)\n  and\n  dup4\n  dup1\n  add\n  or\n  dup6\n  sstore\n  jump(tag_39)\ntag_41:\n  dup3\n  dup1\n  add\n  0x01\n  add\n  dup6\n  sstore\n  dup3\n  iszero\n  tag_39\n  jumpi\n  swap2\n  dup3\n  add\ntag_42:\n  dup3\n  dup2\n  gt\n  iszero\n  tag_43\n  jumpi\n  dup3\n  mload\n  dup3\n  sstore\n  swap2\n  0x20\n  add\n  swap2\n  swap1\n  0x01\n  add\n  swap1\n  jump(tag_42)\ntag_43:\ntag_39:\n  pop\n  swap1\n  pop\n  tag_44\n  swap2\n  swap1\n  tag_45\n  jump\t// in\ntag_44:\n  pop\n  swap1\n  jump\t// out\ntag_31:\ntag_46:\n  dup1\n  dup3\n  gt\n  iszero\n  tag_47\n  jumpi\n  0x00\n  dup2\n  dup2\n  tag_48\n  swap2\n  swap1\n  tag_49\n  jump\t// in\ntag_48:\n  pop\n  0x01\n  add\n  jump(tag_46)\ntag_47:\n  pop\n  swap1\n  jump\t// out\ntag_45:\ntag_50:\n  dup1\n  dup3\n  gt\n  iszero\n  tag_51\n  jumpi\n  0x00\n  dup2\n  0x00\n  swap1\n  sstore\n  pop\n  0x01\n  add\n  jump(tag_50)\ntag_51:\n  pop\n  swap1\n  jump\t// out\ntag_49:\n  pop\n  dup1\n  sload\n  tag_52\n  swap1\n  tag_38\n  jump\t// in\ntag_52:\n  0x00\n  dup3\n  sstore\n  dup1\n  0x1f\n  lt\n  tag_54\n  jumpi\n  pop\n  jump(tag_53)\ntag_54:\n  0x1f\n  add\n  0x20\n  swap1\n  div\n  swap1\n  0x00\n  mstore\n  keccak256(0x00, 0x20)\n  swap1\n  dup2\n  add\n  swap1\n  tag_55\n  swap2\n  swap1\n  tag_45\n  jump\t// in\ntag_55:\ntag_53:\n  pop\n  jump\t// out\n    /* \"#utility.yul\":7:187   */\ntag_3:\n    /* \"#utility.yul\":55:132   */\n  0x4e487b7100000000000000000000000000000000000000000000000000000000\n    /* \"#utility.yul\":52:53   */\n  0x00\n    /* \"#utility.yul\":45:133   */\n  mstore\n    /* \"#utility.yul\":152:156   */\n  0x41\n    /* \"#utility.yul\":149:150   */\n  0x04\n    /* \"#utility.yul\":142:157   */\n  mstore\n    /* \"#utility.yul\":176:180   */\n  0x24\n    /* \"#utility.yul\":173:174   */\n  0x00\n    /* \"#utility.yul\":166:181   */\n  revert\n    /* \"#utility.yul\":193:373   */\ntag_18:\n    /* \"#utility.yul\":241:318   */\n  0x4e487b7100000000000000000000000000000000000000000000000000000000\n    /* \"#utility.yul\":238:239   */\n  0x00\n    /* \"#utility.yul\":231:319   */\n  mstore\n    /* \"#utility.yul\":338:342   */\n  0x32\n    /* \"#utility.yul\":335:336   */\n  0x04\n    /* \"#utility.yul\":328:343   */\n  mstore\n    /* \"#utility.yul\":362:366   */\n  0x24\n    /* \"#utility.yul\":359:360   */\n  0x00\n    /* \"#utility.yul\":352:367   */\n  revert\n    /* \"#utility.yul\":379:559   */\ntag_56:\n    /* \"#utility.yul\":427:504   */\n  0x4e487b7100000000000000000000000000000000000000000000000000000000\n    /* \"#utility.yul\":424:425   */\n  0x00\n    /* \"#utility.yul\":417:505   */\n  mstore\n    /* \"#utility.yul\":524:528   */\n  0x22\n    /* \"#utility.yul\":521:522   */\n  0x04\n    /* \"#utility.yul\":514:529   */\n  mstore\n    /* \"#utility.yul\":548:552   */\n  0x24\n    /* \"#utility.yul\":545:546   */\n  0x00\n    /* \"#utility.yul\":538:553   */\n  revert\n    /* \"#utility.yul\":565:885   */\ntag_38:\n    /* \"#utility.yul\":609:615   */\n  0x00\n    /* \"#utility.yul\":646:647   */\n  0x02\n    /* \"#utility.yul\":640:644   */\n  dup3\n    /* \"#utility.yul\":636:648   */\n  div\n    /* \"#utility.yul\":626:648   */\n  swap1\n  pop\n    /* \"#utility.yul\":693:694   */\n  0x01\n    /* \"#utility.yul\":687:691   */\n  dup3\n    /* \"#utility.yul\":683:695   */\n  and\n    /* \"#utility.yul\":714:732   */\n  dup1\n    /* \"#utility.yul\":704:785   */\n  tag_67\n  jumpi\n    /* \"#utility.yul\":770:774   */\n  0x7f\n    /* \"#utility.yul\":762:768   */\n  dup3\n    /* \"#utility.yul\":758:775   */\n  and\n    /* \"#utility.yul\":748:775   */\n  swap2\n  pop\n    /* \"#utility.yul\":704:785   */\ntag_67:\n    /* \"#utility.yul\":832:834   */\n  0x20\n    /* \"#utility.yul\":824:830   */\n  dup3\n    /* \"#utility.yul\":821:835   */\n  lt\n    /* \"#utility.yul\":801:819   */\n  dup2\n    /* \"#utility.yul\":798:836   */\n  eq\n    /* \"#utility.yul\":795:879   */\n  iszero\n  tag_68\n  jumpi\n    /* \"#utility.yul\":851:869   */\n  tag_69\n  tag_56\n  jump\t// in\ntag_69:\n    /* \"#utility.yul\":795:879   */\ntag_68:\n    /* \"#utility.yul\":616:885   */\n  pop\n    /* \"#utility.yul\":565:885   */\n  swap2\n  swap1\n  pop\n  jump\t// out\n    /* \"#utility.yul\":891:1039   */\ntag_57:\n    /* \"#utility.yul\":993:1004   */\n  0x00\n    /* \"#utility.yul\":1030:1033   */\n  dup2\n    /* \"#utility.yul\":1015:1033   */\n  swap1\n  pop\n    /* \"#utility.yul\":891:1039   */\n  swap3\n  swap2\n  pop\n  pop\n  jump\t// out\n    /* \"#utility.yul\":1045:1186   */\ntag_58:\n    /* \"#utility.yul\":1094:1098   */\n  0x00\n    /* \"#utility.yul\":1117:1120   */\n  dup2\n    /* \"#utility.yul\":1109:1120   */\n  swap1\n  pop\n    /* \"#utility.yul\":1140:1143   */\n  dup2\n    /* \"#utility.yul\":1137:1138   */\n  0x00\n    /* \"#utility.yul\":1130:1144   */\n  mstore\n    /* \"#utility.yul\":1174:1178   */\n  0x20\n    /* \"#utility.yul\":1171:1172   */\n  0x00\n    /* \"#utility.yul\":1161:1179   */\n  keccak256\n    /* \"#utility.yul\":1153:1179   */\n  swap1\n  pop\n    /* \"#utility.yul\":1045:1186   */\n  swap2\n  swap1\n  pop\n  jump\t// out\n    /* \"#utility.yul\":1216:2061   */\ntag_59:\n    /* \"#utility.yul\":1319:1322   */\n  0x00\n    /* \"#utility.yul\":1356:1361   */\n  dup2\n    /* \"#utility.yul\":1350:1362   */\n  sload\n    /* \"#utility.yul\":1385:1421   */\n  tag_73\n    /* \"#utility.yul\":1411:1420   */\n  dup2\n    /* \"#utility.yul\":1385:1421   */\n  tag_38\n  jump\t// in\ntag_73:\n    /* \"#utility.yul\":1437:1526   */\n  tag_74\n    /* \"#utility.yul\":1519:1525   */\n  dup2\n    /* \"#utility.yul\":1514:1517   */\n  dup7\n    /* \"#utility.yul\":1437:1526   */\n  tag_57\n  jump\t// in\ntag_74:\n    /* \"#utility.yul\":1430:1526   */\n  swap5\n  pop\n    /* \"#utility.yul\":1557:1558   */\n  0x01\n    /* \"#utility.yul\":1546:1555   */\n  dup3\n    /* \"#utility.yul\":1542:1559   */\n  and\n    /* \"#utility.yul\":1573:1574   */\n  0x00\n    /* \"#utility.yul\":1568:1705   */\n  dup2\n  eq\n  tag_76\n  jumpi\n    /* \"#utility.yul\":1719:1720   */\n  0x01\n    /* \"#utility.yul\":1714:2055   */\n  dup2\n  eq\n  tag_77\n  jumpi\n    /* \"#utility.yul\":1535:2055   */\n  jump(tag_75)\n    /* \"#utility.yul\":1568:1705   */\ntag_76:\n    /* \"#utility.yul\":1652:1656   */\n  0xff\n    /* \"#utility.yul\":1648:1657   */\n  not\n    /* \"#utility.yul\":1637:1646   */\n  dup4\n    /* \"#utility.yul\":1633:1658   */\n  and\n    /* \"#utility.yul\":1628:1631   */\n  dup7\n    /* \"#utility.yul\":1621:1659   */\n  mstore\n    /* \"#utility.yul\":1688:1694   */\n  dup2\n    /* \"#utility.yul\":1683:1686   */\n  dup7\n    /* \"#utility.yul\":1679:1695   */\n  add\n    /* \"#utility.yul\":1672:1695   */\n  swap4\n  pop\n    /* \"#utility.yul\":1568:1705   */\n  jump(tag_75)\n    /* \"#utility.yul\":1714:2055   */\ntag_77:\n    /* \"#utility.yul\":1781:1819   */\n  tag_78\n    /* \"#utility.yul\":1813:1818   */\n  dup6\n    /* \"#utility.yul\":1781:1819   */\n  tag_58\n  jump\t// in\ntag_78:\n    /* \"#utility.yul\":1841:1842   */\n  0x00\n    /* \"#utility.yul\":1855:2009   */\ntag_79:\n    /* \"#utility.yul\":1869:1875   */\n  dup4\n    /* \"#utility.yul\":1866:1867   */\n  dup2\n    /* \"#utility.yul\":1863:1876   */\n  lt\n    /* \"#utility.yul\":1855:2009   */\n  iszero\n  tag_81\n  jumpi\n    /* \"#utility.yul\":1943:1950   */\n  dup2\n    /* \"#utility.yul\":1937:1951   */\n  sload\n    /* \"#utility.yul\":1933:1934   */\n  dup2\n    /* \"#utility.yul\":1928:1931   */\n  dup10\n    /* \"#utility.yul\":1924:1935   */\n  add\n    /* \"#utility.yul\":1917:1952   */\n  mstore\n    /* \"#utility.yul\":1993:1994   */\n  0x01\n    /* \"#utility.yul\":1984:1991   */\n  dup3\n    /* \"#utility.yul\":1980:1995   */\n  add\n    /* \"#utility.yul\":1969:1995   */\n  swap2\n  pop\n    /* \"#utility.yul\":1891:1895   */\n  0x20\n    /* \"#utility.yul\":1888:1889   */\n  dup2\n    /* \"#utility.yul\":1884:1896   */\n  add\n    /* \"#utility.yul\":1879:1896   */\n  swap1\n  pop\n    /* \"#utility.yul\":1855:2009   */\n  jump(tag_79)\ntag_81:\n    /* \"#utility.yul\":2038:2044   */\n  dup4\n    /* \"#utility.yul\":2033:2036   */\n  dup9\n    /* \"#utility.yul\":2029:2045   */\n  add\n    /* \"#utility.yul\":2022:2045   */\n  swap6\n  pop\n    /* \"#utility.yul\":1721:2055   */\n  pop\n  pop\n    /* \"#utility.yul\":1535:2055   */\ntag_75:\n  pop\n    /* \"#utility.yul\":1323:2061   */\n  pop\n  pop\n    /* \"#utility.yul\":1216:2061   */\n  swap3\n  swap2\n  pop\n  pop\n  jump\t// out\n    /* \"#utility.yul\":2067:2336   */\ntag_21:\n    /* \"#utility.yul\":2196:2199   */\n  0x00\n    /* \"#utility.yul\":2218:2310   */\n  tag_83\n    /* \"#utility.yul\":2306:2309   */\n  dup3\n    /* \"#utility.yul\":2297:2303   */\n  dup5\n    /* \"#utility.yul\":2218:2310   */\n  tag_59\n  jump\t// in\ntag_83:\n    /* \"#utility.yul\":2211:2310   */\n  swap2\n  pop\n    /* \"#utility.yul\":2327:2330   */\n  dup2\n    /* \"#utility.yul\":2320:2330   */\n  swap1\n  pop\n    /* \"#utility.yul\":2067:2336   */\n  swap3\n  swap2\n  pop\n  pop\n  jump\t// out\n    /* \"#utility.yul\":2342:2522   */\ntag_60:\n    /* \"#utility.yul\":2390:2467   */\n  0x4e487b7100000000000000000000000000000000000000000000000000000000\n    /* \"#utility.yul\":2387:2388   */\n  0x00\n    /* \"#utility.yul\":2380:2468   */\n  mstore\n    /* \"#utility.yul\":2487:2491   */\n  0x11\n    /* \"#utility.yul\":2484:2485   */\n  0x04\n    /* \"#utility.yul\":2477:2492   */\n  mstore\n    /* \"#utility.yul\":2511:2515   */\n  0x24\n    /* \"#utility.yul\":2508:2509   */\n  0x00\n    /* \"#utility.yul\":2501:2516   */\n  revert\n    /* \"#utility.yul\":2528:2605   */\ntag_61:\n    /* \"#utility.yul\":2565:2572   */\n  0x00\n    /* \"#utility.yul\":2594:2599   */\n  dup2\n    /* \"#utility.yul\":2583:2599   */\n  swap1\n  pop\n    /* \"#utility.yul\":2528:2605   */\n  swap2\n  swap1\n  pop\n  jump\t// out\n    /* \"#utility.yul\":2611:2844   */\ntag_23:\n    /* \"#utility.yul\":2650:2653   */\n  0x00\n    /* \"#utility.yul\":2673:2697   */\n  tag_87\n    /* \"#utility.yul\":2691:2696   */\n  dup3\n    /* \"#utility.yul\":2673:2697   */\n  tag_61\n  jump\t// in\ntag_87:\n    /* \"#utility.yul\":2664:2697   */\n  swap2\n  pop\n    /* \"#utility.yul\":2719:2785   */\n  0xffffffffffffffffffffffffffffffffffffffffffffffffffffffffffffffff\n    /* \"#utility.yul\":2712:2717   */\n  dup3\n    /* \"#utility.yul\":2709:2786   */\n  eq\n    /* \"#utility.yul\":2706:2809   */\n  iszero\n  tag_88\n  jumpi\n    /* \"#utility.yul\":2789:2807   */\n  tag_89\n  tag_60\n  jump\t// in\ntag_89:\n    /* \"#utility.yul\":2706:2809   */\ntag_88:\n    /* \"#utility.yul\":2836:2837   */\n  0x01\n    /* \"#utility.yul\":2829:2834   */\n  dup3\n    /* \"#utility.yul\":2825:2838   */\n  add\n    /* \"#utility.yul\":2818:2838   */\n  swap1\n  pop\n    /* \"#utility.yul\":2611:2844   */\n  swap2\n  swap1\n  pop\n  jump\t// out\n    /* \"complaintContract.sol\":176:2483  contract complaintContract {... */\ntag_24:\n  dataSize(sub_0)\n  dup1\n  dataOffset(sub_0)\n  0x00\n  codecopy\n  0x00\n  return\nstop\n\nsub_0: assembly {\n        /* \"complaintContract.sol\":176:2483  contract complaintContract {... */\n      mstore(0x40, 0x80)\n      callvalue\n      dup1\n      iszero\n      tag_1\n      jumpi\n      0x00\n      dup1\n      revert\n    tag_1:\n      pop\n      jumpi(tag_2, lt(calldatasize, 0x04))\n      shr(0xe0, calldataload(0x00))\n      dup1\n      0x0c0b6691\n      eq\n      tag_3\n      jumpi\n      dup1\n      0x4b85a5e3\n      eq\n      tag_4\n      jumpi\n      dup1\n      0xbd00b779\n      eq\n      tag_5\n      jumpi\n      dup1\n      0xffe6a18e\n      eq\n      tag_6\n      jumpi\n    tag_2:\n      0x00\n      dup1\n      revert\n        /* \"complaintContract.sol\":1224:1317  function  getCompanies() external view returns (string[] memory){... */\n    tag_3:\n      tag_7\n      tag_8\n      jump\t// in\n    tag_7:\n      mload(0x40)\n      tag_9\n      swap2\n      swap1\n      tag_10\n      jump\t// in\n    tag_9:\n      mload(0x40)\n      dup1\n      swap2\n      sub\n      swap1\n      return\n        /* \"complaintContract.sol\":1403:1545  function getComplaints(string memory c_name) external view returns (complaint[] memory) {... */\n    tag_4:\n      tag_11\n      0x04\n      dup1\n      calldatasize\n      sub\n      dup2\n      add\n      swap1\n      tag_12\n      swap2\n      swap1\n      tag_13\n      jump\t// in\n    tag_12:\n      tag_14\n      jump\t// in\n    tag_11:\n      mload(0x40)\n      tag_15\n      swap2\n      swap1\n      tag_16\n      jump\t// in\n    tag_15:\n      mload(0x40)\n      dup1\n      swap2\n      sub\n      swap1\n      return\n        /* \"complaintContract.sol\":2047:2480  function newComplaint(string memory c_name, string memory u_name, string memory _text, string memory _date, string memory _type, string memory _gender, string memory _relation, bool _consent) external {... */\n    tag_5:\n      tag_17\n      0x04\n      dup1\n      calldatasize\n      sub\n      dup2\n      add\n      swap1\n      tag_18\n      swap2\n      swap1\n      tag_19\n      jump\t// in\n    tag_18:\n      tag_20\n      jump\t// in\n    tag_17:\n      stop\n        /* \"complaintContract.sol\":1742:2005  function getReputation() external view returns (uint[] memory) {... */\n    tag_6:\n      tag_21\n      tag_22\n      jump\t// in\n    tag_21:\n      mload(0x40)\n      tag_23\n      swap2\n      swap1\n      tag_24\n      jump\t// in\n    tag_23:\n      mload(0x40)\n      dup1\n      swap2\n      sub\n      swap1\n      return\n        /* \"complaintContract.sol\":1224:1317  function  getCompanies() external view returns (string[] memory){... */\n    tag_8:\n        /* \"complaintContract.sol\":1272:1287  string[] memory */\n      0x60\n        /* \"complaintContract.sol\":1302:1311  companies */\n      0x00\n        /* \"complaintContract.sol\":1295:1311  return companies */\n      dup1\n      sload\n      dup1\n      0x20\n      mul\n      0x20\n      add\n      mload(0x40)\n      swap1\n      dup2\n      add\n      0x40\n      mstore\n      dup1\n      swap3\n      swap2\n      swap1\n      dup2\n      dup2\n      mstore\n      0x20\n      add\n      0x00\n      swap1\n    tag_26:\n      dup3\n      dup3\n      lt\n      iszero\n      tag_27\n      jumpi\n      dup4\n      dup3\n      swap1\n      0x00\n      mstore\n      keccak256(0x00, 0x20)\n      add\n      dup1\n      sload\n      tag_29\n      swap1\n      tag_30\n      jump\t// in\n    tag_29:\n      dup1\n      0x1f\n      add\n      0x20\n      dup1\n      swap2\n      div\n      mul\n      0x20\n      add\n      mload(0x40)\n      swap1\n      dup2\n      add\n      0x40\n      mstore\n      dup1\n      swap3\n      swap2\n      swap1\n      dup2\n      dup2\n      mstore\n      0x20\n      add\n      dup3\n      dup1\n      sload\n      tag_31\n      swap1\n      tag_30\n      jump\t// in\n    tag_31:\n      dup1\n      iszero\n      tag_32\n      jumpi\n      dup1\n      0x1f\n      lt\n      tag_33\n      jumpi\n      0x0100\n      dup1\n      dup4\n      sload\n      div\n      mul\n      dup4\n      mstore\n      swap2\n      0x20\n      add\n      swap2\n      jump(tag_32)\n    tag_33:\n      dup3\n      add\n      swap2\n      swap1\n      0x00\n      mstore\n      keccak256(0x00, 0x20)\n      swap1\n    tag_34:\n      dup2\n      sload\n      dup2\n      mstore\n      swap1\n      0x01\n      add\n      swap1\n      0x20\n      add\n      dup1\n      dup4\n      gt\n      tag_34\n      jumpi\n      dup3\n      swap1\n      sub\n      0x1f\n      and\n      dup3\n      add\n      swap2\n    tag_32:\n      pop\n      pop\n      pop\n      pop\n      pop\n      dup2\n      mstore\n      0x20\n      add\n      swap1\n      0x01\n      add\n      swap1\n      jump(tag_26)\n    tag_27:\n      pop\n      pop\n      pop\n      pop\n      swap1\n      pop\n        /* \"complaintContract.sol\":1224:1317  function  getCompanies() external view returns (string[] memory){... */\n      swap1\n      jump\t// out\n        /* \"complaintContract.sol\":1403:1545  function getComplaints(string memory c_name) external view returns (complaint[] memory) {... */\n    tag_14:\n        /* \"complaintContract.sol\":1471:1489  complaint[] memory */\n      0x60\n        /* \"complaintContract.sol\":1506:1520  companyMapping */\n      0x01\n        /* \"complaintContract.sol\":1521:1527  c_name */\n      dup3\n        /* \"complaintContract.sol\":1506:1528  companyMapping[c_name] */\n      mload(0x40)\n      tag_36\n      swap2\n      swap1\n      tag_37\n      jump\t// in\n    tag_36:\n      swap1\n      dup2\n      mstore\n      0x20\n      add\n      mload(0x40)\n      dup1\n      swap2\n      sub\n      swap1\n      keccak256\n        /* \"complaintContract.sol\":1506:1539  companyMapping[c_name].complaints */\n      0x01\n      add\n        /* \"complaintContract.sol\":1499:1539  return companyMapping[c_name].complaints */\n      dup1\n      sload\n      dup1\n      0x20\n      mul\n      0x20\n      add\n      mload(0x40)\n      swap1\n      dup2\n      add\n      0x40\n      mstore\n      dup1\n      swap3\n      swap2\n      swap1\n      dup2\n      dup2\n      mstore\n      0x20\n      add\n      0x00\n      swap1\n    tag_38:\n      dup3\n      dup3\n      lt\n      iszero\n      tag_39\n      jumpi\n      dup4\n      dup3\n      swap1\n      0x00\n      mstore\n      keccak256(0x00, 0x20)\n      swap1\n      0x07\n      mul\n      add\n      mload(0x40)\n      dup1\n      0xe0\n      add\n      0x40\n      mstore\n      swap1\n      dup2\n      0x00\n      dup3\n      add\n      dup1\n      sload\n      tag_41\n      swap1\n      tag_30\n      jump\t// in\n    tag_41:\n      dup1\n      0x1f\n      add\n      0x20\n      dup1\n      swap2\n      div\n      mul\n      0x20\n      add\n      mload(0x40)\n      swap1\n      dup2\n      add\n      0x40\n      mstore\n      dup1\n      swap3\n      swap2\n      swap1\n      dup2\n      dup2\n      mstore\n      0x20\n      add\n      dup3\n      dup1\n      sload\n      tag_42\n      swap1\n      tag_30\n      jump\t// in\n    tag_42:\n      dup1\n      iszero\n      tag_43\n      jumpi\n      dup1\n      0x1f\n      lt\n      tag_44\n      jumpi\n      0x0100\n      dup1\n      dup4\n      sload\n      div\n      mul\n      dup4\n      mstore\n      swap2\n      0x20\n      add\n      swap2\n      jump(tag_43)\n    tag_44:\n      dup3\n      add\n      swap2\n      swap1\n      0x00\n      mstore\n      keccak256(0x00, 0x20)\n      swap1\n    tag_45:\n      dup2\n      sload\n      dup2\n      mstore\n      swap1\n      0x01\n      add\n      swap1\n      0x20\n      add\n      dup1\n      dup4\n      gt\n      tag_45\n      jumpi\n      dup3\n      swap1\n      sub\n      0x1f\n      and\n      dup3\n      add\n      swap2\n    tag_43:\n      pop\n      pop\n      pop\n      pop\n      pop\n      dup2\n      mstore\n      0x20\n      add\n      0x01\n      dup3\n      add\n      dup1\n      sload\n      tag_46\n      swap1\n      tag_30\n      jump\t// in\n    tag_46:\n      dup1\n      0x1f\n      add\n      0x20\n      dup1\n      swap2\n      div\n      mul\n      0x20\n      add\n      mload(0x40)\n      swap1\n      dup2\n      add\n      0x40\n      mstore\n      dup1\n      swap3\n      swap2\n      swap1\n      dup2\n      dup2\n      mstore\n      0x20\n      add\n      dup3\n      dup1\n      sload\n      tag_47\n      swap1\n      tag_30\n      jump\t// in\n    tag_47:\n      dup1\n      iszero\n      tag_48\n      jumpi\n      dup1\n      0x1f\n      lt\n      tag_49\n      jumpi\n      0x0100\n      dup1\n      dup4\n      sload\n      div\n      mul\n      dup4\n      mstore\n      swap2\n      0x20\n      add\n      swap2\n      jump(tag_48)\n    tag_49:\n      dup3\n      add\n      swap2\n      swap1\n      0x00\n      mstore\n      keccak256(0x00, 0x20)\n      swap1\n    tag_50:\n      dup2\n      sload\n      dup2\n      mstore\n      swap1\n      0x01\n      add\n      swap1\n      0x20\n      add\n      dup1\n      dup4\n      gt\n      tag_50\n      jumpi\n      dup3\n      swap1\n      sub\n      0x1f\n      and\n      dup3\n      add\n      swap2\n    tag_48:\n      pop\n      pop\n      pop\n      pop\n      pop\n      dup2\n      mstore\n      0x20\n      add\n      0x02\n      dup3\n      add\n      dup1\n      sload\n      tag_51\n      swap1\n      tag_30\n      jump\t// in\n    tag_51:\n      dup1\n      0x1f\n      add\n      0x20\n      dup1\n      swap2\n      div\n      mul\n      0x20\n      add\n      mload(0x40)\n      swap1\n      dup2\n      add\n      0x40\n      mstore\n      dup1\n      swap3\n      swap2\n      swap1\n      dup2\n      dup2\n      mstore\n      0x20\n      add\n      dup3\n      dup1\n      sload\n      tag_52\n      swap1\n      tag_30\n      jump\t// in\n    tag_52:\n      dup1\n      iszero\n      tag_53\n      jumpi\n      dup1\n      0x1f\n      lt\n      tag_54\n      jumpi\n      0x0100\n      dup1\n      dup4\n      sload\n      div\n      mul\n      dup4\n      mstore\n      swap2\n      0x20\n      add\n      swap2\n      jump(tag_53)\n    tag_54:\n      dup3\n      add\n      swap2\n      swap1\n      0x00\n      mstore\n      keccak256(0x00, 0x20)\n      swap1\n    tag_55:\n      dup2\n      sload\n      dup2\n      mstore\n      swap1\n      0x01\n      add\n      swap1\n      0x20\n      add\n      dup1\n      dup4\n      gt\n      tag_55\n      jumpi\n      dup3\n      swap1\n      sub\n      0x1f\n      and\n      dup3\n      add\n      swap2\n    tag_53:\n      pop\n      pop\n      pop\n      pop\n      pop\n      dup2\n      mstore\n      0x20\n      add\n      0x03\n      dup3\n      add\n      dup1\n      sload\n      tag_56\n      swap1\n      tag_30\n      jump\t// in\n    tag_56:\n      dup1\n      0x1f\n      add\n      0x20\n      dup1\n      swap2\n      div\n      mul\n      0x20\n      add\n      mload(0x40)\n      swap1\n      dup2\n      add\n      0x40\n      mstore\n      dup1\n      swap3\n      swap2\n      swap1\n      dup2\n      dup2\n      mstore\n      0x20\n      add\n      dup3\n      dup1\n      sload\n      tag_57\n      swap1\n      tag_30\n      jump\t// in\n    tag_57:\n      dup1\n      iszero\n      tag_58\n      jumpi\n      dup1\n      0x1f\n      lt\n      tag_59\n      jumpi\n      0x0100\n      dup1\n      dup4\n      sload\n      div\n      mul\n      dup4\n      mstore\n      swap2\n      0x20\n      add\n      swap2\n      jump(tag_58)\n    tag_59:\n      dup3\n      add\n      swap2\n      swap1\n      0x00\n      mstore\n      keccak256(0x00, 0x20)\n      swap1\n    tag_60:\n      dup2\n      sload\n      dup2\n      mstore\n      swap1\n      0x01\n      add\n      swap1\n      0x20\n      add\n      dup1\n      dup4\n      gt\n      tag_60\n      jumpi\n      dup3\n      swap1\n      sub\n      0x1f\n      and\n      dup3\n      add\n      swap2\n    tag_58:\n      pop\n      pop\n      pop\n      pop\n      pop\n      dup2\n      mstore\n      0x20\n      add\n      0x04\n      dup3\n      add\n      dup1\n      sload\n      tag_61\n      swap1\n      tag_30\n      jump\t// in\n    tag_61:\n      dup1\n      0x1f\n      add\n      0x20\n      dup1\n      swap2\n      div\n      mul\n      0x20\n      add\n      mload(0x40)\n      swap1\n      dup2\n      add\n      0x40\n      mstore\n      dup1\n      swap3\n      swap2\n      swap1\n      dup2\n      dup2\n      mstore\n      0x20\n      add\n      dup3\n      dup1\n      sload\n      tag_62\n      swap1\n      tag_30\n      jump\t// in\n    tag_62:\n      dup1\n      iszero\n      tag_63\n      jumpi\n      dup1\n      0x1f\n      lt\n      tag_64\n      jumpi\n      0x0100\n      dup1\n      dup4\n      sload\n      div\n      mul\n      dup4\n      mstore\n      swap2\n      0x20\n      add\n      swap2\n      jump(tag_63)\n    tag_64:\n      dup3\n      add\n      swap2\n      swap1\n      0x00\n      mstore\n      keccak256(0x00, 0x20)\n      swap1\n    tag_65:\n      dup2\n      sload\n      dup2\n      mstore\n      swap1\n      0x01\n      add\n      swap1\n      0x20\n      add\n      dup1\n      dup4\n      gt\n      tag_65\n      jumpi\n      dup3\n      swap1\n      sub\n      0x1f\n      and\n      dup3\n      add\n      swap2\n    tag_63:\n      pop\n      pop\n      pop\n      pop\n      pop\n      dup2\n      mstore\n      0x20\n      add\n      0x05\n      dup3\n      add\n      dup1\n      sload\n      tag_66\n      swap1\n      tag_30\n      jump\t// in\n    tag_66:\n      dup1\n      0x1f\n      add\n      0x20\n      dup1\n      swap2\n      div\n      mul\n      0x20\n      add\n      mload(0x40)\n      swap1\n      dup2\n      add\n      0x40\n      mstore\n      dup1\n      swap3\n      swap2\n      swap1\n      dup2\n      dup2\n      mstore\n      0x20\n      add\n      dup3\n      dup1\n      sload\n      tag_67\n      swap1\n      tag_30\n      jump\t// in\n    tag_67:\n      dup1\n      iszero\n      tag_68\n      jumpi\n      dup1\n      0x1f\n      lt\n      tag_69\n      jumpi\n      0x0100\n      dup1\n      dup4\n      sload\n      div\n      mul\n      dup4\n      mstore\n      swap2\n      0x20\n      add\n      swap2\n      jump(tag_68)\n    tag_69:\n      dup3\n      add\n      swap2\n      swap1\n      0x00\n      mstore\n      keccak256(0x00, 0x20)\n      swap1\n    tag_70:\n      dup2\n      sload\n      dup2\n      mstore\n      swap1\n      0x01\n      add\n      swap1\n      0x20\n      add\n      dup1\n      dup4\n      gt\n      tag_70\n      jumpi\n      dup3\n      swap1\n      sub\n      0x1f\n      and\n      dup3\n      add\n      swap2\n    tag_68:\n      pop\n      pop\n      pop\n      pop\n      pop\n      dup2\n      mstore\n      0x20\n      add\n      0x06\n      dup3\n      add\n      0x00\n      swap1\n      sload\n      swap1\n      0x0100\n      exp\n      swap1\n      div\n      0xff\n      and\n      iszero\n      iszero\n      iszero\n      iszero\n      dup2\n      mstore\n      pop\n      pop\n      dup2\n      mstore\n      0x20\n      add\n      swap1\n      0x01\n      add\n      swap1\n      jump(tag_38)\n    tag_39:\n      pop\n      pop\n      pop\n      pop\n      swap1\n      pop\n        /* \"complaintContract.sol\":1403:1545  function getComplaints(string memory c_name) external view returns (complaint[] memory) {... */\n      swap2\n      swap1\n      pop\n      jump\t// out\n        /* \"complaintContract.sol\":2047:2480  function newComplaint(string memory c_name, string memory u_name, string memory _text, string memory _date, string memory _type, string memory _gender, string memory _relation, bool _consent) external {... */\n    tag_20:\n        /* \"complaintContract.sol\":2256:2270  companyMapping */\n      0x01\n        /* \"complaintContract.sol\":2271:2277  c_name */\n      dup9\n        /* \"complaintContract.sol\":2256:2278  companyMapping[c_name] */\n      mload(0x40)\n      tag_72\n      swap2\n      swap1\n      tag_37\n      jump\t// in\n    tag_72:\n      swap1\n      dup2\n      mstore\n      0x20\n      add\n      mload(0x40)\n      dup1\n      swap2\n      sub\n      swap1\n      keccak256\n        /* \"complaintContract.sol\":2256:2289  companyMapping[c_name].complaints */\n      0x01\n      add\n        /* \"complaintContract.sol\":2295:2363  complaint(u_name, _text, _date, _type, _gender, _relation, _consent) */\n      mload(0x40)\n      dup1\n      0xe0\n      add\n      0x40\n      mstore\n      dup1\n        /* \"complaintContract.sol\":2305:2311  u_name */\n      dup10\n        /* \"complaintContract.sol\":2295:2363  complaint(u_name, _text, _date, _type, _gender, _relation, _consent) */\n      dup2\n      mstore\n      0x20\n      add\n        /* \"complaintContract.sol\":2313:2318  _text */\n      dup9\n        /* \"complaintContract.sol\":2295:2363  complaint(u_name, _text, _date, _type, _gender, _relation, _consent) */\n      dup2\n      mstore\n      0x20\n      add\n        /* \"complaintContract.sol\":2320:2325  _date */\n      dup8\n        /* \"complaintContract.sol\":2295:2363  complaint(u_name, _text, _date, _type, _gender, _relation, _consent) */\n      dup2\n      mstore\n      0x20\n      add\n        /* \"complaintContract.sol\":2327:2332  _type */\n      dup7\n        /* \"complaintContract.sol\":2295:2363  complaint(u_name, _text, _date, _type, _gender, _relation, _consent) */\n      dup2\n      mstore\n      0x20\n      add\n        /* \"complaintContract.sol\":2334:2341  _gender */\n      dup6\n        /* \"complaintContract.sol\":2295:2363  complaint(u_name, _text, _date, _type, _gender, _relation, _consent) */\n      dup2\n      mstore\n      0x20\n      add\n        /* \"complaintContract.sol\":2343:2352  _relation */\n      dup5\n        /* \"complaintContract.sol\":2295:2363  complaint(u_name, _text, _date, _type, _gender, _relation, _consent) */\n      dup2\n      mstore\n      0x20\n      add\n        /* \"complaintContract.sol\":2354:2362  _consent */\n      dup4\n        /* \"complaintContract.sol\":2295:2363  complaint(u_name, _text, _date, _type, _gender, _relation, _consent) */\n      iszero\n      iszero\n      dup2\n      mstore\n      pop\n        /* \"complaintContract.sol\":2256:2364  companyMapping[c_name].complaints.push(complaint(u_name, _text, _date, _type, _gender, _relation, _consent)) */\n      swap1\n      dup1\n      0x01\n      dup2\n      sload\n      add\n      dup1\n      dup3\n      sstore\n      dup1\n      swap2\n      pop\n      pop\n      0x01\n      swap1\n      sub\n      swap1\n      0x00\n      mstore\n      keccak256(0x00, 0x20)\n      swap1\n      0x07\n      mul\n      add\n      0x00\n      swap1\n      swap2\n      swap1\n      swap2\n      swap1\n      swap2\n      pop\n      0x00\n      dup3\n      add\n      mload\n      dup2\n      0x00\n      add\n      swap1\n      dup1\n      mload\n      swap1\n      0x20\n      add\n      swap1\n      tag_74\n      swap3\n      swap2\n      swap1\n      tag_75\n      jump\t// in\n    tag_74:\n      pop\n      0x20\n      dup3\n      add\n      mload\n      dup2\n      0x01\n      add\n      swap1\n      dup1\n      mload\n      swap1\n      0x20\n      add\n      swap1\n      tag_76\n      swap3\n      swap2\n      swap1\n      tag_75\n      jump\t// in\n    tag_76:\n      pop\n      0x40\n      dup3\n      add\n      mload\n      dup2\n      0x02\n      add\n      swap1\n      dup1\n      mload\n      swap1\n      0x20\n      add\n      swap1\n      tag_77\n      swap3\n      swap2\n      swap1\n      tag_75\n      jump\t// in\n    tag_77:\n      pop\n      0x60\n      dup3\n      add\n      mload\n      dup2\n      0x03\n      add\n      swap1\n      dup1\n      mload\n      swap1\n      0x20\n      add\n      swap1\n      tag_78\n      swap3\n      swap2\n      swap1\n      tag_75\n      jump\t// in\n    tag_78:\n      pop\n      0x80\n      dup3\n      add\n      mload\n      dup2\n      0x04\n      add\n      swap1\n      dup1\n      mload\n      swap1\n      0x20\n      add\n      swap1\n      tag_79\n      swap3\n      swap2\n      swap1\n      tag_75\n      jump\t// in\n    tag_79:\n      pop\n      0xa0\n      dup3\n      add\n      mload\n      dup2\n      0x05\n      add\n      swap1\n      dup1\n      mload\n      swap1\n      0x20\n      add\n      swap1\n      tag_80\n      swap3\n      swap2\n      swap1\n      tag_75\n      jump\t// in\n    tag_80:\n      pop\n      0xc0\n      dup3\n      add\n      mload\n      dup2\n      0x06\n      add\n      exp(0x0100, 0x00)\n      dup2\n      sload\n      dup2\n      0xff\n      mul\n      not\n      and\n      swap1\n      dup4\n      iszero\n      iszero\n      mul\n      or\n      swap1\n      sstore\n      pop\n      pop\n      pop\n        /* \"complaintContract.sol\":2372:2380  uint ret */\n      0x00\n        /* \"complaintContract.sol\":2383:2397  companyMapping */\n      0x01\n        /* \"complaintContract.sol\":2398:2404  c_name */\n      dup10\n        /* \"complaintContract.sol\":2383:2405  companyMapping[c_name] */\n      mload(0x40)\n      tag_81\n      swap2\n      swap1\n      tag_37\n      jump\t// in\n    tag_81:\n      swap1\n      dup2\n      mstore\n      0x20\n      add\n      mload(0x40)\n      dup1\n      swap2\n      sub\n      swap1\n      keccak256\n        /* \"complaintContract.sol\":2383:2416  companyMapping[c_name].reputation */\n      0x00\n      add\n      sload\n        /* \"complaintContract.sol\":2372:2416  uint ret = companyMapping[c_name].reputation */\n      swap1\n      pop\n        /* \"complaintContract.sol\":2433:2434  0 */\n      0x00\n        /* \"complaintContract.sol\":2427:2430  ret */\n      dup2\n        /* \"complaintContract.sol\":2427:2434  ret > 0 */\n      gt\n        /* \"complaintContract.sol\":2424:2474  if(ret > 0) companyMapping[c_name].reputation -= 1 */\n      iszero\n      tag_82\n      jumpi\n        /* \"complaintContract.sol\":2473:2474  1 */\n      0x01\n        /* \"complaintContract.sol\":2436:2450  companyMapping */\n      dup1\n        /* \"complaintContract.sol\":2451:2457  c_name */\n      dup11\n        /* \"complaintContract.sol\":2436:2458  companyMapping[c_name] */\n      mload(0x40)\n      tag_83\n      swap2\n      swap1\n      tag_37\n      jump\t// in\n    tag_83:\n      swap1\n      dup2\n      mstore\n      0x20\n      add\n      mload(0x40)\n      dup1\n      swap2\n      sub\n      swap1\n      keccak256\n        /* \"complaintContract.sol\":2436:2469  companyMapping[c_name].reputation */\n      0x00\n      add\n      0x00\n        /* \"complaintContract.sol\":2436:2474  companyMapping[c_name].reputation -= 1 */\n      dup3\n      dup3\n      sload\n      tag_84\n      swap2\n      swap1\n      tag_85\n      jump\t// in\n    tag_84:\n      swap3\n      pop\n      pop\n      dup2\n      swap1\n      sstore\n      pop\n        /* \"complaintContract.sol\":2424:2474  if(ret > 0) companyMapping[c_name].reputation -= 1 */\n    tag_82:\n        /* \"complaintContract.sol\":2248:2480  {... */\n      pop\n        /* \"complaintContract.sol\":2047:2480  function newComplaint(string memory c_name, string memory u_name, string memory _text, string memory _date, string memory _type, string memory _gender, string memory _relation, bool _consent) external {... */\n      pop\n      pop\n      pop\n      pop\n      pop\n      pop\n      pop\n      pop\n      jump\t// out\n        /* \"complaintContract.sol\":1742:2005  function getReputation() external view returns (uint[] memory) {... */\n    tag_22:\n        /* \"complaintContract.sol\":1790:1803  uint[] memory */\n      0x60\n        /* \"complaintContract.sol\":1812:1837  uint[] memory reputations */\n      0x00\n        /* \"complaintContract.sol\":1851:1853  10 */\n      0x0a\n        /* \"complaintContract.sol\":1840:1854  new uint[](10) */\n      0xffffffffffffffff\n      dup2\n      gt\n      iszero\n      tag_87\n      jumpi\n      tag_88\n      tag_89\n      jump\t// in\n    tag_88:\n    tag_87:\n      mload(0x40)\n      swap1\n      dup1\n      dup3\n      mstore\n      dup1\n      0x20\n      mul\n      0x20\n      add\n      dup3\n      add\n      0x40\n      mstore\n      dup1\n      iszero\n      tag_90\n      jumpi\n      dup2\n      0x20\n      add\n      0x20\n      dup3\n      mul\n      dup1\n      calldatasize\n      dup4\n      calldatacopy\n      dup1\n      dup3\n      add\n      swap2\n      pop\n      pop\n      swap1\n      pop\n    tag_90:\n      pop\n        /* \"complaintContract.sol\":1812:1854  uint[] memory reputations = new uint[](10) */\n      swap1\n      pop\n        /* \"complaintContract.sol\":1865:1871  uint i */\n      0x00\n        /* \"complaintContract.sol\":1861:1975  for(uint i=0; i< companies.length; i++){... */\n    tag_91:\n        /* \"complaintContract.sol\":1878:1887  companies */\n      0x00\n        /* \"complaintContract.sol\":1878:1894  companies.length */\n      dup1\n      sload\n      swap1\n      pop\n        /* \"complaintContract.sol\":1875:1876  i */\n      dup2\n        /* \"complaintContract.sol\":1875:1894  i< companies.length */\n      lt\n        /* \"complaintContract.sol\":1861:1975  for(uint i=0; i< companies.length; i++){... */\n      iszero\n      tag_92\n      jumpi\n        /* \"complaintContract.sol\":1927:1941  companyMapping */\n      0x01\n        /* \"complaintContract.sol\":1942:1951  companies */\n      0x00\n        /* \"complaintContract.sol\":1952:1953  i */\n      dup3\n        /* \"complaintContract.sol\":1942:1954  companies[i] */\n      dup2\n      sload\n      dup2\n      lt\n      tag_94\n      jumpi\n      tag_95\n      tag_96\n      jump\t// in\n    tag_95:\n    tag_94:\n      swap1\n      0x00\n      mstore\n      keccak256(0x00, 0x20)\n      add\n        /* \"complaintContract.sol\":1927:1955  companyMapping[companies[i]] */\n      mload(0x40)\n      tag_98\n      swap2\n      swap1\n      tag_99\n      jump\t// in\n    tag_98:\n      swap1\n      dup2\n      mstore\n      0x20\n      add\n      mload(0x40)\n      dup1\n      swap2\n      sub\n      swap1\n      keccak256\n        /* \"complaintContract.sol\":1927:1966  companyMapping[companies[i]].reputation */\n      0x00\n      add\n      sload\n        /* \"complaintContract.sol\":1909:1920  reputations */\n      dup3\n        /* \"complaintContract.sol\":1921:1922  i */\n      dup3\n        /* \"complaintContract.sol\":1909:1923  reputations[i] */\n      dup2\n      mload\n      dup2\n      lt\n      tag_100\n      jumpi\n      tag_101\n      tag_96\n      jump\t// in\n    tag_101:\n    tag_100:\n      0x20\n      mul\n      0x20\n      add\n      add\n        /* \"complaintContract.sol\":1909:1967  reputations[i] = (companyMapping[companies[i]].reputation) */\n      dup2\n      dup2\n      mstore\n      pop\n      pop\n        /* \"complaintContract.sol\":1896:1899  i++ */\n      dup1\n      dup1\n      tag_102\n      swap1\n      tag_103\n      jump\t// in\n    tag_102:\n      swap2\n      pop\n      pop\n        /* \"complaintContract.sol\":1861:1975  for(uint i=0; i< companies.length; i++){... */\n      jump(tag_91)\n    tag_92:\n      pop\n        /* \"complaintContract.sol\":1988:1999  reputations */\n      dup1\n        /* \"complaintContract.sol\":1981:1999  return reputations */\n      swap2\n      pop\n      pop\n        /* \"complaintContract.sol\":1742:2005  function getReputation() external view returns (uint[] memory) {... */\n      swap1\n      jump\t// out\n    tag_75:\n      dup3\n      dup1\n      sload\n      tag_104\n      swap1\n      tag_30\n      jump\t// in\n    tag_104:\n      swap1\n      0x00\n      mstore\n      keccak256(0x00, 0x20)\n      swap1\n      0x1f\n      add\n      0x20\n      swap1\n      div\n      dup2\n      add\n      swap3\n      dup3\n      tag_106\n      jumpi\n      0x00\n      dup6\n      sstore\n      jump(tag_105)\n    tag_106:\n      dup3\n      0x1f\n      lt\n      tag_107\n      jumpi\n      dup1\n      mload\n      not(0xff)\n      and\n      dup4\n      dup1\n      add\n      or\n      dup6\n      sstore\n      jump(tag_105)\n    tag_107:\n      dup3\n      dup1\n      add\n      0x01\n      add\n      dup6\n      sstore\n      dup3\n      iszero\n      tag_105\n      jumpi\n      swap2\n      dup3\n      add\n    tag_108:\n      dup3\n      dup2\n      gt\n      iszero\n      tag_109\n      jumpi\n      dup3\n      mload\n      dup3\n      sstore\n      swap2\n      0x20\n      add\n      swap2\n      swap1\n      0x01\n      add\n      swap1\n      jump(tag_108)\n    tag_109:\n    tag_105:\n      pop\n      swap1\n      pop\n      tag_110\n      swap2\n      swap1\n      tag_111\n      jump\t// in\n    tag_110:\n      pop\n      swap1\n      jump\t// out\n    tag_111:\n    tag_112:\n      dup1\n      dup3\n      gt\n      iszero\n      tag_113\n      jumpi\n      0x00\n      dup2\n      0x00\n      swap1\n      sstore\n      pop\n      0x01\n      add\n      jump(tag_112)\n    tag_113:\n      pop\n      swap1\n      jump\t// out\n        /* \"#utility.yul\":7:131   */\n    tag_114:\n        /* \"#utility.yul\":84:90   */\n      0x00\n        /* \"#utility.yul\":118:123   */\n      dup2\n        /* \"#utility.yul\":112:124   */\n      mload\n        /* \"#utility.yul\":102:124   */\n      swap1\n      pop\n        /* \"#utility.yul\":7:131   */\n      swap2\n      swap1\n      pop\n      jump\t// out\n        /* \"#utility.yul\":137:331   */\n    tag_115:\n        /* \"#utility.yul\":246:257   */\n      0x00\n        /* \"#utility.yul\":280:286   */\n      dup3\n        /* \"#utility.yul\":275:278   */\n      dup3\n        /* \"#utility.yul\":268:287   */\n      mstore\n        /* \"#utility.yul\":320:324   */\n      0x20\n        /* \"#utility.yul\":315:318   */\n      dup3\n        /* \"#utility.yul\":311:325   */\n      add\n        /* \"#utility.yul\":296:325   */\n      swap1\n      pop\n        /* \"#utility.yul\":137:331   */\n      swap3\n      swap2\n      pop\n      pop\n      jump\t// out\n        /* \"#utility.yul\":337:479   */\n    tag_116:\n        /* \"#utility.yul\":414:418   */\n      0x00\n        /* \"#utility.yul\":437:440   */\n      dup2\n        /* \"#utility.yul\":429:440   */\n      swap1\n      pop\n        /* \"#utility.yul\":467:471   */\n      0x20\n        /* \"#utility.yul\":462:465   */\n      dup3\n        /* \"#utility.yul\":458:472   */\n      add\n        /* \"#utility.yul\":450:472   */\n      swap1\n      pop\n        /* \"#utility.yul\":337:479   */\n      swap2\n      swap1\n      pop\n      jump\t// out\n        /* \"#utility.yul\":485:584   */\n    tag_117:\n        /* \"#utility.yul\":537:543   */\n      0x00\n        /* \"#utility.yul\":571:576   */\n      dup2\n        /* \"#utility.yul\":565:577   */\n      mload\n        /* \"#utility.yul\":555:577   */\n      swap1\n      pop\n        /* \"#utility.yul\":485:584   */\n      swap2\n      swap1\n      pop\n      jump\t// out\n        /* \"#utility.yul\":590:749   */\n    tag_118:\n        /* \"#utility.yul\":664:675   */\n      0x00\n        /* \"#utility.yul\":698:704   */\n      dup3\n        /* \"#utility.yul\":693:696   */\n      dup3\n        /* \"#utility.yul\":686:705   */\n      mstore\n        /* \"#utility.yul\":738:742   */\n      0x20\n        /* \"#utility.yul\":733:736   */\n      dup3\n        /* \"#utility.yul\":729:743   */\n      add\n        /* \"#utility.yul\":714:743   */\n      swap1\n      pop\n        /* \"#utility.yul\":590:749   */\n      swap3\n      swap2\n      pop\n      pop\n      jump\t// out\n        /* \"#utility.yul\":755:1062   */\n    tag_119:\n        /* \"#utility.yul\":823:824   */\n      0x00\n        /* \"#utility.yul\":833:946   */\n    tag_168:\n        /* \"#utility.yul\":847:853   */\n      dup4\n        /* \"#utility.yul\":844:845   */\n      dup2\n        /* \"#utility.yul\":841:854   */\n      lt\n        /* \"#utility.yul\":833:946   */\n      iszero\n      tag_170\n      jumpi\n        /* \"#utility.yul\":932:933   */\n      dup1\n        /* \"#utility.yul\":927:930   */\n      dup3\n        /* \"#utility.yul\":923:934   */\n      add\n        /* \"#utility.yul\":917:935   */\n      mload\n        /* \"#utility.yul\":913:914   */\n      dup2\n        /* \"#utility.yul\":908:911   */\n      dup5\n        /* \"#utility.yul\":904:915   */\n      add\n        /* \"#utility.yul\":897:936   */\n      mstore\n        /* \"#utility.yul\":869:871   */\n      0x20\n        /* \"#utility.yul\":866:867   */\n      dup2\n        /* \"#utility.yul\":862:872   */\n      add\n        /* \"#utility.yul\":857:872   */\n      swap1\n      pop\n        /* \"#utility.yul\":833:946   */\n      jump(tag_168)\n    tag_170:\n        /* \"#utility.yul\":964:970   */\n      dup4\n        /* \"#utility.yul\":961:962   */\n      dup2\n        /* \"#utility.yul\":958:971   */\n      gt\n        /* \"#utility.yul\":955:1056   */\n      iszero\n      tag_171\n      jumpi\n        /* \"#utility.yul\":1044:1045   */\n      0x00\n        /* \"#utility.yul\":1035:1041   */\n      dup5\n        /* \"#utility.yul\":1030:1033   */\n      dup5\n        /* \"#utility.yul\":1026:1042   */\n      add\n        /* \"#utility.yul\":1019:1046   */\n      mstore\n        /* \"#utility.yul\":955:1056   */\n    tag_171:\n        /* \"#utility.yul\":804:1062   */\n      pop\n        /* \"#utility.yul\":755:1062   */\n      pop\n      pop\n      pop\n      jump\t// out\n        /* \"#utility.yul\":1068:1170   */\n    tag_120:\n        /* \"#utility.yul\":1109:1115   */\n      0x00\n        /* \"#utility.yul\":1160:1162   */\n      0x1f\n        /* \"#utility.yul\":1156:1163   */\n      not\n        /* \"#utility.yul\":1151:1153   */\n      0x1f\n        /* \"#utility.yul\":1144:1149   */\n      dup4\n        /* \"#utility.yul\":1140:1154   */\n      add\n        /* \"#utility.yul\":1136:1164   */\n      and\n        /* \"#utility.yul\":1126:1164   */\n      swap1\n      pop\n        /* \"#utility.yul\":1068:1170   */\n      swap2\n      swap1\n      pop\n      jump\t// out\n        /* \"#utility.yul\":1176:1520   */\n    tag_121:\n        /* \"#utility.yul\":1254:1257   */\n      0x00\n        /* \"#utility.yul\":1282:1321   */\n      tag_174\n        /* \"#utility.yul\":1315:1320   */\n      dup3\n        /* \"#utility.yul\":1282:1321   */\n      tag_117\n      jump\t// in\n    tag_174:\n        /* \"#utility.yul\":1337:1398   */\n      tag_175\n        /* \"#utility.yul\":1391:1397   */\n      dup2\n        /* \"#utility.yul\":1386:1389   */\n      dup6\n        /* \"#utility.yul\":1337:1398   */\n      tag_118\n      jump\t// in\n    tag_175:\n        /* \"#utility.yul\":1330:1398   */\n      swap4\n      pop\n        /* \"#utility.yul\":1407:1459   */\n      tag_176\n        /* \"#utility.yul\":1452:1458   */\n      dup2\n        /* \"#utility.yul\":1447:1450   */\n      dup6\n        /* \"#utility.yul\":1440:1444   */\n      0x20\n        /* \"#utility.yul\":1433:1438   */\n      dup7\n        /* \"#utility.yul\":1429:1445   */\n      add\n        /* \"#utility.yul\":1407:1459   */\n      tag_119\n      jump\t// in\n    tag_176:\n        /* \"#utility.yul\":1484:1513   */\n      tag_177\n        /* \"#utility.yul\":1506:1512   */\n      dup2\n        /* \"#utility.yul\":1484:1513   */\n      tag_120\n      jump\t// in\n    tag_177:\n        /* \"#utility.yul\":1479:1482   */\n      dup5\n        /* \"#utility.yul\":1475:1514   */\n      add\n        /* \"#utility.yul\":1468:1514   */\n      swap2\n      pop\n        /* \"#utility.yul\":1258:1520   */\n      pop\n        /* \"#utility.yul\":1176:1520   */\n      swap3\n      swap2\n      pop\n      pop\n      jump\t// out\n        /* \"#utility.yul\":1526:1722   */\n    tag_122:\n        /* \"#utility.yul\":1615:1625   */\n      0x00\n        /* \"#utility.yul\":1650:1716   */\n      tag_179\n        /* \"#utility.yul\":1712:1715   */\n      dup4\n        /* \"#utility.yul\":1704:1710   */\n      dup4\n        /* \"#utility.yul\":1650:1716   */\n      tag_121\n      jump\t// in\n    tag_179:\n        /* \"#utility.yul\":1636:1716   */\n      swap1\n      pop\n        /* \"#utility.yul\":1526:1722   */\n      swap3\n      swap2\n      pop\n      pop\n      jump\t// out\n        /* \"#utility.yul\":1728:1851   */\n    tag_123:\n        /* \"#utility.yul\":1808:1812   */\n      0x00\n        /* \"#utility.yul\":1840:1844   */\n      0x20\n        /* \"#utility.yul\":1835:1838   */\n      dup3\n        /* \"#utility.yul\":1831:1845   */\n      add\n        /* \"#utility.yul\":1823:1845   */\n      swap1\n      pop\n        /* \"#utility.yul\":1728:1851   */\n      swap2\n      swap1\n      pop\n      jump\t// out\n        /* \"#utility.yul\":1885:2876   */\n    tag_124:\n        /* \"#utility.yul\":2024:2027   */\n      0x00\n        /* \"#utility.yul\":2053:2117   */\n      tag_182\n        /* \"#utility.yul\":2111:2116   */\n      dup3\n        /* \"#utility.yul\":2053:2117   */\n      tag_114\n      jump\t// in\n    tag_182:\n        /* \"#utility.yul\":2133:2229   */\n      tag_183\n        /* \"#utility.yul\":2222:2228   */\n      dup2\n        /* \"#utility.yul\":2217:2220   */\n      dup6\n        /* \"#utility.yul\":2133:2229   */\n      tag_115\n      jump\t// in\n    tag_183:\n        /* \"#utility.yul\":2126:2229   */\n      swap4\n      pop\n        /* \"#utility.yul\":2255:2258   */\n      dup4\n        /* \"#utility.yul\":2300:2304   */\n      0x20\n        /* \"#utility.yul\":2292:2298   */\n      dup3\n        /* \"#utility.yul\":2288:2305   */\n      mul\n        /* \"#utility.yul\":2283:2286   */\n      dup6\n        /* \"#utility.yul\":2279:2306   */\n      add\n        /* \"#utility.yul\":2330:2396   */\n      tag_184\n        /* \"#utility.yul\":2390:2395   */\n      dup6\n        /* \"#utility.yul\":2330:2396   */\n      tag_116\n      jump\t// in\n    tag_184:\n        /* \"#utility.yul\":2419:2426   */\n      dup1\n        /* \"#utility.yul\":2450:2451   */\n      0x00\n        /* \"#utility.yul\":2435:2831   */\n    tag_185:\n        /* \"#utility.yul\":2460:2466   */\n      dup6\n        /* \"#utility.yul\":2457:2458   */\n      dup2\n        /* \"#utility.yul\":2454:2467   */\n      lt\n        /* \"#utility.yul\":2435:2831   */\n      iszero\n      tag_187\n      jumpi\n        /* \"#utility.yul\":2531:2540   */\n      dup5\n        /* \"#utility.yul\":2525:2529   */\n      dup5\n        /* \"#utility.yul\":2521:2541   */\n      sub\n        /* \"#utility.yul\":2516:2519   */\n      dup10\n        /* \"#utility.yul\":2509:2542   */\n      mstore\n        /* \"#utility.yul\":2582:2588   */\n      dup2\n        /* \"#utility.yul\":2576:2589   */\n      mload\n        /* \"#utility.yul\":2610:2694   */\n      tag_188\n        /* \"#utility.yul\":2689:2693   */\n      dup6\n        /* \"#utility.yul\":2674:2687   */\n      dup3\n        /* \"#utility.yul\":2610:2694   */\n      tag_122\n      jump\t// in\n    tag_188:\n        /* \"#utility.yul\":2602:2694   */\n      swap5\n      pop\n        /* \"#utility.yul\":2717:2787   */\n      tag_189\n        /* \"#utility.yul\":2780:2786   */\n      dup4\n        /* \"#utility.yul\":2717:2787   */\n      tag_123\n      jump\t// in\n    tag_189:\n        /* \"#utility.yul\":2707:2787   */\n      swap3\n      pop\n        /* \"#utility.yul\":2816:2820   */\n      0x20\n        /* \"#utility.yul\":2811:2814   */\n      dup11\n        /* \"#utility.yul\":2807:2821   */\n      add\n        /* \"#utility.yul\":2800:2821   */\n      swap10\n      pop\n        /* \"#utility.yul\":2495:2831   */\n      pop\n        /* \"#utility.yul\":2482:2483   */\n      0x01\n        /* \"#utility.yul\":2479:2480   */\n      dup2\n        /* \"#utility.yul\":2475:2484   */\n      add\n        /* \"#utility.yul\":2470:2484   */\n      swap1\n      pop\n        /* \"#utility.yul\":2435:2831   */\n      jump(tag_185)\n    tag_187:\n        /* \"#utility.yul\":2439:2453   */\n      pop\n        /* \"#utility.yul\":2847:2851   */\n      dup3\n        /* \"#utility.yul\":2840:2851   */\n      swap8\n      pop\n        /* \"#utility.yul\":2867:2870   */\n      dup8\n        /* \"#utility.yul\":2860:2870   */\n      swap6\n      pop\n        /* \"#utility.yul\":2029:2876   */\n      pop\n      pop\n      pop\n      pop\n      pop\n        /* \"#utility.yul\":1885:2876   */\n      swap3\n      swap2\n      pop\n      pop\n      jump\t// out\n        /* \"#utility.yul\":2882:3295   */\n    tag_10:\n        /* \"#utility.yul\":3045:3049   */\n      0x00\n        /* \"#utility.yul\":3083:3085   */\n      0x20\n        /* \"#utility.yul\":3072:3081   */\n      dup3\n        /* \"#utility.yul\":3068:3086   */\n      add\n        /* \"#utility.yul\":3060:3086   */\n      swap1\n      pop\n        /* \"#utility.yul\":3132:3141   */\n      dup2\n        /* \"#utility.yul\":3126:3130   */\n      dup2\n        /* \"#utility.yul\":3122:3142   */\n      sub\n        /* \"#utility.yul\":3118:3119   */\n      0x00\n        /* \"#utility.yul\":3107:3116   */\n      dup4\n        /* \"#utility.yul\":3103:3120   */\n      add\n        /* \"#utility.yul\":3096:3143   */\n      mstore\n        /* \"#utility.yul\":3160:3288   */\n      tag_191\n        /* \"#utility.yul\":3283:3287   */\n      dup2\n        /* \"#utility.yul\":3274:3280   */\n      dup5\n        /* \"#utility.yul\":3160:3288   */\n      tag_124\n      jump\t// in\n    tag_191:\n        /* \"#utility.yul\":3152:3288   */\n      swap1\n      pop\n        /* \"#utility.yul\":2882:3295   */\n      swap3\n      swap2\n      pop\n      pop\n      jump\t// out\n        /* \"#utility.yul\":3301:3376   */\n    tag_125:\n        /* \"#utility.yul\":3334:3340   */\n      0x00\n        /* \"#utility.yul\":3367:3369   */\n      0x40\n        /* \"#utility.yul\":3361:3370   */\n      mload\n        /* \"#utility.yul\":3351:3370   */\n      swap1\n      pop\n        /* \"#utility.yul\":3301:3376   */\n      swap1\n      jump\t// out\n        /* \"#utility.yul\":3382:3499   */\n    tag_126:\n        /* \"#utility.yul\":3491:3492   */\n      0x00\n        /* \"#utility.yul\":3488:3489   */\n      dup1\n        /* \"#utility.yul\":3481:3493   */\n      revert\n        /* \"#utility.yul\":3505:3622   */\n    tag_127:\n        /* \"#utility.yul\":3614:3615   */\n      0x00\n        /* \"#utility.yul\":3611:3612   */\n      dup1\n        /* \"#utility.yul\":3604:3616   */\n      revert\n        /* \"#utility.yul\":3628:3745   */\n    tag_128:\n        /* \"#utility.yul\":3737:3738   */\n      0x00\n        /* \"#utility.yul\":3734:3735   */\n      dup1\n        /* \"#utility.yul\":3727:3739   */\n      revert\n        /* \"#utility.yul\":3751:3868   */\n    tag_129:\n        /* \"#utility.yul\":3860:3861   */\n      0x00\n        /* \"#utility.yul\":3857:3858   */\n      dup1\n        /* \"#utility.yul\":3850:3862   */\n      revert\n        /* \"#utility.yul\":3874:4054   */\n    tag_89:\n        /* \"#utility.yul\":3922:3999   */\n      0x4e487b7100000000000000000000000000000000000000000000000000000000\n        /* \"#utility.yul\":3919:3920   */\n      0x00\n        /* \"#utility.yul\":3912:4000   */\n      mstore\n        /* \"#utility.yul\":4019:4023   */\n      0x41\n        /* \"#utility.yul\":4016:4017   */\n      0x04\n        /* \"#utility.yul\":4009:4024   */\n      mstore\n        /* \"#utility.yul\":4043:4047   */\n      0x24\n        /* \"#utility.yul\":4040:4041   */\n      0x00\n        /* \"#utility.yul\":4033:4048   */\n      revert\n        /* \"#utility.yul\":4060:4341   */\n    tag_130:\n        /* \"#utility.yul\":4143:4170   */\n      tag_199\n        /* \"#utility.yul\":4165:4169   */\n      dup3\n        /* \"#utility.yul\":4143:4170   */\n      tag_120\n      jump\t// in\n    tag_199:\n        /* \"#utility.yul\":4135:4141   */\n      dup2\n        /* \"#utility.yul\":4131:4171   */\n      add\n        /* \"#utility.yul\":4273:4279   */\n      dup2\n        /* \"#utility.yul\":4261:4271   */\n      dup2\n        /* \"#utility.yul\":4258:4280   */\n      lt\n        /* \"#utility.yul\":4237:4255   */\n      0xffffffffffffffff\n        /* \"#utility.yul\":4225:4235   */\n      dup3\n        /* \"#utility.yul\":4222:4256   */\n      gt\n        /* \"#utility.yul\":4219:4281   */\n      or\n        /* \"#utility.yul\":4216:4304   */\n      iszero\n      tag_200\n      jumpi\n        /* \"#utility.yul\":4284:4302   */\n      tag_201\n      tag_89\n      jump\t// in\n    tag_201:\n        /* \"#utility.yul\":4216:4304   */\n    tag_200:\n        /* \"#utility.yul\":4324:4334   */\n      dup1\n        /* \"#utility.yul\":4320:4322   */\n      0x40\n        /* \"#utility.yul\":4313:4335   */\n      mstore\n        /* \"#utility.yul\":4103:4341   */\n      pop\n        /* \"#utility.yul\":4060:4341   */\n      pop\n      pop\n      jump\t// out\n        /* \"#utility.yul\":4347:4476   */\n    tag_131:\n        /* \"#utility.yul\":4381:4387   */\n      0x00\n        /* \"#utility.yul\":4408:4428   */\n      tag_203\n      tag_125\n      jump\t// in\n    tag_203:\n        /* \"#utility.yul\":4398:4428   */\n      swap1\n      pop\n        /* \"#utility.yul\":4437:4470   */\n      tag_204\n        /* \"#utility.yul\":4465:4469   */\n      dup3\n        /* \"#utility.yul\":4457:4463   */\n      dup3\n        /* \"#utility.yul\":4437:4470   */\n      tag_130\n      jump\t// in\n    tag_204:\n        /* \"#utility.yul\":4347:4476   */\n      swap2\n      swap1\n      pop\n      jump\t// out\n        /* \"#utility.yul\":4482:4790   */\n    tag_132:\n        /* \"#utility.yul\":4544:4548   */\n      0x00\n        /* \"#utility.yul\":4634:4652   */\n      0xffffffffffffffff\n        /* \"#utility.yul\":4626:4632   */\n      dup3\n        /* \"#utility.yul\":4623:4653   */\n      gt\n        /* \"#utility.yul\":4620:4676   */\n      iszero\n      tag_206\n      jumpi\n        /* \"#utility.yul\":4656:4674   */\n      tag_207\n      tag_89\n      jump\t// in\n    tag_207:\n        /* \"#utility.yul\":4620:4676   */\n    tag_206:\n        /* \"#utility.yul\":4694:4723   */\n      tag_208\n        /* \"#utility.yul\":4716:4722   */\n      dup3\n        /* \"#utility.yul\":4694:4723   */\n      tag_120\n      jump\t// in\n    tag_208:\n        /* \"#utility.yul\":4686:4723   */\n      swap1\n      pop\n        /* \"#utility.yul\":4778:4782   */\n      0x20\n        /* \"#utility.yul\":4772:4776   */\n      dup2\n        /* \"#utility.yul\":4768:4783   */\n      add\n        /* \"#utility.yul\":4760:4783   */\n      swap1\n      pop\n        /* \"#utility.yul\":4482:4790   */\n      swap2\n      swap1\n      pop\n      jump\t// out\n        /* \"#utility.yul\":4796:4950   */\n    tag_133:\n        /* \"#utility.yul\":4880:4886   */\n      dup3\n        /* \"#utility.yul\":4875:4878   */\n      dup2\n        /* \"#utility.yul\":4870:4873   */\n      dup4\n        /* \"#utility.yul\":4857:4887   */\n      calldatacopy\n        /* \"#utility.yul\":4942:4943   */\n      0x00\n        /* \"#utility.yul\":4933:4939   */\n      dup4\n        /* \"#utility.yul\":4928:4931   */\n      dup4\n        /* \"#utility.yul\":4924:4940   */\n      add\n        /* \"#utility.yul\":4917:4944   */\n      mstore\n        /* \"#utility.yul\":4796:4950   */\n      pop\n      pop\n      pop\n      jump\t// out\n        /* \"#utility.yul\":4956:5368   */\n    tag_134:\n        /* \"#utility.yul\":5034:5039   */\n      0x00\n        /* \"#utility.yul\":5059:5125   */\n      tag_211\n        /* \"#utility.yul\":5075:5124   */\n      tag_212\n        /* \"#utility.yul\":5117:5123   */\n      dup5\n        /* \"#utility.yul\":5075:5124   */\n      tag_132\n      jump\t// in\n    tag_212:\n        /* \"#utility.yul\":5059:5125   */\n      tag_131\n      jump\t// in\n    tag_211:\n        /* \"#utility.yul\":5050:5125   */\n      swap1\n      pop\n        /* \"#utility.yul\":5148:5154   */\n      dup3\n        /* \"#utility.yul\":5141:5146   */\n      dup2\n        /* \"#utility.yul\":5134:5155   */\n      mstore\n        /* \"#utility.yul\":5186:5190   */\n      0x20\n        /* \"#utility.yul\":5179:5184   */\n      dup2\n        /* \"#utility.yul\":5175:5191   */\n      add\n        /* \"#utility.yul\":5224:5227   */\n      dup5\n        /* \"#utility.yul\":5215:5221   */\n      dup5\n        /* \"#utility.yul\":5210:5213   */\n      dup5\n        /* \"#utility.yul\":5206:5222   */\n      add\n        /* \"#utility.yul\":5203:5228   */\n      gt\n        /* \"#utility.yul\":5200:5312   */\n      iszero\n      tag_213\n      jumpi\n        /* \"#utility.yul\":5231:5310   */\n      tag_214\n      tag_129\n      jump\t// in\n    tag_214:\n        /* \"#utility.yul\":5200:5312   */\n    tag_213:\n        /* \"#utility.yul\":5321:5362   */\n      tag_215\n        /* \"#utility.yul\":5355:5361   */\n      dup5\n        /* \"#utility.yul\":5350:5353   */\n      dup3\n        /* \"#utility.yul\":5345:5348   */\n      dup6\n        /* \"#utility.yul\":5321:5362   */\n      tag_133\n      jump\t// in\n    tag_215:\n        /* \"#utility.yul\":5040:5368   */\n      pop\n        /* \"#utility.yul\":4956:5368   */\n      swap4\n      swap3\n      pop\n      pop\n      pop\n      jump\t// out\n        /* \"#utility.yul\":5388:5728   */\n    tag_135:\n        /* \"#utility.yul\":5444:5449   */\n      0x00\n        /* \"#utility.yul\":5493:5496   */\n      dup3\n        /* \"#utility.yul\":5486:5490   */\n      0x1f\n        /* \"#utility.yul\":5478:5484   */\n      dup4\n        /* \"#utility.yul\":5474:5491   */\n      add\n        /* \"#utility.yul\":5470:5497   */\n      slt\n        /* \"#utility.yul\":5460:5582   */\n      tag_217\n      jumpi\n        /* \"#utility.yul\":5501:5580   */\n      tag_218\n      tag_128\n      jump\t// in\n    tag_218:\n        /* \"#utility.yul\":5460:5582   */\n    tag_217:\n        /* \"#utility.yul\":5618:5624   */\n      dup2\n        /* \"#utility.yul\":5605:5625   */\n      calldataload\n        /* \"#utility.yul\":5643:5722   */\n      tag_219\n        /* \"#utility.yul\":5718:5721   */\n      dup5\n        /* \"#utility.yul\":5710:5716   */\n      dup3\n        /* \"#utility.yul\":5703:5707   */\n      0x20\n        /* \"#utility.yul\":5695:5701   */\n      dup7\n        /* \"#utility.yul\":5691:5708   */\n      add\n        /* \"#utility.yul\":5643:5722   */\n      tag_134\n      jump\t// in\n    tag_219:\n        /* \"#utility.yul\":5634:5722   */\n      swap2\n      pop\n        /* \"#utility.yul\":5450:5728   */\n      pop\n        /* \"#utility.yul\":5388:5728   */\n      swap3\n      swap2\n      pop\n      pop\n      jump\t// out\n        /* \"#utility.yul\":5734:6243   */\n    tag_13:\n        /* \"#utility.yul\":5803:5809   */\n      0x00\n        /* \"#utility.yul\":5852:5854   */\n      0x20\n        /* \"#utility.yul\":5840:5849   */\n      dup3\n        /* \"#utility.yul\":5831:5838   */\n      dup5\n        /* \"#utility.yul\":5827:5850   */\n      sub\n        /* \"#utility.yul\":5823:5855   */\n      slt\n        /* \"#utility.yul\":5820:5939   */\n      iszero\n      tag_221\n      jumpi\n        /* \"#utility.yul\":5858:5937   */\n      tag_222\n      tag_126\n      jump\t// in\n    tag_222:\n        /* \"#utility.yul\":5820:5939   */\n    tag_221:\n        /* \"#utility.yul\":6006:6007   */\n      0x00\n        /* \"#utility.yul\":5995:6004   */\n      dup3\n        /* \"#utility.yul\":5991:6008   */\n      add\n        /* \"#utility.yul\":5978:6009   */\n      calldataload\n        /* \"#utility.yul\":6036:6054   */\n      0xffffffffffffffff\n        /* \"#utility.yul\":6028:6034   */\n      dup2\n        /* \"#utility.yul\":6025:6055   */\n      gt\n        /* \"#utility.yul\":6022:6139   */\n      iszero\n      tag_223\n      jumpi\n        /* \"#utility.yul\":6058:6137   */\n      tag_224\n      tag_127\n      jump\t// in\n    tag_224:\n        /* \"#utility.yul\":6022:6139   */\n    tag_223:\n        /* \"#utility.yul\":6163:6226   */\n      tag_225\n        /* \"#utility.yul\":6218:6225   */\n      dup5\n        /* \"#utility.yul\":6209:6215   */\n      dup3\n        /* \"#utility.yul\":6198:6207   */\n      dup6\n        /* \"#utility.yul\":6194:6216   */\n      add\n        /* \"#utility.yul\":6163:6226   */\n      tag_135\n      jump\t// in\n    tag_225:\n        /* \"#utility.yul\":6153:6226   */\n      swap2\n      pop\n        /* \"#utility.yul\":5949:6236   */\n      pop\n        /* \"#utility.yul\":5734:6243   */\n      swap3\n      swap2\n      pop\n      pop\n      jump\t// out\n        /* \"#utility.yul\":6249:6388   */\n    tag_136:\n        /* \"#utility.yul\":6341:6347   */\n      0x00\n        /* \"#utility.yul\":6375:6380   */\n      dup2\n        /* \"#utility.yul\":6369:6381   */\n      mload\n        /* \"#utility.yul\":6359:6381   */\n      swap1\n      pop\n        /* \"#utility.yul\":6249:6388   */\n      swap2\n      swap1\n      pop\n      jump\t// out\n        /* \"#utility.yul\":6394:6603   */\n    tag_137:\n        /* \"#utility.yul\":6518:6529   */\n      0x00\n        /* \"#utility.yul\":6552:6558   */\n      dup3\n        /* \"#utility.yul\":6547:6550   */\n      dup3\n        /* \"#utility.yul\":6540:6559   */\n      mstore\n        /* \"#utility.yul\":6592:6596   */\n      0x20\n        /* \"#utility.yul\":6587:6590   */\n      dup3\n        /* \"#utility.yul\":6583:6597   */\n      add\n        /* \"#utility.yul\":6568:6597   */\n      swap1\n      pop\n        /* \"#utility.yul\":6394:6603   */\n      swap3\n      swap2\n      pop\n      pop\n      jump\t// out\n        /* \"#utility.yul\":6609:6766   */\n    tag_138:\n        /* \"#utility.yul\":6701:6705   */\n      0x00\n        /* \"#utility.yul\":6724:6727   */\n      dup2\n        /* \"#utility.yul\":6716:6727   */\n      swap1\n      pop\n        /* \"#utility.yul\":6754:6758   */\n      0x20\n        /* \"#utility.yul\":6749:6752   */\n      dup3\n        /* \"#utility.yul\":6745:6759   */\n      add\n        /* \"#utility.yul\":6737:6759   */\n      swap1\n      pop\n        /* \"#utility.yul\":6609:6766   */\n      swap2\n      swap1\n      pop\n      jump\t// out\n        /* \"#utility.yul\":6772:6862   */\n    tag_139:\n        /* \"#utility.yul\":6806:6813   */\n      0x00\n        /* \"#utility.yul\":6849:6854   */\n      dup2\n        /* \"#utility.yul\":6842:6855   */\n      iszero\n        /* \"#utility.yul\":6835:6856   */\n      iszero\n        /* \"#utility.yul\":6824:6856   */\n      swap1\n      pop\n        /* \"#utility.yul\":6772:6862   */\n      swap2\n      swap1\n      pop\n      jump\t// out\n        /* \"#utility.yul\":6868:6967   */\n    tag_140:\n        /* \"#utility.yul\":6939:6960   */\n      tag_231\n        /* \"#utility.yul\":6954:6959   */\n      dup2\n        /* \"#utility.yul\":6939:6960   */\n      tag_139\n      jump\t// in\n    tag_231:\n        /* \"#utility.yul\":6934:6937   */\n      dup3\n        /* \"#utility.yul\":6927:6961   */\n      mstore\n        /* \"#utility.yul\":6868:6967   */\n      pop\n      pop\n      jump\t// out\n        /* \"#utility.yul\":7053:8879   */\n    tag_141:\n        /* \"#utility.yul\":7162:7165   */\n      0x00\n        /* \"#utility.yul\":7198:7202   */\n      0xe0\n        /* \"#utility.yul\":7193:7196   */\n      dup4\n        /* \"#utility.yul\":7189:7203   */\n      add\n        /* \"#utility.yul\":7285:7289   */\n      0x00\n        /* \"#utility.yul\":7278:7283   */\n      dup4\n        /* \"#utility.yul\":7274:7290   */\n      add\n        /* \"#utility.yul\":7268:7291   */\n      mload\n        /* \"#utility.yul\":7338:7341   */\n      dup5\n        /* \"#utility.yul\":7332:7336   */\n      dup3\n        /* \"#utility.yul\":7328:7342   */\n      sub\n        /* \"#utility.yul\":7321:7325   */\n      0x00\n        /* \"#utility.yul\":7316:7319   */\n      dup7\n        /* \"#utility.yul\":7312:7326   */\n      add\n        /* \"#utility.yul\":7305:7343   */\n      mstore\n        /* \"#utility.yul\":7364:7437   */\n      tag_233\n        /* \"#utility.yul\":7432:7436   */\n      dup3\n        /* \"#utility.yul\":7418:7430   */\n      dup3\n        /* \"#utility.yul\":7364:7437   */\n      tag_121\n      jump\t// in\n    tag_233:\n        /* \"#utility.yul\":7356:7437   */\n      swap2\n      pop\n        /* \"#utility.yul\":7213:7448   */\n      pop\n        /* \"#utility.yul\":7530:7534   */\n      0x20\n        /* \"#utility.yul\":7523:7528   */\n      dup4\n        /* \"#utility.yul\":7519:7535   */\n      add\n        /* \"#utility.yul\":7513:7536   */\n      mload\n        /* \"#utility.yul\":7583:7586   */\n      dup5\n        /* \"#utility.yul\":7577:7581   */\n      dup3\n        /* \"#utility.yul\":7573:7587   */\n      sub\n        /* \"#utility.yul\":7566:7570   */\n      0x20\n        /* \"#utility.yul\":7561:7564   */\n      dup7\n        /* \"#utility.yul\":7557:7571   */\n      add\n        /* \"#utility.yul\":7550:7588   */\n      mstore\n        /* \"#utility.yul\":7609:7682   */\n      tag_234\n        /* \"#utility.yul\":7677:7681   */\n      dup3\n        /* \"#utility.yul\":7663:7675   */\n      dup3\n        /* \"#utility.yul\":7609:7682   */\n      tag_121\n      jump\t// in\n    tag_234:\n        /* \"#utility.yul\":7601:7682   */\n      swap2\n      pop\n        /* \"#utility.yul\":7458:7693   */\n      pop\n        /* \"#utility.yul\":7776:7780   */\n      0x40\n        /* \"#utility.yul\":7769:7774   */\n      dup4\n        /* \"#utility.yul\":7765:7781   */\n      add\n        /* \"#utility.yul\":7759:7782   */\n      mload\n        /* \"#utility.yul\":7829:7832   */\n      dup5\n        /* \"#utility.yul\":7823:7827   */\n      dup3\n        /* \"#utility.yul\":7819:7833   */\n      sub\n        /* \"#utility.yul\":7812:7816   */\n      0x40\n        /* \"#utility.yul\":7807:7810   */\n      dup7\n        /* \"#utility.yul\":7803:7817   */\n      add\n        /* \"#utility.yul\":7796:7834   */\n      mstore\n        /* \"#utility.yul\":7855:7928   */\n      tag_235\n        /* \"#utility.yul\":7923:7927   */\n      dup3\n        /* \"#utility.yul\":7909:7921   */\n      dup3\n        /* \"#utility.yul\":7855:7928   */\n      tag_121\n      jump\t// in\n    tag_235:\n        /* \"#utility.yul\":7847:7928   */\n      swap2\n      pop\n        /* \"#utility.yul\":7703:7939   */\n      pop\n        /* \"#utility.yul\":8022:8026   */\n      0x60\n        /* \"#utility.yul\":8015:8020   */\n      dup4\n        /* \"#utility.yul\":8011:8027   */\n      add\n        /* \"#utility.yul\":8005:8028   */\n      mload\n        /* \"#utility.yul\":8075:8078   */\n      dup5\n        /* \"#utility.yul\":8069:8073   */\n      dup3\n        /* \"#utility.yul\":8065:8079   */\n      sub\n        /* \"#utility.yul\":8058:8062   */\n      0x60\n        /* \"#utility.yul\":8053:8056   */\n      dup7\n        /* \"#utility.yul\":8049:8063   */\n      add\n        /* \"#utility.yul\":8042:8080   */\n      mstore\n        /* \"#utility.yul\":8101:8174   */\n      tag_236\n        /* \"#utility.yul\":8169:8173   */\n      dup3\n        /* \"#utility.yul\":8155:8167   */\n      dup3\n        /* \"#utility.yul\":8101:8174   */\n      tag_121\n      jump\t// in\n    tag_236:\n        /* \"#utility.yul\":8093:8174   */\n      swap2\n      pop\n        /* \"#utility.yul\":7949:8185   */\n      pop\n        /* \"#utility.yul\":8269:8273   */\n      0x80\n        /* \"#utility.yul\":8262:8267   */\n      dup4\n        /* \"#utility.yul\":8258:8274   */\n      add\n        /* \"#utility.yul\":8252:8275   */\n      mload\n        /* \"#utility.yul\":8322:8325   */\n      dup5\n        /* \"#utility.yul\":8316:8320   */\n      dup3\n        /* \"#utility.yul\":8312:8326   */\n      sub\n        /* \"#utility.yul\":8305:8309   */\n      0x80\n        /* \"#utility.yul\":8300:8303   */\n      dup7\n        /* \"#utility.yul\":8296:8310   */\n      add\n        /* \"#utility.yul\":8289:8327   */\n      mstore\n        /* \"#utility.yul\":8348:8421   */\n      tag_237\n        /* \"#utility.yul\":8416:8420   */\n      dup3\n        /* \"#utility.yul\":8402:8414   */\n      dup3\n        /* \"#utility.yul\":8348:8421   */\n      tag_121\n      jump\t// in\n    tag_237:\n        /* \"#utility.yul\":8340:8421   */\n      swap2\n      pop\n        /* \"#utility.yul\":8195:8432   */\n      pop\n        /* \"#utility.yul\":8518:8522   */\n      0xa0\n        /* \"#utility.yul\":8511:8516   */\n      dup4\n        /* \"#utility.yul\":8507:8523   */\n      add\n        /* \"#utility.yul\":8501:8524   */\n      mload\n        /* \"#utility.yul\":8571:8574   */\n      dup5\n        /* \"#utility.yul\":8565:8569   */\n      dup3\n        /* \"#utility.yul\":8561:8575   */\n      sub\n        /* \"#utility.yul\":8554:8558   */\n      0xa0\n        /* \"#utility.yul\":8549:8552   */\n      dup7\n        /* \"#utility.yul\":8545:8559   */\n      add\n        /* \"#utility.yul\":8538:8576   */\n      mstore\n        /* \"#utility.yul\":8597:8670   */\n      tag_238\n        /* \"#utility.yul\":8665:8669   */\n      dup3\n        /* \"#utility.yul\":8651:8663   */\n      dup3\n        /* \"#utility.yul\":8597:8670   */\n      tag_121\n      jump\t// in\n    tag_238:\n        /* \"#utility.yul\":8589:8670   */\n      swap2\n      pop\n        /* \"#utility.yul\":8442:8681   */\n      pop\n        /* \"#utility.yul\":8766:8770   */\n      0xc0\n        /* \"#utility.yul\":8759:8764   */\n      dup4\n        /* \"#utility.yul\":8755:8771   */\n      add\n        /* \"#utility.yul\":8749:8772   */\n      mload\n        /* \"#utility.yul\":8785:8842   */\n      tag_239\n        /* \"#utility.yul\":8836:8840   */\n      0xc0\n        /* \"#utility.yul\":8831:8834   */\n      dup7\n        /* \"#utility.yul\":8827:8841   */\n      add\n        /* \"#utility.yul\":8813:8825   */\n      dup3\n        /* \"#utility.yul\":8785:8842   */\n      tag_140\n      jump\t// in\n    tag_239:\n        /* \"#utility.yul\":8691:8852   */\n      pop\n        /* \"#utility.yul\":8869:8873   */\n      dup1\n        /* \"#utility.yul\":8862:8873   */\n      swap2\n      pop\n        /* \"#utility.yul\":7167:8879   */\n      pop\n        /* \"#utility.yul\":7053:8879   */\n      swap3\n      swap2\n      pop\n      pop\n      jump\t// out\n        /* \"#utility.yul\":8885:9141   */\n    tag_142:\n        /* \"#utility.yul\":9004:9014   */\n      0x00\n        /* \"#utility.yul\":9039:9135   */\n      tag_241\n        /* \"#utility.yul\":9131:9134   */\n      dup4\n        /* \"#utility.yul\":9123:9129   */\n      dup4\n        /* \"#utility.yul\":9039:9135   */\n      tag_141\n      jump\t// in\n    tag_241:\n        /* \"#utility.yul\":9025:9135   */\n      swap1\n      pop\n        /* \"#utility.yul\":8885:9141   */\n      swap3\n      swap2\n      pop\n      pop\n      jump\t// out\n        /* \"#utility.yul\":9147:9285   */\n    tag_143:\n        /* \"#utility.yul\":9242:9246   */\n      0x00\n        /* \"#utility.yul\":9274:9278   */\n      0x20\n        /* \"#utility.yul\":9269:9272   */\n      dup3\n        /* \"#utility.yul\":9265:9279   */\n      add\n        /* \"#utility.yul\":9257:9279   */\n      swap1\n      pop\n        /* \"#utility.yul\":9147:9285   */\n      swap2\n      swap1\n      pop\n      jump\t// out\n        /* \"#utility.yul\":9375:10486   */\n    tag_144:\n        /* \"#utility.yul\":9544:9547   */\n      0x00\n        /* \"#utility.yul\":9573:9652   */\n      tag_244\n        /* \"#utility.yul\":9646:9651   */\n      dup3\n        /* \"#utility.yul\":9573:9652   */\n      tag_136\n      jump\t// in\n    tag_244:\n        /* \"#utility.yul\":9668:9779   */\n      tag_245\n        /* \"#utility.yul\":9772:9778   */\n      dup2\n        /* \"#utility.yul\":9767:9770   */\n      dup6\n        /* \"#utility.yul\":9668:9779   */\n      tag_137\n      jump\t// in\n    tag_245:\n        /* \"#utility.yul\":9661:9779   */\n      swap4\n      pop\n        /* \"#utility.yul\":9805:9808   */\n      dup4\n        /* \"#utility.yul\":9850:9854   */\n      0x20\n        /* \"#utility.yul\":9842:9848   */\n      dup3\n        /* \"#utility.yul\":9838:9855   */\n      mul\n        /* \"#utility.yul\":9833:9836   */\n      dup6\n        /* \"#utility.yul\":9829:9856   */\n      add\n        /* \"#utility.yul\":9880:9961   */\n      tag_246\n        /* \"#utility.yul\":9955:9960   */\n      dup6\n        /* \"#utility.yul\":9880:9961   */\n      tag_138\n      jump\t// in\n    tag_246:\n        /* \"#utility.yul\":9984:9991   */\n      dup1\n        /* \"#utility.yul\":10015:10016   */\n      0x00\n        /* \"#utility.yul\":10000:10441   */\n    tag_247:\n        /* \"#utility.yul\":10025:10031   */\n      dup6\n        /* \"#utility.yul\":10022:10023   */\n      dup2\n        /* \"#utility.yul\":10019:10032   */\n      lt\n        /* \"#utility.yul\":10000:10441   */\n      iszero\n      tag_249\n      jumpi\n        /* \"#utility.yul\":10096:10105   */\n      dup5\n        /* \"#utility.yul\":10090:10094   */\n      dup5\n        /* \"#utility.yul\":10086:10106   */\n      sub\n        /* \"#utility.yul\":10081:10084   */\n      dup10\n        /* \"#utility.yul\":10074:10107   */\n      mstore\n        /* \"#utility.yul\":10147:10153   */\n      dup2\n        /* \"#utility.yul\":10141:10154   */\n      mload\n        /* \"#utility.yul\":10175:10289   */\n      tag_250\n        /* \"#utility.yul\":10284:10288   */\n      dup6\n        /* \"#utility.yul\":10269:10282   */\n      dup3\n        /* \"#utility.yul\":10175:10289   */\n      tag_142\n      jump\t// in\n    tag_250:\n        /* \"#utility.yul\":10167:10289   */\n      swap5\n      pop\n        /* \"#utility.yul\":10312:10397   */\n      tag_251\n        /* \"#utility.yul\":10390:10396   */\n      dup4\n        /* \"#utility.yul\":10312:10397   */\n      tag_143\n      jump\t// in\n    tag_251:\n        /* \"#utility.yul\":10302:10397   */\n      swap3\n      pop\n        /* \"#utility.yul\":10426:10430   */\n      0x20\n        /* \"#utility.yul\":10421:10424   */\n      dup11\n        /* \"#utility.yul\":10417:10431   */\n      add\n        /* \"#utility.yul\":10410:10431   */\n      swap10\n      pop\n        /* \"#utility.yul\":10060:10441   */\n      pop\n        /* \"#utility.yul\":10047:10048   */\n      0x01\n        /* \"#utility.yul\":10044:10045   */\n      dup2\n        /* \"#utility.yul\":10040:10049   */\n      add\n        /* \"#utility.yul\":10035:10049   */\n      swap1\n      pop\n        /* \"#utility.yul\":10000:10441   */\n      jump(tag_247)\n    tag_249:\n        /* \"#utility.yul\":10004:10018   */\n      pop\n        /* \"#utility.yul\":10457:10461   */\n      dup3\n        /* \"#utility.yul\":10450:10461   */\n      swap8\n      pop\n        /* \"#utility.yul\":10477:10480   */\n      dup8\n        /* \"#utility.yul\":10470:10480   */\n      swap6\n      pop\n        /* \"#utility.yul\":9549:10486   */\n      pop\n      pop\n      pop\n      pop\n      pop\n        /* \"#utility.yul\":9375:10486   */\n      swap3\n      swap2\n      pop\n      pop\n      jump\t// out\n        /* \"#utility.yul\":10492:10965   */\n    tag_16:\n        /* \"#utility.yul\":10685:10689   */\n      0x00\n        /* \"#utility.yul\":10723:10725   */\n      0x20\n        /* \"#utility.yul\":10712:10721   */\n      dup3\n        /* \"#utility.yul\":10708:10726   */\n      add\n        /* \"#utility.yul\":10700:10726   */\n      swap1\n      pop\n        /* \"#utility.yul\":10772:10781   */\n      dup2\n        /* \"#utility.yul\":10766:10770   */\n      dup2\n        /* \"#utility.yul\":10762:10782   */\n      sub\n        /* \"#utility.yul\":10758:10759   */\n      0x00\n        /* \"#utility.yul\":10747:10756   */\n      dup4\n        /* \"#utility.yul\":10743:10760   */\n      add\n        /* \"#utility.yul\":10736:10783   */\n      mstore\n        /* \"#utility.yul\":10800:10958   */\n      tag_253\n        /* \"#utility.yul\":10953:10957   */\n      dup2\n        /* \"#utility.yul\":10944:10950   */\n      dup5\n        /* \"#utility.yul\":10800:10958   */\n      tag_144\n      jump\t// in\n    tag_253:\n        /* \"#utility.yul\":10792:10958   */\n      swap1\n      pop\n        /* \"#utility.yul\":10492:10965   */\n      swap3\n      swap2\n      pop\n      pop\n      jump\t// out\n        /* \"#utility.yul\":10971:11087   */\n    tag_145:\n        /* \"#utility.yul\":11041:11062   */\n      tag_255\n        /* \"#utility.yul\":11056:11061   */\n      dup2\n        /* \"#utility.yul\":11041:11062   */\n      tag_139\n      jump\t// in\n    tag_255:\n        /* \"#utility.yul\":11034:11039   */\n      dup2\n        /* \"#utility.yul\":11031:11063   */\n      eq\n        /* \"#utility.yul\":11021:11081   */\n      tag_256\n      jumpi\n        /* \"#utility.yul\":11077:11078   */\n      0x00\n        /* \"#utility.yul\":11074:11075   */\n      dup1\n        /* \"#utility.yul\":11067:11079   */\n      revert\n        /* \"#utility.yul\":11021:11081   */\n    tag_256:\n        /* \"#utility.yul\":10971:11087   */\n      pop\n      jump\t// out\n        /* \"#utility.yul\":11093:11226   */\n    tag_146:\n        /* \"#utility.yul\":11136:11141   */\n      0x00\n        /* \"#utility.yul\":11174:11180   */\n      dup2\n        /* \"#utility.yul\":11161:11181   */\n      calldataload\n        /* \"#utility.yul\":11152:11181   */\n      swap1\n      pop\n        /* \"#utility.yul\":11190:11220   */\n      tag_258\n        /* \"#utility.yul\":11214:11219   */\n      dup2\n        /* \"#utility.yul\":11190:11220   */\n      tag_145\n      jump\t// in\n    tag_258:\n        /* \"#utility.yul\":11093:11226   */\n      swap3\n      swap2\n      pop\n      pop\n      jump\t// out\n        /* \"#utility.yul\":11232:13835   */\n    tag_19:\n        /* \"#utility.yul\":11421:11427   */\n      0x00\n        /* \"#utility.yul\":11429:11435   */\n      dup1\n        /* \"#utility.yul\":11437:11443   */\n      0x00\n        /* \"#utility.yul\":11445:11451   */\n      dup1\n        /* \"#utility.yul\":11453:11459   */\n      0x00\n        /* \"#utility.yul\":11461:11467   */\n      dup1\n        /* \"#utility.yul\":11469:11475   */\n      0x00\n        /* \"#utility.yul\":11477:11483   */\n      dup1\n        /* \"#utility.yul\":11526:11529   */\n      0x0100\n        /* \"#utility.yul\":11514:11523   */\n      dup10\n        /* \"#utility.yul\":11505:11512   */\n      dup12\n        /* \"#utility.yul\":11501:11524   */\n      sub\n        /* \"#utility.yul\":11497:11530   */\n      slt\n        /* \"#utility.yul\":11494:11614   */\n      iszero\n      tag_260\n      jumpi\n        /* \"#utility.yul\":11533:11612   */\n      tag_261\n      tag_126\n      jump\t// in\n    tag_261:\n        /* \"#utility.yul\":11494:11614   */\n    tag_260:\n        /* \"#utility.yul\":11681:11682   */\n      0x00\n        /* \"#utility.yul\":11670:11679   */\n      dup10\n        /* \"#utility.yul\":11666:11683   */\n      add\n        /* \"#utility.yul\":11653:11684   */\n      calldataload\n        /* \"#utility.yul\":11711:11729   */\n      0xffffffffffffffff\n        /* \"#utility.yul\":11703:11709   */\n      dup2\n        /* \"#utility.yul\":11700:11730   */\n      gt\n        /* \"#utility.yul\":11697:11814   */\n      iszero\n      tag_262\n      jumpi\n        /* \"#utility.yul\":11733:11812   */\n      tag_263\n      tag_127\n      jump\t// in\n    tag_263:\n        /* \"#utility.yul\":11697:11814   */\n    tag_262:\n        /* \"#utility.yul\":11838:11901   */\n      tag_264\n        /* \"#utility.yul\":11893:11900   */\n      dup12\n        /* \"#utility.yul\":11884:11890   */\n      dup3\n        /* \"#utility.yul\":11873:11882   */\n      dup13\n        /* \"#utility.yul\":11869:11891   */\n      add\n        /* \"#utility.yul\":11838:11901   */\n      tag_135\n      jump\t// in\n    tag_264:\n        /* \"#utility.yul\":11828:11901   */\n      swap9\n      pop\n        /* \"#utility.yul\":11624:11911   */\n      pop\n        /* \"#utility.yul\":11978:11980   */\n      0x20\n        /* \"#utility.yul\":11967:11976   */\n      dup10\n        /* \"#utility.yul\":11963:11981   */\n      add\n        /* \"#utility.yul\":11950:11982   */\n      calldataload\n        /* \"#utility.yul\":12009:12027   */\n      0xffffffffffffffff\n        /* \"#utility.yul\":12001:12007   */\n      dup2\n        /* \"#utility.yul\":11998:12028   */\n      gt\n        /* \"#utility.yul\":11995:12112   */\n      iszero\n      tag_265\n      jumpi\n        /* \"#utility.yul\":12031:12110   */\n      tag_266\n      tag_127\n      jump\t// in\n    tag_266:\n        /* \"#utility.yul\":11995:12112   */\n    tag_265:\n        /* \"#utility.yul\":12136:12199   */\n      tag_267\n        /* \"#utility.yul\":12191:12198   */\n      dup12\n        /* \"#utility.yul\":12182:12188   */\n      dup3\n        /* \"#utility.yul\":12171:12180   */\n      dup13\n        /* \"#utility.yul\":12167:12189   */\n      add\n        /* \"#utility.yul\":12136:12199   */\n      tag_135\n      jump\t// in\n    tag_267:\n        /* \"#utility.yul\":12126:12199   */\n      swap8\n      pop\n        /* \"#utility.yul\":11921:12209   */\n      pop\n        /* \"#utility.yul\":12276:12278   */\n      0x40\n        /* \"#utility.yul\":12265:12274   */\n      dup10\n        /* \"#utility.yul\":12261:12279   */\n      add\n        /* \"#utility.yul\":12248:12280   */\n      calldataload\n        /* \"#utility.yul\":12307:12325   */\n      0xffffffffffffffff\n        /* \"#utility.yul\":12299:12305   */\n      dup2\n        /* \"#utility.yul\":12296:12326   */\n      gt\n        /* \"#utility.yul\":12293:12410   */\n      iszero\n      tag_268\n      jumpi\n        /* \"#utility.yul\":12329:12408   */\n      tag_269\n      tag_127\n      jump\t// in\n    tag_269:\n        /* \"#utility.yul\":12293:12410   */\n    tag_268:\n        /* \"#utility.yul\":12434:12497   */\n      tag_270\n        /* \"#utility.yul\":12489:12496   */\n      dup12\n        /* \"#utility.yul\":12480:12486   */\n      dup3\n        /* \"#utility.yul\":12469:12478   */\n      dup13\n        /* \"#utility.yul\":12465:12487   */\n      add\n        /* \"#utility.yul\":12434:12497   */\n      tag_135\n      jump\t// in\n    tag_270:\n        /* \"#utility.yul\":12424:12497   */\n      swap7\n      pop\n        /* \"#utility.yul\":12219:12507   */\n      pop\n        /* \"#utility.yul\":12574:12576   */\n      0x60\n        /* \"#utility.yul\":12563:12572   */\n      dup10\n        /* \"#utility.yul\":12559:12577   */\n      add\n        /* \"#utility.yul\":12546:12578   */\n      calldataload\n        /* \"#utility.yul\":12605:12623   */\n      0xffffffffffffffff\n        /* \"#utility.yul\":12597:12603   */\n      dup2\n        /* \"#utility.yul\":12594:12624   */\n      gt\n        /* \"#utility.yul\":12591:12708   */\n      iszero\n      tag_271\n      jumpi\n        /* \"#utility.yul\":12627:12706   */\n      tag_272\n      tag_127\n      jump\t// in\n    tag_272:\n        /* \"#utility.yul\":12591:12708   */\n    tag_271:\n        /* \"#utility.yul\":12732:12795   */\n      tag_273\n        /* \"#utility.yul\":12787:12794   */\n      dup12\n        /* \"#utility.yul\":12778:12784   */\n      dup3\n        /* \"#utility.yul\":12767:12776   */\n      dup13\n        /* \"#utility.yul\":12763:12785   */\n      add\n        /* \"#utility.yul\":12732:12795   */\n      tag_135\n      jump\t// in\n    tag_273:\n        /* \"#utility.yul\":12722:12795   */\n      swap6\n      pop\n        /* \"#utility.yul\":12517:12805   */\n      pop\n        /* \"#utility.yul\":12872:12875   */\n      0x80\n        /* \"#utility.yul\":12861:12870   */\n      dup10\n        /* \"#utility.yul\":12857:12876   */\n      add\n        /* \"#utility.yul\":12844:12877   */\n      calldataload\n        /* \"#utility.yul\":12904:12922   */\n      0xffffffffffffffff\n        /* \"#utility.yul\":12896:12902   */\n      dup2\n        /* \"#utility.yul\":12893:12923   */\n      gt\n        /* \"#utility.yul\":12890:13007   */\n      iszero\n      tag_274\n      jumpi\n        /* \"#utility.yul\":12926:13005   */\n      tag_275\n      tag_127\n      jump\t// in\n    tag_275:\n        /* \"#utility.yul\":12890:13007   */\n    tag_274:\n        /* \"#utility.yul\":13031:13094   */\n      tag_276\n        /* \"#utility.yul\":13086:13093   */\n      dup12\n        /* \"#utility.yul\":13077:13083   */\n      dup3\n        /* \"#utility.yul\":13066:13075   */\n      dup13\n        /* \"#utility.yul\":13062:13084   */\n      add\n        /* \"#utility.yul\":13031:13094   */\n      tag_135\n      jump\t// in\n    tag_276:\n        /* \"#utility.yul\":13021:13094   */\n      swap5\n      pop\n        /* \"#utility.yul\":12815:13104   */\n      pop\n        /* \"#utility.yul\":13171:13174   */\n      0xa0\n        /* \"#utility.yul\":13160:13169   */\n      dup10\n        /* \"#utility.yul\":13156:13175   */\n      add\n        /* \"#utility.yul\":13143:13176   */\n      calldataload\n        /* \"#utility.yul\":13203:13221   */\n      0xffffffffffffffff\n        /* \"#utility.yul\":13195:13201   */\n      dup2\n        /* \"#utility.yul\":13192:13222   */\n      gt\n        /* \"#utility.yul\":13189:13306   */\n      iszero\n      tag_277\n      jumpi\n        /* \"#utility.yul\":13225:13304   */\n      tag_278\n      tag_127\n      jump\t// in\n    tag_278:\n        /* \"#utility.yul\":13189:13306   */\n    tag_277:\n        /* \"#utility.yul\":13330:13393   */\n      tag_279\n        /* \"#utility.yul\":13385:13392   */\n      dup12\n        /* \"#utility.yul\":13376:13382   */\n      dup3\n        /* \"#utility.yul\":13365:13374   */\n      dup13\n        /* \"#utility.yul\":13361:13383   */\n      add\n        /* \"#utility.yul\":13330:13393   */\n      tag_135\n      jump\t// in\n    tag_279:\n        /* \"#utility.yul\":13320:13393   */\n      swap4\n      pop\n        /* \"#utility.yul\":13114:13403   */\n      pop\n        /* \"#utility.yul\":13470:13473   */\n      0xc0\n        /* \"#utility.yul\":13459:13468   */\n      dup10\n        /* \"#utility.yul\":13455:13474   */\n      add\n        /* \"#utility.yul\":13442:13475   */\n      calldataload\n        /* \"#utility.yul\":13502:13520   */\n      0xffffffffffffffff\n        /* \"#utility.yul\":13494:13500   */\n      dup2\n        /* \"#utility.yul\":13491:13521   */\n      gt\n        /* \"#utility.yul\":13488:13605   */\n      iszero\n      tag_280\n      jumpi\n        /* \"#utility.yul\":13524:13603   */\n      tag_281\n      tag_127\n      jump\t// in\n    tag_281:\n        /* \"#utility.yul\":13488:13605   */\n    tag_280:\n        /* \"#utility.yul\":13629:13692   */\n      tag_282\n        /* \"#utility.yul\":13684:13691   */\n      dup12\n        /* \"#utility.yul\":13675:13681   */\n      dup3\n        /* \"#utility.yul\":13664:13673   */\n      dup13\n        /* \"#utility.yul\":13660:13682   */\n      add\n        /* \"#utility.yul\":13629:13692   */\n      tag_135\n      jump\t// in\n    tag_282:\n        /* \"#utility.yul\":13619:13692   */\n      swap3\n      pop\n        /* \"#utility.yul\":13413:13702   */\n      pop\n        /* \"#utility.yul\":13741:13744   */\n      0xe0\n        /* \"#utility.yul\":13768:13818   */\n      tag_283\n        /* \"#utility.yul\":13810:13817   */\n      dup12\n        /* \"#utility.yul\":13801:13807   */\n      dup3\n        /* \"#utility.yul\":13790:13799   */\n      dup13\n        /* \"#utility.yul\":13786:13808   */\n      add\n        /* \"#utility.yul\":13768:13818   */\n      tag_146\n      jump\t// in\n    tag_283:\n        /* \"#utility.yul\":13758:13818   */\n      swap2\n      pop\n        /* \"#utility.yul\":13712:13828   */\n      pop\n        /* \"#utility.yul\":11232:13835   */\n      swap3\n      swap6\n      swap9\n      pop\n      swap3\n      swap6\n      swap9\n      swap1\n      swap4\n      swap7\n      pop\n      jump\t// out\n        /* \"#utility.yul\":13841:13955   */\n    tag_147:\n        /* \"#utility.yul\":13908:13914   */\n      0x00\n        /* \"#utility.yul\":13942:13947   */\n      dup2\n        /* \"#utility.yul\":13936:13948   */\n      mload\n        /* \"#utility.yul\":13926:13948   */\n      swap1\n      pop\n        /* \"#utility.yul\":13841:13955   */\n      swap2\n      swap1\n      pop\n      jump\t// out\n        /* \"#utility.yul\":13961:14145   */\n    tag_148:\n        /* \"#utility.yul\":14060:14071   */\n      0x00\n        /* \"#utility.yul\":14094:14100   */\n      dup3\n        /* \"#utility.yul\":14089:14092   */\n      dup3\n        /* \"#utility.yul\":14082:14101   */\n      mstore\n        /* \"#utility.yul\":14134:14138   */\n      0x20\n        /* \"#utility.yul\":14129:14132   */\n      dup3\n        /* \"#utility.yul\":14125:14139   */\n      add\n        /* \"#utility.yul\":14110:14139   */\n      swap1\n      pop\n        /* \"#utility.yul\":13961:14145   */\n      swap3\n      swap2\n      pop\n      pop\n      jump\t// out\n        /* \"#utility.yul\":14151:14283   */\n    tag_149:\n        /* \"#utility.yul\":14218:14222   */\n      0x00\n        /* \"#utility.yul\":14241:14244   */\n      dup2\n        /* \"#utility.yul\":14233:14244   */\n      swap1\n      pop\n        /* \"#utility.yul\":14271:14275   */\n      0x20\n        /* \"#utility.yul\":14266:14269   */\n      dup3\n        /* \"#utility.yul\":14262:14276   */\n      add\n        /* \"#utility.yul\":14254:14276   */\n      swap1\n      pop\n        /* \"#utility.yul\":14151:14283   */\n      swap2\n      swap1\n      pop\n      jump\t// out\n        /* \"#utility.yul\":14289:14366   */\n    tag_150:\n        /* \"#utility.yul\":14326:14333   */\n      0x00\n        /* \"#utility.yul\":14355:14360   */\n      dup2\n        /* \"#utility.yul\":14344:14360   */\n      swap1\n      pop\n        /* \"#utility.yul\":14289:14366   */\n      swap2\n      swap1\n      pop\n      jump\t// out\n        /* \"#utility.yul\":14372:14480   */\n    tag_151:\n        /* \"#utility.yul\":14449:14473   */\n      tag_289\n        /* \"#utility.yul\":14467:14472   */\n      dup2\n        /* \"#utility.yul\":14449:14473   */\n      tag_150\n      jump\t// in\n    tag_289:\n        /* \"#utility.yul\":14444:14447   */\n      dup3\n        /* \"#utility.yul\":14437:14474   */\n      mstore\n        /* \"#utility.yul\":14372:14480   */\n      pop\n      pop\n      jump\t// out\n        /* \"#utility.yul\":14486:14665   */\n    tag_152:\n        /* \"#utility.yul\":14555:14565   */\n      0x00\n        /* \"#utility.yul\":14576:14622   */\n      tag_291\n        /* \"#utility.yul\":14618:14621   */\n      dup4\n        /* \"#utility.yul\":14610:14616   */\n      dup4\n        /* \"#utility.yul\":14576:14622   */\n      tag_151\n      jump\t// in\n    tag_291:\n        /* \"#utility.yul\":14654:14658   */\n      0x20\n        /* \"#utility.yul\":14649:14652   */\n      dup4\n        /* \"#utility.yul\":14645:14659   */\n      add\n        /* \"#utility.yul\":14631:14659   */\n      swap1\n      pop\n        /* \"#utility.yul\":14486:14665   */\n      swap3\n      swap2\n      pop\n      pop\n      jump\t// out\n        /* \"#utility.yul\":14671:14784   */\n    tag_153:\n        /* \"#utility.yul\":14741:14745   */\n      0x00\n        /* \"#utility.yul\":14773:14777   */\n      0x20\n        /* \"#utility.yul\":14768:14771   */\n      dup3\n        /* \"#utility.yul\":14764:14778   */\n      add\n        /* \"#utility.yul\":14756:14778   */\n      swap1\n      pop\n        /* \"#utility.yul\":14671:14784   */\n      swap2\n      swap1\n      pop\n      jump\t// out\n        /* \"#utility.yul\":14820:15552   */\n    tag_154:\n        /* \"#utility.yul\":14939:14942   */\n      0x00\n        /* \"#utility.yul\":14968:15022   */\n      tag_294\n        /* \"#utility.yul\":15016:15021   */\n      dup3\n        /* \"#utility.yul\":14968:15022   */\n      tag_147\n      jump\t// in\n    tag_294:\n        /* \"#utility.yul\":15038:15124   */\n      tag_295\n        /* \"#utility.yul\":15117:15123   */\n      dup2\n        /* \"#utility.yul\":15112:15115   */\n      dup6\n        /* \"#utility.yul\":15038:15124   */\n      tag_148\n      jump\t// in\n    tag_295:\n        /* \"#utility.yul\":15031:15124   */\n      swap4\n      pop\n        /* \"#utility.yul\":15148:15204   */\n      tag_296\n        /* \"#utility.yul\":15198:15203   */\n      dup4\n        /* \"#utility.yul\":15148:15204   */\n      tag_149\n      jump\t// in\n    tag_296:\n        /* \"#utility.yul\":15227:15234   */\n      dup1\n        /* \"#utility.yul\":15258:15259   */\n      0x00\n        /* \"#utility.yul\":15243:15527   */\n    tag_297:\n        /* \"#utility.yul\":15268:15274   */\n      dup4\n        /* \"#utility.yul\":15265:15266   */\n      dup2\n        /* \"#utility.yul\":15262:15275   */\n      lt\n        /* \"#utility.yul\":15243:15527   */\n      iszero\n      tag_299\n      jumpi\n        /* \"#utility.yul\":15344:15350   */\n      dup2\n        /* \"#utility.yul\":15338:15351   */\n      mload\n        /* \"#utility.yul\":15371:15434   */\n      tag_300\n        /* \"#utility.yul\":15430:15433   */\n      dup9\n        /* \"#utility.yul\":15415:15428   */\n      dup3\n        /* \"#utility.yul\":15371:15434   */\n      tag_152\n      jump\t// in\n    tag_300:\n        /* \"#utility.yul\":15364:15434   */\n      swap8\n      pop\n        /* \"#utility.yul\":15457:15517   */\n      tag_301\n        /* \"#utility.yul\":15510:15516   */\n      dup4\n        /* \"#utility.yul\":15457:15517   */\n      tag_153\n      jump\t// in\n    tag_301:\n        /* \"#utility.yul\":15447:15517   */\n      swap3\n      pop\n        /* \"#utility.yul\":15303:15527   */\n      pop\n        /* \"#utility.yul\":15290:15291   */\n      0x01\n        /* \"#utility.yul\":15287:15288   */\n      dup2\n        /* \"#utility.yul\":15283:15292   */\n      add\n        /* \"#utility.yul\":15278:15292   */\n      swap1\n      pop\n        /* \"#utility.yul\":15243:15527   */\n      jump(tag_297)\n    tag_299:\n        /* \"#utility.yul\":15247:15261   */\n      pop\n        /* \"#utility.yul\":15543:15546   */\n      dup6\n        /* \"#utility.yul\":15536:15546   */\n      swap4\n      pop\n        /* \"#utility.yul\":14944:15552   */\n      pop\n      pop\n      pop\n        /* \"#utility.yul\":14820:15552   */\n      swap3\n      swap2\n      pop\n      pop\n      jump\t// out\n        /* \"#utility.yul\":15558:15931   */\n    tag_24:\n        /* \"#utility.yul\":15701:15705   */\n      0x00\n        /* \"#utility.yul\":15739:15741   */\n      0x20\n        /* \"#utility.yul\":15728:15737   */\n      dup3\n        /* \"#utility.yul\":15724:15742   */\n      add\n        /* \"#utility.yul\":15716:15742   */\n      swap1\n      pop\n        /* \"#utility.yul\":15788:15797   */\n      dup2\n        /* \"#utility.yul\":15782:15786   */\n      dup2\n        /* \"#utility.yul\":15778:15798   */\n      sub\n        /* \"#utility.yul\":15774:15775   */\n      0x00\n        /* \"#utility.yul\":15763:15772   */\n      dup4\n        /* \"#utility.yul\":15759:15776   */\n      add\n        /* \"#utility.yul\":15752:15799   */\n      mstore\n        /* \"#utility.yul\":15816:15924   */\n      tag_303\n        /* \"#utility.yul\":15919:15923   */\n      dup2\n        /* \"#utility.yul\":15910:15916   */\n      dup5\n        /* \"#utility.yul\":15816:15924   */\n      tag_154\n      jump\t// in\n    tag_303:\n        /* \"#utility.yul\":15808:15924   */\n      swap1\n      pop\n        /* \"#utility.yul\":15558:15931   */\n      swap3\n      swap2\n      pop\n      pop\n      jump\t// out\n        /* \"#utility.yul\":15937:16117   */\n    tag_155:\n        /* \"#utility.yul\":15985:16062   */\n      0x4e487b7100000000000000000000000000000000000000000000000000000000\n        /* \"#utility.yul\":15982:15983   */\n      0x00\n        /* \"#utility.yul\":15975:16063   */\n      mstore\n        /* \"#utility.yul\":16082:16086   */\n      0x22\n        /* \"#utility.yul\":16079:16080   */\n      0x04\n        /* \"#utility.yul\":16072:16087   */\n      mstore\n        /* \"#utility.yul\":16106:16110   */\n      0x24\n        /* \"#utility.yul\":16103:16104   */\n      0x00\n        /* \"#utility.yul\":16096:16111   */\n      revert\n        /* \"#utility.yul\":16123:16443   */\n    tag_30:\n        /* \"#utility.yul\":16167:16173   */\n      0x00\n        /* \"#utility.yul\":16204:16205   */\n      0x02\n        /* \"#utility.yul\":16198:16202   */\n      dup3\n        /* \"#utility.yul\":16194:16206   */\n      div\n        /* \"#utility.yul\":16184:16206   */\n      swap1\n      pop\n        /* \"#utility.yul\":16251:16252   */\n      0x01\n        /* \"#utility.yul\":16245:16249   */\n      dup3\n        /* \"#utility.yul\":16241:16253   */\n      and\n        /* \"#utility.yul\":16272:16290   */\n      dup1\n        /* \"#utility.yul\":16262:16343   */\n      tag_306\n      jumpi\n        /* \"#utility.yul\":16328:16332   */\n      0x7f\n        /* \"#utility.yul\":16320:16326   */\n      dup3\n        /* \"#utility.yul\":16316:16333   */\n      and\n        /* \"#utility.yul\":16306:16333   */\n      swap2\n      pop\n        /* \"#utility.yul\":16262:16343   */\n    tag_306:\n        /* \"#utility.yul\":16390:16392   */\n      0x20\n        /* \"#utility.yul\":16382:16388   */\n      dup3\n        /* \"#utility.yul\":16379:16393   */\n      lt\n        /* \"#utility.yul\":16359:16377   */\n      dup2\n        /* \"#utility.yul\":16356:16394   */\n      eq\n        /* \"#utility.yul\":16353:16437   */\n      iszero\n      tag_307\n      jumpi\n        /* \"#utility.yul\":16409:16427   */\n      tag_308\n      tag_155\n      jump\t// in\n    tag_308:\n        /* \"#utility.yul\":16353:16437   */\n    tag_307:\n        /* \"#utility.yul\":16174:16443   */\n      pop\n        /* \"#utility.yul\":16123:16443   */\n      swap2\n      swap1\n      pop\n      jump\t// out\n        /* \"#utility.yul\":16449:16597   */\n    tag_156:\n        /* \"#utility.yul\":16551:16562   */\n      0x00\n        /* \"#utility.yul\":16588:16591   */\n      dup2\n        /* \"#utility.yul\":16573:16591   */\n      swap1\n      pop\n        /* \"#utility.yul\":16449:16597   */\n      swap3\n      swap2\n      pop\n      pop\n      jump\t// out\n        /* \"#utility.yul\":16603:16980   */\n    tag_157:\n        /* \"#utility.yul\":16709:16712   */\n      0x00\n        /* \"#utility.yul\":16737:16776   */\n      tag_311\n        /* \"#utility.yul\":16770:16775   */\n      dup3\n        /* \"#utility.yul\":16737:16776   */\n      tag_117\n      jump\t// in\n    tag_311:\n        /* \"#utility.yul\":16792:16881   */\n      tag_312\n        /* \"#utility.yul\":16874:16880   */\n      dup2\n        /* \"#utility.yul\":16869:16872   */\n      dup6\n        /* \"#utility.yul\":16792:16881   */\n      tag_156\n      jump\t// in\n    tag_312:\n        /* \"#utility.yul\":16785:16881   */\n      swap4\n      pop\n        /* \"#utility.yul\":16890:16942   */\n      tag_313\n        /* \"#utility.yul\":16935:16941   */\n      dup2\n        /* \"#utility.yul\":16930:16933   */\n      dup6\n        /* \"#utility.yul\":16923:16927   */\n      0x20\n        /* \"#utility.yul\":16916:16921   */\n      dup7\n        /* \"#utility.yul\":16912:16928   */\n      add\n        /* \"#utility.yul\":16890:16942   */\n      tag_119\n      jump\t// in\n    tag_313:\n        /* \"#utility.yul\":16967:16973   */\n      dup1\n        /* \"#utility.yul\":16962:16965   */\n      dup5\n        /* \"#utility.yul\":16958:16974   */\n      add\n        /* \"#utility.yul\":16951:16974   */\n      swap2\n      pop\n        /* \"#utility.yul\":16713:16980   */\n      pop\n        /* \"#utility.yul\":16603:16980   */\n      swap3\n      swap2\n      pop\n      pop\n      jump\t// out\n        /* \"#utility.yul\":16986:17261   */\n    tag_37:\n        /* \"#utility.yul\":17118:17121   */\n      0x00\n        /* \"#utility.yul\":17140:17235   */\n      tag_315\n        /* \"#utility.yul\":17231:17234   */\n      dup3\n        /* \"#utility.yul\":17222:17228   */\n      dup5\n        /* \"#utility.yul\":17140:17235   */\n      tag_157\n      jump\t// in\n    tag_315:\n        /* \"#utility.yul\":17133:17235   */\n      swap2\n      pop\n        /* \"#utility.yul\":17252:17255   */\n      dup2\n        /* \"#utility.yul\":17245:17255   */\n      swap1\n      pop\n        /* \"#utility.yul\":16986:17261   */\n      swap3\n      swap2\n      pop\n      pop\n      jump\t// out\n        /* \"#utility.yul\":17267:17447   */\n    tag_158:\n        /* \"#utility.yul\":17315:17392   */\n      0x4e487b7100000000000000000000000000000000000000000000000000000000\n        /* \"#utility.yul\":17312:17313   */\n      0x00\n        /* \"#utility.yul\":17305:17393   */\n      mstore\n        /* \"#utility.yul\":17412:17416   */\n      0x11\n        /* \"#utility.yul\":17409:17410   */\n      0x04\n        /* \"#utility.yul\":17402:17417   */\n      mstore\n        /* \"#utility.yul\":17436:17440   */\n      0x24\n        /* \"#utility.yul\":17433:17434   */\n      0x00\n        /* \"#utility.yul\":17426:17441   */\n      revert\n        /* \"#utility.yul\":17453:17644   */\n    tag_85:\n        /* \"#utility.yul\":17493:17497   */\n      0x00\n        /* \"#utility.yul\":17513:17533   */\n      tag_318\n        /* \"#utility.yul\":17531:17532   */\n      dup3\n        /* \"#utility.yul\":17513:17533   */\n      tag_150\n      jump\t// in\n    tag_318:\n        /* \"#utility.yul\":17508:17533   */\n      swap2\n      pop\n        /* \"#utility.yul\":17547:17567   */\n      tag_319\n        /* \"#utility.yul\":17565:17566   */\n      dup4\n        /* \"#utility.yul\":17547:17567   */\n      tag_150\n      jump\t// in\n    tag_319:\n        /* \"#utility.yul\":17542:17567   */\n      swap3\n      pop\n        /* \"#utility.yul\":17586:17587   */\n      dup3\n        /* \"#utility.yul\":17583:17584   */\n      dup3\n        /* \"#utility.yul\":17580:17588   */\n      lt\n        /* \"#utility.yul\":17577:17611   */\n      iszero\n      tag_320\n      jumpi\n        /* \"#utility.yul\":17591:17609   */\n      tag_321\n      tag_158\n      jump\t// in\n    tag_321:\n        /* \"#utility.yul\":17577:17611   */\n    tag_320:\n        /* \"#utility.yul\":17636:17637   */\n      dup3\n        /* \"#utility.yul\":17633:17634   */\n      dup3\n        /* \"#utility.yul\":17629:17638   */\n      sub\n        /* \"#utility.yul\":17621:17638   */\n      swap1\n      pop\n        /* \"#utility.yul\":17453:17644   */\n      swap3\n      swap2\n      pop\n      pop\n      jump\t// out\n        /* \"#utility.yul\":17650:17830   */\n    tag_96:\n        /* \"#utility.yul\":17698:17775   */\n      0x4e487b7100000000000000000000000000000000000000000000000000000000\n        /* \"#utility.yul\":17695:17696   */\n      0x00\n        /* \"#utility.yul\":17688:17776   */\n      mstore\n        /* \"#utility.yul\":17795:17799   */\n      0x32\n        /* \"#utility.yul\":17792:17793   */\n      0x04\n        /* \"#utility.yul\":17785:17800   */\n      mstore\n        /* \"#utility.yul\":17819:17823   */\n      0x24\n        /* \"#utility.yul\":17816:17817   */\n      0x00\n        /* \"#utility.yul\":17809:17824   */\n      revert\n        /* \"#utility.yul\":17836:17977   */\n    tag_159:\n        /* \"#utility.yul\":17885:17889   */\n      0x00\n        /* \"#utility.yul\":17908:17911   */\n      dup2\n        /* \"#utility.yul\":17900:17911   */\n      swap1\n      pop\n        /* \"#utility.yul\":17931:17934   */\n      dup2\n        /* \"#utility.yul\":17928:17929   */\n      0x00\n        /* \"#utility.yul\":17921:17935   */\n      mstore\n        /* \"#utility.yul\":17965:17969   */\n      0x20\n        /* \"#utility.yul\":17962:17963   */\n      0x00\n        /* \"#utility.yul\":17952:17970   */\n      keccak256\n        /* \"#utility.yul\":17944:17970   */\n      swap1\n      pop\n        /* \"#utility.yul\":17836:17977   */\n      swap2\n      swap1\n      pop\n      jump\t// out\n        /* \"#utility.yul\":18007:18852   */\n    tag_160:\n        /* \"#utility.yul\":18110:18113   */\n      0x00\n        /* \"#utility.yul\":18147:18152   */\n      dup2\n        /* \"#utility.yul\":18141:18153   */\n      sload\n        /* \"#utility.yul\":18176:18212   */\n      tag_325\n        /* \"#utility.yul\":18202:18211   */\n      dup2\n        /* \"#utility.yul\":18176:18212   */\n      tag_30\n      jump\t// in\n    tag_325:\n        /* \"#utility.yul\":18228:18317   */\n      tag_326\n        /* \"#utility.yul\":18310:18316   */\n      dup2\n        /* \"#utility.yul\":18305:18308   */\n      dup7\n        /* \"#utility.yul\":18228:18317   */\n      tag_156\n      jump\t// in\n    tag_326:\n        /* \"#utility.yul\":18221:18317   */\n      swap5\n      pop\n        /* \"#utility.yul\":18348:18349   */\n      0x01\n        /* \"#utility.yul\":18337:18346   */\n      dup3\n        /* \"#utility.yul\":18333:18350   */\n      and\n        /* \"#utility.yul\":18364:18365   */\n      0x00\n        /* \"#utility.yul\":18359:18496   */\n      dup2\n      eq\n      tag_328\n      jumpi\n        /* \"#utility.yul\":18510:18511   */\n      0x01\n        /* \"#utility.yul\":18505:18846   */\n      dup2\n      eq\n      tag_329\n      jumpi\n        /* \"#utility.yul\":18326:18846   */\n      jump(tag_327)\n        /* \"#utility.yul\":18359:18496   */\n    tag_328:\n        /* \"#utility.yul\":18443:18447   */\n      0xff\n        /* \"#utility.yul\":18439:18448   */\n      not\n        /* \"#utility.yul\":18428:18437   */\n      dup4\n        /* \"#utility.yul\":18424:18449   */\n      and\n        /* \"#utility.yul\":18419:18422   */\n      dup7\n        /* \"#utility.yul\":18412:18450   */\n      mstore\n        /* \"#utility.yul\":18479:18485   */\n      dup2\n        /* \"#utility.yul\":18474:18477   */\n      dup7\n        /* \"#utility.yul\":18470:18486   */\n      add\n        /* \"#utility.yul\":18463:18486   */\n      swap4\n      pop\n        /* \"#utility.yul\":18359:18496   */\n      jump(tag_327)\n        /* \"#utility.yul\":18505:18846   */\n    tag_329:\n        /* \"#utility.yul\":18572:18610   */\n      tag_330\n        /* \"#utility.yul\":18604:18609   */\n      dup6\n        /* \"#utility.yul\":18572:18610   */\n      tag_159\n      jump\t// in\n    tag_330:\n        /* \"#utility.yul\":18632:18633   */\n      0x00\n        /* \"#utility.yul\":18646:18800   */\n    tag_331:\n        /* \"#utility.yul\":18660:18666   */\n      dup4\n        /* \"#utility.yul\":18657:18658   */\n      dup2\n        /* \"#utility.yul\":18654:18667   */\n      lt\n        /* \"#utility.yul\":18646:18800   */\n      iszero\n      tag_333\n      jumpi\n        /* \"#utility.yul\":18734:18741   */\n      dup2\n        /* \"#utility.yul\":18728:18742   */\n      sload\n        /* \"#utility.yul\":18724:18725   */\n      dup2\n        /* \"#utility.yul\":18719:18722   */\n      dup10\n        /* \"#utility.yul\":18715:18726   */\n      add\n        /* \"#utility.yul\":18708:18743   */\n      mstore\n        /* \"#utility.yul\":18784:18785   */\n      0x01\n        /* \"#utility.yul\":18775:18782   */\n      dup3\n        /* \"#utility.yul\":18771:18786   */\n      add\n        /* \"#utility.yul\":18760:18786   */\n      swap2\n      pop\n        /* \"#utility.yul\":18682:18686   */\n      0x20\n        /* \"#utility.yul\":18679:18680   */\n      dup2\n        /* \"#utility.yul\":18675:18687   */\n      add\n        /* \"#utility.yul\":18670:18687   */\n      swap1\n      pop\n        /* \"#utility.yul\":18646:18800   */\n      jump(tag_331)\n    tag_333:\n        /* \"#utility.yul\":18829:18835   */\n      dup4\n        /* \"#utility.yul\":18824:18827   */\n      dup9\n        /* \"#utility.yul\":18820:18836   */\n      add\n        /* \"#utility.yul\":18813:18836   */\n      swap6\n      pop\n        /* \"#utility.yul\":18512:18846   */\n      pop\n      pop\n        /* \"#utility.yul\":18326:18846   */\n    tag_327:\n      pop\n        /* \"#utility.yul\":18114:18852   */\n      pop\n      pop\n        /* \"#utility.yul\":18007:18852   */\n      swap3\n      swap2\n      pop\n      pop\n      jump\t// out\n        /* \"#utility.yul\":18858:19127   */\n    tag_99:\n        /* \"#utility.yul\":18987:18990   */\n      0x00\n        /* \"#utility.yul\":19009:19101   */\n      tag_335\n        /* \"#utility.yul\":19097:19100   */\n      dup3\n        /* \"#utility.yul\":19088:19094   */\n      dup5\n        /* \"#utility.yul\":19009:19101   */\n      tag_160\n      jump\t// in\n    tag_335:\n        /* \"#utility.yul\":19002:19101   */\n      swap2\n      pop\n        /* \"#utility.yul\":19118:19121   */\n      dup2\n        /* \"#utility.yul\":19111:19121   */\n      swap1\n      pop\n        /* \"#utility.yul\":18858:19127   */\n      swap3\n      swap2\n      pop\n      pop\n      jump\t// out\n        /* \"#utility.yul\":19133:19366   */\n    tag_103:\n        /* \"#utility.yul\":19172:19175   */\n      0x00\n        /* \"#utility.yul\":19195:19219   */\n      tag_337\n        /* \"#utility.yul\":19213:19218   */\n      dup3\n        /* \"#utility.yul\":19195:19219   */\n      tag_150\n      jump\t// in\n    tag_337:\n        /* \"#utility.yul\":19186:19219   */\n      swap2\n      pop\n        /* \"#utility.yul\":19241:19307   */\n      0xffffffffffffffffffffffffffffffffffffffffffffffffffffffffffffffff\n        /* \"#utility.yul\":19234:19239   */\n      dup3\n        /* \"#utility.yul\":19231:19308   */\n      eq\n        /* \"#utility.yul\":19228:19331   */\n      iszero\n      tag_338\n      jumpi\n        /* \"#utility.yul\":19311:19329   */\n      tag_339\n      tag_158\n      jump\t// in\n    tag_339:\n        /* \"#utility.yul\":19228:19331   */\n    tag_338:\n        /* \"#utility.yul\":19358:19359   */\n      0x01\n        /* \"#utility.yul\":19351:19356   */\n      dup3\n        /* \"#utility.yul\":19347:19360   */\n      add\n        /* \"#utility.yul\":19340:19360   */\n      swap1\n      pop\n        /* \"#utility.yul\":19133:19366   */\n      swap2\n      swap1\n      pop\n      jump\t// out\n\n    auxdata: 0xa2646970667358221220fe81511ee962436da8a1e481e93477c20cb5675b807943ab8478b1a380f384a464736f6c634300080a0033\n}\n",
    "bytecode": {
      "linkReferences": {},
      "object": "6080604052600a67ffffffffffffffff8111156200002257620000216200054c565b5b6040519080825280602002602001820160405280156200005757816020015b6060815260200190600190039081620000415790505b50600090805190602001906200006f92919062000360565b503480156200007d57600080fd5b506040518061014001604052806040518060400160405280600a81526020017f54656c65666f6e6963610000000000000000000000000000000000000000000081525081526020016040518060400160405280600281526020017f485000000000000000000000000000000000000000000000000000000000000081525081526020016040518060400160405280600881526020017f44656c6f6974746500000000000000000000000000000000000000000000000081525081526020016040518060400160405280600481526020017f4b504d470000000000000000000000000000000000000000000000000000000081525081526020016040518060400160405280600281526020017f455900000000000000000000000000000000000000000000000000000000000081525081526020016040518060400160405280600881526020017f4d6f76697374617200000000000000000000000000000000000000000000000081525081526020016040518060400160405280600281526020017f4d5300000000000000000000000000000000000000000000000000000000000081525081526020016040518060400160405280600981526020017f53616e74616e646572000000000000000000000000000000000000000000000081525081526020016040518060400160405280600481526020017f424256410000000000000000000000000000000000000000000000000000000081525081526020016040518060400160405280600781526020017f57657374636f6e00000000000000000000000000000000000000000000000000815250815250600090600a620002e8929190620003c7565b5060005b600080549050811015620003595760646001600083815481106200031557620003146200057b565b5b906000526020600020016040516200032e9190620006ba565b908152602001604051809103902060000181905550808062000350906200070c565b915050620002ec565b506200075a565b828054828255906000526020600020908101928215620003b4579160200282015b82811115620003b3578251829080519060200190620003a29291906200042e565b509160200191906001019062000381565b5b509050620003c39190620004bf565b5090565b8280548282559060005260206000209081019282156200041b579160200282015b828111156200041a578251829080519060200190620004099291906200042e565b5091602001919060010190620003e8565b5b5090506200042a9190620004bf565b5090565b8280546200043c90620005d9565b90600052602060002090601f016020900481019282620004605760008555620004ac565b82601f106200047b57805160ff1916838001178555620004ac565b82800160010185558215620004ac579182015b82811115620004ab5782518255916020019190600101906200048e565b5b509050620004bb9190620004e7565b5090565b5b80821115620004e35760008181620004d9919062000506565b50600101620004c0565b5090565b5b8082111562000502576000816000905550600101620004e8565b5090565b5080546200051490620005d9565b6000825580601f1062000528575062000549565b601f016020900490600052602060002090810190620005489190620004e7565b5b50565b7f4e487b7100000000000000000000000000000000000000000000000000000000600052604160045260246000fd5b7f4e487b7100000000000000000000000000000000000000000000000000000000600052603260045260246000fd5b7f4e487b7100000000000000000000000000000000000000000000000000000000600052602260045260246000fd5b60006002820490506001821680620005f257607f821691505b60208210811415620006095762000608620005aa565b5b50919050565b600081905092915050565b60008190508160005260206000209050919050565b600081546200063e81620005d9565b6200064a81866200060f565b945060018216600081146200066857600181146200067a57620006b1565b60ff19831686528186019350620006b1565b62000685856200061a565b60005b83811015620006a95781548189015260018201915060208101905062000688565b838801955050505b50505092915050565b6000620006c882846200062f565b915081905092915050565b7f4e487b7100000000000000000000000000000000000000000000000000000000600052601160045260246000fd5b6000819050919050565b6000620007198262000702565b91507fffffffffffffffffffffffffffffffffffffffffffffffffffffffffffffffff8214156200074f576200074e620006d3565b5b600182019050919050565b6112c4806200076a6000396000f3fe608060405234801561001057600080fd5b506004361061004c5760003560e01c80630c0b6691146100515780634b85a5e31461006f578063bd00b7791461009f578063ffe6a18e146100bb575b600080fd5b6100596100d9565b6040516100669190610a52565b60405180910390f35b61008960048036038101906100849190610bbd565b6101b2565b6040516100969190610da2565b60405180910390f35b6100b960048036038101906100b49190610df0565b6105b9565b005b6100c361077b565b6040516100d09190611032565b60405180910390f35b60606000805480602002602001604051908101604052809291908181526020016000905b828210156101a957838290600052602060002001805461011c90611083565b80601f016020809104026020016040519081016040528092919081815260200182805461014890611083565b80156101955780601f1061016a57610100808354040283529160200191610195565b820191906000526020600020905b81548152906001019060200180831161017857829003601f168201915b5050505050815260200190600101906100fd565b50505050905090565b60606001826040516101c491906110f1565b9081526020016040518091039020600101805480602002602001604051908101604052809291908181526020016000905b828210156105ae57838290600052602060002090600702016040518060e001604052908160008201805461022890611083565b80601f016020809104026020016040519081016040528092919081815260200182805461025490611083565b80156102a15780601f10610276576101008083540402835291602001916102a1565b820191906000526020600020905b81548152906001019060200180831161028457829003601f168201915b505050505081526020016001820180546102ba90611083565b80601f01602080910402602001604051908101604052809291908181526020018280546102e690611083565b80156103335780601f1061030857610100808354040283529160200191610333565b820191906000526020600020905b81548152906001019060200180831161031657829003601f168201915b5050505050815260200160028201805461034c90611083565b80601f016020809104026020016040519081016040528092919081815260200182805461037890611083565b80156103c55780601f1061039a576101008083540402835291602001916103c5565b820191906000526020600020905b8154815290600101906020018083116103a857829003601f168201915b505050505081526020016003820180546103de90611083565b80601f016020809104026020016040519081016040528092919081815260200182805461040a90611083565b80156104575780601f1061042c57610100808354040283529160200191610457565b820191906000526020600020905b81548152906001019060200180831161043a57829003601f168201915b5050505050815260200160048201805461047090611083565b80601f016020809104026020016040519081016040528092919081815260200182805461049c90611083565b80156104e95780601f106104be576101008083540402835291602001916104e9565b820191906000526020600020905b8154815290600101906020018083116104cc57829003601f168201915b5050505050815260200160058201805461050290611083565b80601f016020809104026020016040519081016040528092919081815260200182805461052e90611083565b801561057b5780601f106105505761010080835404028352916020019161057b565b820191906000526020600020905b81548152906001019060200180831161055e57829003601f168201915b505050505081526020016006820160009054906101000a900460ff161515151581525050815260200190600101906101f5565b505050509050919050565b6001886040516105c991906110f1565b90815260200160405180910390206001016040518060e0016040528089815260200188815260200187815260200186815260200185815260200184815260200183151581525090806001815401808255809150506001900390600052602060002090600702016000909190919091506000820151816000019080519060200190610654929190610854565b506020820151816001019080519060200190610671929190610854565b50604082015181600201908051906020019061068e929190610854565b5060608201518160030190805190602001906106ab929190610854565b5060808201518160040190805190602001906106c8929190610854565b5060a08201518160050190805190602001906106e5929190610854565b5060c08201518160060160006101000a81548160ff0219169083151502179055505050600060018960405161071a91906110f1565b90815260200160405180910390206000015490506000811115610770576001808a60405161074891906110f1565b908152602001604051809103902060000160008282546107689190611137565b925050819055505b505050505050505050565b60606000600a67ffffffffffffffff81111561079a57610799610a92565b5b6040519080825280602002602001820160405280156107c85781602001602082028036833780820191505090505b50905060005b60008054905081101561084c576001600082815481106107f1576107f061116b565b5b90600052602060002001604051610808919061122e565b90815260200160405180910390206000015482828151811061082d5761082c61116b565b5b602002602001018181525050808061084490611245565b9150506107ce565b508091505090565b82805461086090611083565b90600052602060002090601f01602090048101928261088257600085556108c9565b82601f1061089b57805160ff19168380011785556108c9565b828001600101855582156108c9579182015b828111156108c85782518255916020019190600101906108ad565b5b5090506108d691906108da565b5090565b5b808211156108f35760008160009055506001016108db565b5090565b600081519050919050565b600082825260208201905092915050565b6000819050602082019050919050565b600081519050919050565b600082825260208201905092915050565b60005b8381101561095d578082015181840152602081019050610942565b8381111561096c576000848401525b50505050565b6000601f19601f8301169050919050565b600061098e82610923565b610998818561092e565b93506109a881856020860161093f565b6109b181610972565b840191505092915050565b60006109c88383610983565b905092915050565b6000602082019050919050565b60006109e8826108f7565b6109f28185610902565b935083602082028501610a0485610913565b8060005b85811015610a405784840389528151610a2185826109bc565b9450610a2c836109d0565b925060208a01995050600181019050610a08565b50829750879550505050505092915050565b60006020820190508181036000830152610a6c81846109dd565b905092915050565b6000604051905090565b600080fd5b600080fd5b600080fd5b600080fd5b7f4e487b7100000000000000000000000000000000000000000000000000000000600052604160045260246000fd5b610aca82610972565b810181811067ffffffffffffffff82111715610ae957610ae8610a92565b5b80604052505050565b6000610afc610a74565b9050610b088282610ac1565b919050565b600067ffffffffffffffff821115610b2857610b27610a92565b5b610b3182610972565b9050602081019050919050565b82818337600083830152505050565b6000610b60610b5b84610b0d565b610af2565b905082815260208101848484011115610b7c57610b7b610a8d565b5b610b87848285610b3e565b509392505050565b600082601f830112610ba457610ba3610a88565b5b8135610bb4848260208601610b4d565b91505092915050565b600060208284031215610bd357610bd2610a7e565b5b600082013567ffffffffffffffff811115610bf157610bf0610a83565b5b610bfd84828501610b8f565b91505092915050565b600081519050919050565b600082825260208201905092915050565b6000819050602082019050919050565b60008115159050919050565b610c4781610c32565b82525050565b600060e0830160008301518482036000860152610c6a8282610983565b91505060208301518482036020860152610c848282610983565b91505060408301518482036040860152610c9e8282610983565b91505060608301518482036060860152610cb88282610983565b91505060808301518482036080860152610cd28282610983565b91505060a083015184820360a0860152610cec8282610983565b91505060c0830151610d0160c0860182610c3e565b508091505092915050565b6000610d188383610c4d565b905092915050565b6000602082019050919050565b6000610d3882610c06565b610d428185610c11565b935083602082028501610d5485610c22565b8060005b85811015610d905784840389528151610d718582610d0c565b9450610d7c83610d20565b925060208a01995050600181019050610d58565b50829750879550505050505092915050565b60006020820190508181036000830152610dbc8184610d2d565b905092915050565b610dcd81610c32565b8114610dd857600080fd5b50565b600081359050610dea81610dc4565b92915050565b600080600080600080600080610100898b031215610e1157610e10610a7e565b5b600089013567ffffffffffffffff811115610e2f57610e2e610a83565b5b610e3b8b828c01610b8f565b985050602089013567ffffffffffffffff811115610e5c57610e5b610a83565b5b610e688b828c01610b8f565b975050604089013567ffffffffffffffff811115610e8957610e88610a83565b5b610e958b828c01610b8f565b965050606089013567ffffffffffffffff811115610eb657610eb5610a83565b5b610ec28b828c01610b8f565b955050608089013567ffffffffffffffff811115610ee357610ee2610a83565b5b610eef8b828c01610b8f565b94505060a089013567ffffffffffffffff811115610f1057610f0f610a83565b5b610f1c8b828c01610b8f565b93505060c089013567ffffffffffffffff811115610f3d57610f3c610a83565b5b610f498b828c01610b8f565b92505060e0610f5a8b828c01610ddb565b9150509295985092959890939650565b600081519050919050565b600082825260208201905092915050565b6000819050602082019050919050565b6000819050919050565b610fa981610f96565b82525050565b6000610fbb8383610fa0565b60208301905092915050565b6000602082019050919050565b6000610fdf82610f6a565b610fe98185610f75565b9350610ff483610f86565b8060005b8381101561102557815161100c8882610faf565b975061101783610fc7565b925050600181019050610ff8565b5085935050505092915050565b6000602082019050818103600083015261104c8184610fd4565b905092915050565b7f4e487b7100000000000000000000000000000000000000000000000000000000600052602260045260246000fd5b6000600282049050600182168061109b57607f821691505b602082108114156110af576110ae611054565b5b50919050565b600081905092915050565b60006110cb82610923565b6110d581856110b5565b93506110e581856020860161093f565b80840191505092915050565b60006110fd82846110c0565b915081905092915050565b7f4e487b7100000000000000000000000000000000000000000000000000000000600052601160045260246000fd5b600061114282610f96565b915061114d83610f96565b9250828210156111605761115f611108565b5b828203905092915050565b7f4e487b7100000000000000000000000000000000000000000000000000000000600052603260045260246000fd5b60008190508160005260206000209050919050565b600081546111bc81611083565b6111c681866110b5565b945060018216600081146111e157600181146111f257611225565b60ff19831686528186019350611225565b6111fb8561119a565b60005b8381101561121d578154818901526001820191506020810190506111fe565b838801955050505b50505092915050565b600061123a82846111af565b915081905092915050565b600061125082610f96565b91507fffffffffffffffffffffffffffffffffffffffffffffffffffffffffffffffff82141561128357611282611108565b5b60018201905091905056fea2646970667358221220fe81511ee962436da8a1e481e93477c20cb5675b807943ab8478b1a380f384a464736f6c634300080a0033",
      "opcodes": "PUSH1 0x80 PUSH1 0x40 MSTORE PUSH1 0xA PUSH8 0xFFFFFFFFFFFFFFFF DUP2 GT ISZERO PUSH3 0x22 JUMPI PUSH3 0x21 PUSH3 0x54C JUMP JUMPDEST JUMPDEST PUSH1 0x40 MLOAD SWAP1 DUP1 DUP3 MSTORE DUP1 PUSH1 0x20 MUL PUSH1 0x20 ADD DUP3 ADD PUSH1 0x40 MSTORE DUP1 ISZERO PUSH3 0x57 JUMPI DUP2 PUSH1 0x20 ADD JUMPDEST PUSH1 0x60 DUP2 MSTORE PUSH1 0x20 ADD SWAP1 PUSH1 0x1 SWAP1 SUB SWAP1 DUP2 PUSH3 0x41 JUMPI SWAP1 POP JUMPDEST POP PUSH1 0x0 SWAP1 DUP1 MLOAD SWAP1 PUSH1 0x20 ADD SWAP1 PUSH3 0x6F SWAP3 SWAP2 SWAP1 PUSH3 0x360 JUMP JUMPDEST POP CALLVALUE DUP1 ISZERO PUSH3 0x7D JUMPI PUSH1 0x0 DUP1 REVERT JUMPDEST POP PUSH1 0x40 MLOAD DUP1 PUSH2 0x140 ADD PUSH1 0x40 MSTORE DUP1 PUSH1 0x40 MLOAD DUP1 PUSH1 0x40 ADD PUSH1 0x40 MSTORE DUP1 PUSH1 0xA DUP2 MSTORE PUSH1 0x20 ADD PUSH32 0x54656C65666F6E69636100000000000000000000000000000000000000000000 DUP2 MSTORE POP DUP2 MSTORE PUSH1 0x20 ADD PUSH1 0x40 MLOAD DUP1 PUSH1 0x40 ADD PUSH1 0x40 MSTORE DUP1 PUSH1 0x2 DUP2 MSTORE PUSH1 0x20 ADD PUSH32 0x4850000000000000000000000000000000000000000000000000000000000000 DUP2 MSTORE POP DUP2 MSTORE PUSH1 0x20 ADD PUSH1 0x40 MLOAD DUP1 PUSH1 0x40 ADD PUSH1 0x40 MSTORE DUP1 PUSH1 0x8 DUP2 MSTORE PUSH1 0x20 ADD PUSH32 0x44656C6F69747465000000000000000000000000000000000000000000000000 DUP2 MSTORE POP DUP2 MSTORE PUSH1 0x20 ADD PUSH1 0x40 MLOAD DUP1 PUSH1 0x40 ADD PUSH1 0x40 MSTORE DUP1 PUSH1 0x4 DUP2 MSTORE PUSH1 0x20 ADD PUSH32 0x4B504D4700000000000000000000000000000000000000000000000000000000 DUP2 MSTORE POP DUP2 MSTORE PUSH1 0x20 ADD PUSH1 0x40 MLOAD DUP1 PUSH1 0x40 ADD PUSH1 0x40 MSTORE DUP1 PUSH1 0x2 DUP2 MSTORE PUSH1 0x20 ADD PUSH32 0x4559000000000000000000000000000000000000000000000000000000000000 DUP2 MSTORE POP DUP2 MSTORE PUSH1 0x20 ADD PUSH1 0x40 MLOAD DUP1 PUSH1 0x40 ADD PUSH1 0x40 MSTORE DUP1 PUSH1 0x8 DUP2 MSTORE PUSH1 0x20 ADD PUSH32 0x4D6F766973746172000000000000000000000000000000000000000000000000 DUP2 MSTORE POP DUP2 MSTORE PUSH1 0x20 ADD PUSH1 0x40 MLOAD DUP1 PUSH1 0x40 ADD PUSH1 0x40 MSTORE DUP1 PUSH1 0x2 DUP2 MSTORE PUSH1 0x20 ADD PUSH32 0x4D53000000000000000000000000000000000000000000000000000000000000 DUP2 MSTORE POP DUP2 MSTORE PUSH1 0x20 ADD PUSH1 0x40 MLOAD DUP1 PUSH1 0x40 ADD PUSH1 0x40 MSTORE DUP1 PUSH1 0x9 DUP2 MSTORE PUSH1 0x20 ADD PUSH32 0x53616E74616E6465720000000000000000000000000000000000000000000000 DUP2 MSTORE POP DUP2 MSTORE PUSH1 0x20 ADD PUSH1 0x40 MLOAD DUP1 PUSH1 0x40 ADD PUSH1 0x40 MSTORE DUP1 PUSH1 0x4 DUP2 MSTORE PUSH1 0x20 ADD PUSH32 0x4242564100000000000000000000000000000000000000000000000000000000 DUP2 MSTORE POP DUP2 MSTORE PUSH1 0x20 ADD PUSH1 0x40 MLOAD DUP1 PUSH1 0x40 ADD PUSH1 0x40 MSTORE DUP1 PUSH1 0x7 DUP2 MSTORE PUSH1 0x20 ADD PUSH32 0x57657374636F6E00000000000000000000000000000000000000000000000000 DUP2 MSTORE POP DUP2 MSTORE POP PUSH1 0x0 SWAP1 PUSH1 0xA PUSH3 0x2E8 SWAP3 SWAP2 SWAP1 PUSH3 0x3C7 JUMP JUMPDEST POP PUSH1 0x0 JUMPDEST PUSH1 0x0 DUP1 SLOAD SWAP1 POP DUP2 LT ISZERO PUSH3 0x359 JUMPI PUSH1 0x64 PUSH1 0x1 PUSH1 0x0 DUP4 DUP2 SLOAD DUP2 LT PUSH3 0x315 JUMPI PUSH3 0x314 PUSH3 0x57B JUMP JUMPDEST JUMPDEST SWAP1 PUSH1 0x0 MSTORE PUSH1 0x20 PUSH1 0x0 KECCAK256 ADD PUSH1 0x40 MLOAD PUSH3 0x32E SWAP2 SWAP1 PUSH3 0x6BA JUMP JUMPDEST SWAP1 DUP2 MSTORE PUSH1 0x20 ADD PUSH1 0x40 MLOAD DUP1 SWAP2 SUB SWAP1 KECCAK256 PUSH1 0x0 ADD DUP2 SWAP1 SSTORE POP DUP1 DUP1 PUSH3 0x350 SWAP1 PUSH3 0x70C JUMP JUMPDEST SWAP2 POP POP PUSH3 0x2EC JUMP JUMPDEST POP PUSH3 0x75A JUMP JUMPDEST DUP3 DUP1 SLOAD DUP3 DUP3 SSTORE SWAP1 PUSH1 0x0 MSTORE PUSH1 0x20 PUSH1 0x0 KECCAK256 SWAP1 DUP2 ADD SWAP3 DUP3 ISZERO PUSH3 0x3B4 JUMPI SWAP2 PUSH1 0x20 MUL DUP3 ADD JUMPDEST DUP3 DUP2 GT ISZERO PUSH3 0x3B3 JUMPI DUP3 MLOAD DUP3 SWAP1 DUP1 MLOAD SWAP1 PUSH1 0x20 ADD SWAP1 PUSH3 0x3A2 SWAP3 SWAP2 SWAP1 PUSH3 0x42E JUMP JUMPDEST POP SWAP2 PUSH1 0x20 ADD SWAP2 SWAP1 PUSH1 0x1 ADD SWAP1 PUSH3 0x381 JUMP JUMPDEST JUMPDEST POP SWAP1 POP PUSH3 0x3C3 SWAP2 SWAP1 PUSH3 0x4BF JUMP JUMPDEST POP SWAP1 JUMP JUMPDEST DUP3 DUP1 SLOAD DUP3 DUP3 SSTORE SWAP1 PUSH1 0x0 MSTORE PUSH1 0x20 PUSH1 0x0 KECCAK256 SWAP1 DUP2 ADD SWAP3 DUP3 ISZERO PUSH3 0x41B JUMPI SWAP2 PUSH1 0x20 MUL DUP3 ADD JUMPDEST DUP3 DUP2 GT ISZERO PUSH3 0x41A JUMPI DUP3 MLOAD DUP3 SWAP1 DUP1 MLOAD SWAP1 PUSH1 0x20 ADD SWAP1 PUSH3 0x409 SWAP3 SWAP2 SWAP1 PUSH3 0x42E JUMP JUMPDEST POP SWAP2 PUSH1 0x20 ADD SWAP2 SWAP1 PUSH1 0x1 ADD SWAP1 PUSH3 0x3E8 JUMP JUMPDEST JUMPDEST POP SWAP1 POP PUSH3 0x42A SWAP2 SWAP1 PUSH3 0x4BF JUMP JUMPDEST POP SWAP1 JUMP JUMPDEST DUP3 DUP1 SLOAD PUSH3 0x43C SWAP1 PUSH3 0x5D9 JUMP JUMPDEST SWAP1 PUSH1 0x0 MSTORE PUSH1 0x20 PUSH1 0x0 KECCAK256 SWAP1 PUSH1 0x1F ADD PUSH1 0x20 SWAP1 DIV DUP2 ADD SWAP3 DUP3 PUSH3 0x460 JUMPI PUSH1 0x0 DUP6 SSTORE PUSH3 0x4AC JUMP JUMPDEST DUP3 PUSH1 0x1F LT PUSH3 0x47B JUMPI DUP1 MLOAD PUSH1 0xFF NOT AND DUP4 DUP1 ADD OR DUP6 SSTORE PUSH3 0x4AC JUMP JUMPDEST DUP3 DUP1 ADD PUSH1 0x1 ADD DUP6 SSTORE DUP3 ISZERO PUSH3 0x4AC JUMPI SWAP2 DUP3 ADD JUMPDEST DUP3 DUP2 GT ISZERO PUSH3 0x4AB JUMPI DUP3 MLOAD DUP3 SSTORE SWAP2 PUSH1 0x20 ADD SWAP2 SWAP1 PUSH1 0x1 ADD SWAP1 PUSH3 0x48E JUMP JUMPDEST JUMPDEST POP SWAP1 POP PUSH3 0x4BB SWAP2 SWAP1 PUSH3 0x4E7 JUMP JUMPDEST POP SWAP1 JUMP JUMPDEST JUMPDEST DUP1 DUP3 GT ISZERO PUSH3 0x4E3 JUMPI PUSH1 0x0 DUP2 DUP2 PUSH3 0x4D9 SWAP2 SWAP1 PUSH3 0x506 JUMP JUMPDEST POP PUSH1 0x1 ADD PUSH3 0x4C0 JUMP JUMPDEST POP SWAP1 JUMP JUMPDEST JUMPDEST DUP1 DUP3 GT ISZERO PUSH3 0x502 JUMPI PUSH1 0x0 DUP2 PUSH1 0x0 SWAP1 SSTORE POP PUSH1 0x1 ADD PUSH3 0x4E8 JUMP JUMPDEST POP SWAP1 JUMP JUMPDEST POP DUP1 SLOAD PUSH3 0x514 SWAP1 PUSH3 0x5D9 JUMP JUMPDEST PUSH1 0x0 DUP3 SSTORE DUP1 PUSH1 0x1F LT PUSH3 0x528 JUMPI POP PUSH3 0x549 JUMP JUMPDEST PUSH1 0x1F ADD PUSH1 0x20 SWAP1 DIV SWAP1 PUSH1 0x0 MSTORE PUSH1 0x20 PUSH1 0x0 KECCAK256 SWAP1 DUP2 ADD SWAP1 PUSH3 0x548 SWAP2 SWAP1 PUSH3 0x4E7 JUMP JUMPDEST JUMPDEST POP JUMP JUMPDEST PUSH32 0x4E487B7100000000000000000000000000000000000000000000000000000000 PUSH1 0x0 MSTORE PUSH1 0x41 PUSH1 0x4 MSTORE PUSH1 0x24 PUSH1 0x0 REVERT JUMPDEST PUSH32 0x4E487B7100000000000000000000000000000000000000000000000000000000 PUSH1 0x0 MSTORE PUSH1 0x32 PUSH1 0x4 MSTORE PUSH1 0x24 PUSH1 0x0 REVERT JUMPDEST PUSH32 0x4E487B7100000000000000000000000000000000000000000000000000000000 PUSH1 0x0 MSTORE PUSH1 0x22 PUSH1 0x4 MSTORE PUSH1 0x24 PUSH1 0x0 REVERT JUMPDEST PUSH1 0x0 PUSH1 0x2 DUP3 DIV SWAP1 POP PUSH1 0x1 DUP3 AND DUP1 PUSH3 0x5F2 JUMPI PUSH1 0x7F DUP3 AND SWAP2 POP JUMPDEST PUSH1 0x20 DUP3 LT DUP2 EQ ISZERO PUSH3 0x609 JUMPI PUSH3 0x608 PUSH3 0x5AA JUMP JUMPDEST JUMPDEST POP SWAP2 SWAP1 POP JUMP JUMPDEST PUSH1 0x0 DUP2 SWAP1 POP SWAP3 SWAP2 POP POP JUMP JUMPDEST PUSH1 0x0 DUP2 SWAP1 POP DUP2 PUSH1 0x0 MSTORE PUSH1 0x20 PUSH1 0x0 KECCAK256 SWAP1 POP SWAP2 SWAP1 POP JUMP JUMPDEST PUSH1 0x0 DUP2 SLOAD PUSH3 0x63E DUP2 PUSH3 0x5D9 JUMP JUMPDEST PUSH3 0x64A DUP2 DUP7 PUSH3 0x60F JUMP JUMPDEST SWAP5 POP PUSH1 0x1 DUP3 AND PUSH1 0x0 DUP2 EQ PUSH3 0x668 JUMPI PUSH1 0x1 DUP2 EQ PUSH3 0x67A JUMPI PUSH3 0x6B1 JUMP JUMPDEST PUSH1 0xFF NOT DUP4 AND DUP7 MSTORE DUP2 DUP7 ADD SWAP4 POP PUSH3 0x6B1 JUMP JUMPDEST PUSH3 0x685 DUP6 PUSH3 0x61A JUMP JUMPDEST PUSH1 0x0 JUMPDEST DUP4 DUP2 LT ISZERO PUSH3 0x6A9 JUMPI DUP2 SLOAD DUP2 DUP10 ADD MSTORE PUSH1 0x1 DUP3 ADD SWAP2 POP PUSH1 0x20 DUP2 ADD SWAP1 POP PUSH3 0x688 JUMP JUMPDEST DUP4 DUP9 ADD SWAP6 POP POP POP JUMPDEST POP POP POP SWAP3 SWAP2 POP POP JUMP JUMPDEST PUSH1 0x0 PUSH3 0x6C8 DUP3 DUP5 PUSH3 0x62F JUMP JUMPDEST SWAP2 POP DUP2 SWAP1 POP SWAP3 SWAP2 POP POP JUMP JUMPDEST PUSH32 0x4E487B7100000000000000000000000000000000000000000000000000000000 PUSH1 0x0 MSTORE PUSH1 0x11 PUSH1 0x4 MSTORE PUSH1 0x24 PUSH1 0x0 REVERT JUMPDEST PUSH1 0x0 DUP2 SWAP1 POP SWAP2 SWAP1 POP JUMP JUMPDEST PUSH1 0x0 PUSH3 0x719 DUP3 PUSH3 0x702 JUMP JUMPDEST SWAP2 POP PUSH32 0xFFFFFFFFFFFFFFFFFFFFFFFFFFFFFFFFFFFFFFFFFFFFFFFFFFFFFFFFFFFFFFFF DUP3 EQ ISZERO PUSH3 0x74F JUMPI PUSH3 0x74E PUSH3 0x6D3 JUMP JUMPDEST JUMPDEST PUSH1 0x1 DUP3 ADD SWAP1 POP SWAP2 SWAP1 POP JUMP JUMPDEST PUSH2 0x12C4 DUP1 PUSH3 0x76A PUSH1 0x0 CODECOPY PUSH1 0x0 RETURN INVALID PUSH1 0x80 PUSH1 0x40 MSTORE CALLVALUE DUP1 ISZERO PUSH2 0x10 JUMPI PUSH1 0x0 DUP1 REVERT JUMPDEST POP PUSH1 0x4 CALLDATASIZE LT PUSH2 0x4C JUMPI PUSH1 0x0 CALLDATALOAD PUSH1 0xE0 SHR DUP1 PUSH4 0xC0B6691 EQ PUSH2 0x51 JUMPI DUP1 PUSH4 0x4B85A5E3 EQ PUSH2 0x6F JUMPI DUP1 PUSH4 0xBD00B779 EQ PUSH2 0x9F JUMPI DUP1 PUSH4 0xFFE6A18E EQ PUSH2 0xBB JUMPI JUMPDEST PUSH1 0x0 DUP1 REVERT JUMPDEST PUSH2 0x59 PUSH2 0xD9 JUMP JUMPDEST PUSH1 0x40 MLOAD PUSH2 0x66 SWAP2 SWAP1 PUSH2 0xA52 JUMP JUMPDEST PUSH1 0x40 MLOAD DUP1 SWAP2 SUB SWAP1 RETURN JUMPDEST PUSH2 0x89 PUSH1 0x4 DUP1 CALLDATASIZE SUB DUP2 ADD SWAP1 PUSH2 0x84 SWAP2 SWAP1 PUSH2 0xBBD JUMP JUMPDEST PUSH2 0x1B2 JUMP JUMPDEST PUSH1 0x40 MLOAD PUSH2 0x96 SWAP2 SWAP1 PUSH2 0xDA2 JUMP JUMPDEST PUSH1 0x40 MLOAD DUP1 SWAP2 SUB SWAP1 RETURN JUMPDEST PUSH2 0xB9 PUSH1 0x4 DUP1 CALLDATASIZE SUB DUP2 ADD SWAP1 PUSH2 0xB4 SWAP2 SWAP1 PUSH2 0xDF0 JUMP JUMPDEST PUSH2 0x5B9 JUMP JUMPDEST STOP JUMPDEST PUSH2 0xC3 PUSH2 0x77B JUMP JUMPDEST PUSH1 0x40 MLOAD PUSH2 0xD0 SWAP2 SWAP1 PUSH2 0x1032 JUMP JUMPDEST PUSH1 0x40 MLOAD DUP1 SWAP2 SUB SWAP1 RETURN JUMPDEST PUSH1 0x60 PUSH1 0x0 DUP1 SLOAD DUP1 PUSH1 0x20 MUL PUSH1 0x20 ADD PUSH1 0x40 MLOAD SWAP1 DUP2 ADD PUSH1 0x40 MSTORE DUP1 SWAP3 SWAP2 SWAP1 DUP2 DUP2 MSTORE PUSH1 0x20 ADD PUSH1 0x0 SWAP1 JUMPDEST DUP3 DUP3 LT ISZERO PUSH2 0x1A9 JUMPI DUP4 DUP3 SWAP1 PUSH1 0x0 MSTORE PUSH1 0x20 PUSH1 0x0 KECCAK256 ADD DUP1 SLOAD PUSH2 0x11C SWAP1 PUSH2 0x1083 JUMP JUMPDEST DUP1 PUSH1 0x1F ADD PUSH1 0x20 DUP1 SWAP2 DIV MUL PUSH1 0x20 ADD PUSH1 0x40 MLOAD SWAP1 DUP2 ADD PUSH1 0x40 MSTORE DUP1 SWAP3 SWAP2 SWAP1 DUP2 DUP2 MSTORE PUSH1 0x20 ADD DUP3 DUP1 SLOAD PUSH2 0x148 SWAP1 PUSH2 0x1083 JUMP JUMPDEST DUP1 ISZERO PUSH2 0x195 JUMPI DUP1 PUSH1 0x1F LT PUSH2 0x16A JUMPI PUSH2 0x100 DUP1 DUP4 SLOAD DIV MUL DUP4 MSTORE SWAP2 PUSH1 0x20 ADD SWAP2 PUSH2 0x195 JUMP JUMPDEST DUP3 ADD SWAP2 SWAP1 PUSH1 0x0 MSTORE PUSH1 0x20 PUSH1 0x0 KECCAK256 SWAP1 JUMPDEST DUP2 SLOAD DUP2 MSTORE SWAP1 PUSH1 0x1 ADD SWAP1 PUSH1 0x20 ADD DUP1 DUP4 GT PUSH2 0x178 JUMPI DUP3 SWAP1 SUB PUSH1 0x1F AND DUP3 ADD SWAP2 JUMPDEST POP POP POP POP POP DUP2 MSTORE PUSH1 0x20 ADD SWAP1 PUSH1 0x1 ADD SWAP1 PUSH2 0xFD JUMP JUMPDEST POP POP POP POP SWAP1 POP SWAP1 JUMP JUMPDEST PUSH1 0x60 PUSH1 0x1 DUP3 PUSH1 0x40 MLOAD PUSH2 0x1C4 SWAP2 SWAP1 PUSH2 0x10F1 JUMP JUMPDEST SWAP1 DUP2 MSTORE PUSH1 0x20 ADD PUSH1 0x40 MLOAD DUP1 SWAP2 SUB SWAP1 KECCAK256 PUSH1 0x1 ADD DUP1 SLOAD DUP1 PUSH1 0x20 MUL PUSH1 0x20 ADD PUSH1 0x40 MLOAD SWAP1 DUP2 ADD PUSH1 0x40 MSTORE DUP1 SWAP3 SWAP2 SWAP1 DUP2 DUP2 MSTORE PUSH1 0x20 ADD PUSH1 0x0 SWAP1 JUMPDEST DUP3 DUP3 LT ISZERO PUSH2 0x5AE JUMPI DUP4 DUP3 SWAP1 PUSH1 0x0 MSTORE PUSH1 0x20 PUSH1 0x0 KECCAK256 SWAP1 PUSH1 0x7 MUL ADD PUSH1 0x40 MLOAD DUP1 PUSH1 0xE0 ADD PUSH1 0x40 MSTORE SWAP1 DUP2 PUSH1 0x0 DUP3 ADD DUP1 SLOAD PUSH2 0x228 SWAP1 PUSH2 0x1083 JUMP JUMPDEST DUP1 PUSH1 0x1F ADD PUSH1 0x20 DUP1 SWAP2 DIV MUL PUSH1 0x20 ADD PUSH1 0x40 MLOAD SWAP1 DUP2 ADD PUSH1 0x40 MSTORE DUP1 SWAP3 SWAP2 SWAP1 DUP2 DUP2 MSTORE PUSH1 0x20 ADD DUP3 DUP1 SLOAD PUSH2 0x254 SWAP1 PUSH2 0x1083 JUMP JUMPDEST DUP1 ISZERO PUSH2 0x2A1 JUMPI DUP1 PUSH1 0x1F LT PUSH2 0x276 JUMPI PUSH2 0x100 DUP1 DUP4 SLOAD DIV MUL DUP4 MSTORE SWAP2 PUSH1 0x20 ADD SWAP2 PUSH2 0x2A1 JUMP JUMPDEST DUP3 ADD SWAP2 SWAP1 PUSH1 0x0 MSTORE PUSH1 0x20 PUSH1 0x0 KECCAK256 SWAP1 JUMPDEST DUP2 SLOAD DUP2 MSTORE SWAP1 PUSH1 0x1 ADD SWAP1 PUSH1 0x20 ADD DUP1 DUP4 GT PUSH2 0x284 JUMPI DUP3 SWAP1 SUB PUSH1 0x1F AND DUP3 ADD SWAP2 JUMPDEST POP POP POP POP POP DUP2 MSTORE PUSH1 0x20 ADD PUSH1 0x1 DUP3 ADD DUP1 SLOAD PUSH2 0x2BA SWAP1 PUSH2 0x1083 JUMP JUMPDEST DUP1 PUSH1 0x1F ADD PUSH1 0x20 DUP1 SWAP2 DIV MUL PUSH1 0x20 ADD PUSH1 0x40 MLOAD SWAP1 DUP2 ADD PUSH1 0x40 MSTORE DUP1 SWAP3 SWAP2 SWAP1 DUP2 DUP2 MSTORE PUSH1 0x20 ADD DUP3 DUP1 SLOAD PUSH2 0x2E6 SWAP1 PUSH2 0x1083 JUMP JUMPDEST DUP1 ISZERO PUSH2 0x333 JUMPI DUP1 PUSH1 0x1F LT PUSH2 0x308 JUMPI PUSH2 0x100 DUP1 DUP4 SLOAD DIV MUL DUP4 MSTORE SWAP2 PUSH1 0x20 ADD SWAP2 PUSH2 0x333 JUMP JUMPDEST DUP3 ADD SWAP2 SWAP1 PUSH1 0x0 MSTORE PUSH1 0x20 PUSH1 0x0 KECCAK256 SWAP1 JUMPDEST DUP2 SLOAD DUP2 MSTORE SWAP1 PUSH1 0x1 ADD SWAP1 PUSH1 0x20 ADD DUP1 DUP4 GT PUSH2 0x316 JUMPI DUP3 SWAP1 SUB PUSH1 0x1F AND DUP3 ADD SWAP2 JUMPDEST POP POP POP POP POP DUP2 MSTORE PUSH1 0x20 ADD PUSH1 0x2 DUP3 ADD DUP1 SLOAD PUSH2 0x34C SWAP1 PUSH2 0x1083 JUMP JUMPDEST DUP1 PUSH1 0x1F ADD PUSH1 0x20 DUP1 SWAP2 DIV MUL PUSH1 0x20 ADD PUSH1 0x40 MLOAD SWAP1 DUP2 ADD PUSH1 0x40 MSTORE DUP1 SWAP3 SWAP2 SWAP1 DUP2 DUP2 MSTORE PUSH1 0x20 ADD DUP3 DUP1 SLOAD PUSH2 0x378 SWAP1 PUSH2 0x1083 JUMP JUMPDEST DUP1 ISZERO PUSH2 0x3C5 JUMPI DUP1 PUSH1 0x1F LT PUSH2 0x39A JUMPI PUSH2 0x100 DUP1 DUP4 SLOAD DIV MUL DUP4 MSTORE SWAP2 PUSH1 0x20 ADD SWAP2 PUSH2 0x3C5 JUMP JUMPDEST DUP3 ADD SWAP2 SWAP1 PUSH1 0x0 MSTORE PUSH1 0x20 PUSH1 0x0 KECCAK256 SWAP1 JUMPDEST DUP2 SLOAD DUP2 MSTORE SWAP1 PUSH1 0x1 ADD SWAP1 PUSH1 0x20 ADD DUP1 DUP4 GT PUSH2 0x3A8 JUMPI DUP3 SWAP1 SUB PUSH1 0x1F AND DUP3 ADD SWAP2 JUMPDEST POP POP POP POP POP DUP2 MSTORE PUSH1 0x20 ADD PUSH1 0x3 DUP3 ADD DUP1 SLOAD PUSH2 0x3DE SWAP1 PUSH2 0x1083 JUMP JUMPDEST DUP1 PUSH1 0x1F ADD PUSH1 0x20 DUP1 SWAP2 DIV MUL PUSH1 0x20 ADD PUSH1 0x40 MLOAD SWAP1 DUP2 ADD PUSH1 0x40 MSTORE DUP1 SWAP3 SWAP2 SWAP1 DUP2 DUP2 MSTORE PUSH1 0x20 ADD DUP3 DUP1 SLOAD PUSH2 0x40A SWAP1 PUSH2 0x1083 JUMP JUMPDEST DUP1 ISZERO PUSH2 0x457 JUMPI DUP1 PUSH1 0x1F LT PUSH2 0x42C JUMPI PUSH2 0x100 DUP1 DUP4 SLOAD DIV MUL DUP4 MSTORE SWAP2 PUSH1 0x20 ADD SWAP2 PUSH2 0x457 JUMP JUMPDEST DUP3 ADD SWAP2 SWAP1 PUSH1 0x0 MSTORE PUSH1 0x20 PUSH1 0x0 KECCAK256 SWAP1 JUMPDEST DUP2 SLOAD DUP2 MSTORE SWAP1 PUSH1 0x1 ADD SWAP1 PUSH1 0x20 ADD DUP1 DUP4 GT PUSH2 0x43A JUMPI DUP3 SWAP1 SUB PUSH1 0x1F AND DUP3 ADD SWAP2 JUMPDEST POP POP POP POP POP DUP2 MSTORE PUSH1 0x20 ADD PUSH1 0x4 DUP3 ADD DUP1 SLOAD PUSH2 0x470 SWAP1 PUSH2 0x1083 JUMP JUMPDEST DUP1 PUSH1 0x1F ADD PUSH1 0x20 DUP1 SWAP2 DIV MUL PUSH1 0x20 ADD PUSH1 0x40 MLOAD SWAP1 DUP2 ADD PUSH1 0x40 MSTORE DUP1 SWAP3 SWAP2 SWAP1 DUP2 DUP2 MSTORE PUSH1 0x20 ADD DUP3 DUP1 SLOAD PUSH2 0x49C SWAP1 PUSH2 0x1083 JUMP JUMPDEST DUP1 ISZERO PUSH2 0x4E9 JUMPI DUP1 PUSH1 0x1F LT PUSH2 0x4BE JUMPI PUSH2 0x100 DUP1 DUP4 SLOAD DIV MUL DUP4 MSTORE SWAP2 PUSH1 0x20 ADD SWAP2 PUSH2 0x4E9 JUMP JUMPDEST DUP3 ADD SWAP2 SWAP1 PUSH1 0x0 MSTORE PUSH1 0x20 PUSH1 0x0 KECCAK256 SWAP1 JUMPDEST DUP2 SLOAD DUP2 MSTORE SWAP1 PUSH1 0x1 ADD SWAP1 PUSH1 0x20 ADD DUP1 DUP4 GT PUSH2 0x4CC JUMPI DUP3 SWAP1 SUB PUSH1 0x1F AND DUP3 ADD SWAP2 JUMPDEST POP POP POP POP POP DUP2 MSTORE PUSH1 0x20 ADD PUSH1 0x5 DUP3 ADD DUP1 SLOAD PUSH2 0x502 SWAP1 PUSH2 0x1083 JUMP JUMPDEST DUP1 PUSH1 0x1F ADD PUSH1 0x20 DUP1 SWAP2 DIV MUL PUSH1 0x20 ADD PUSH1 0x40 MLOAD SWAP1 DUP2 ADD PUSH1 0x40 MSTORE DUP1 SWAP3 SWAP2 SWAP1 DUP2 DUP2 MSTORE PUSH1 0x20 ADD DUP3 DUP1 SLOAD PUSH2 0x52E SWAP1 PUSH2 0x1083 JUMP JUMPDEST DUP1 ISZERO PUSH2 0x57B JUMPI DUP1 PUSH1 0x1F LT PUSH2 0x550 JUMPI PUSH2 0x100 DUP1 DUP4 SLOAD DIV MUL DUP4 MSTORE SWAP2 PUSH1 0x20 ADD SWAP2 PUSH2 0x57B JUMP JUMPDEST DUP3 ADD SWAP2 SWAP1 PUSH1 0x0 MSTORE PUSH1 0x20 PUSH1 0x0 KECCAK256 SWAP1 JUMPDEST DUP2 SLOAD DUP2 MSTORE SWAP1 PUSH1 0x1 ADD SWAP1 PUSH1 0x20 ADD DUP1 DUP4 GT PUSH2 0x55E JUMPI DUP3 SWAP1 SUB PUSH1 0x1F AND DUP3 ADD SWAP2 JUMPDEST POP POP POP POP POP DUP2 MSTORE PUSH1 0x20 ADD PUSH1 0x6 DUP3 ADD PUSH1 0x0 SWAP1 SLOAD SWAP1 PUSH2 0x100 EXP SWAP1 DIV PUSH1 0xFF AND ISZERO ISZERO ISZERO ISZERO DUP2 MSTORE POP POP DUP2 MSTORE PUSH1 0x20 ADD SWAP1 PUSH1 0x1 ADD SWAP1 PUSH2 0x1F5 JUMP JUMPDEST POP POP POP POP SWAP1 POP SWAP2 SWAP1 POP JUMP JUMPDEST PUSH1 0x1 DUP9 PUSH1 0x40 MLOAD PUSH2 0x5C9 SWAP2 SWAP1 PUSH2 0x10F1 JUMP JUMPDEST SWAP1 DUP2 MSTORE PUSH1 0x20 ADD PUSH1 0x40 MLOAD DUP1 SWAP2 SUB SWAP1 KECCAK256 PUSH1 0x1 ADD PUSH1 0x40 MLOAD DUP1 PUSH1 0xE0 ADD PUSH1 0x40 MSTORE DUP1 DUP10 DUP2 MSTORE PUSH1 0x20 ADD DUP9 DUP2 MSTORE PUSH1 0x20 ADD DUP8 DUP2 MSTORE PUSH1 0x20 ADD DUP7 DUP2 MSTORE PUSH1 0x20 ADD DUP6 DUP2 MSTORE PUSH1 0x20 ADD DUP5 DUP2 MSTORE PUSH1 0x20 ADD DUP4 ISZERO ISZERO DUP2 MSTORE POP SWAP1 DUP1 PUSH1 0x1 DUP2 SLOAD ADD DUP1 DUP3 SSTORE DUP1 SWAP2 POP POP PUSH1 0x1 SWAP1 SUB SWAP1 PUSH1 0x0 MSTORE PUSH1 0x20 PUSH1 0x0 KECCAK256 SWAP1 PUSH1 0x7 MUL ADD PUSH1 0x0 SWAP1 SWAP2 SWAP1 SWAP2 SWAP1 SWAP2 POP PUSH1 0x0 DUP3 ADD MLOAD DUP2 PUSH1 0x0 ADD SWAP1 DUP1 MLOAD SWAP1 PUSH1 0x20 ADD SWAP1 PUSH2 0x654 SWAP3 SWAP2 SWAP1 PUSH2 0x854 JUMP JUMPDEST POP PUSH1 0x20 DUP3 ADD MLOAD DUP2 PUSH1 0x1 ADD SWAP1 DUP1 MLOAD SWAP1 PUSH1 0x20 ADD SWAP1 PUSH2 0x671 SWAP3 SWAP2 SWAP1 PUSH2 0x854 JUMP JUMPDEST POP PUSH1 0x40 DUP3 ADD MLOAD DUP2 PUSH1 0x2 ADD SWAP1 DUP1 MLOAD SWAP1 PUSH1 0x20 ADD SWAP1 PUSH2 0x68E SWAP3 SWAP2 SWAP1 PUSH2 0x854 JUMP JUMPDEST POP PUSH1 0x60 DUP3 ADD MLOAD DUP2 PUSH1 0x3 ADD SWAP1 DUP1 MLOAD SWAP1 PUSH1 0x20 ADD SWAP1 PUSH2 0x6AB SWAP3 SWAP2 SWAP1 PUSH2 0x854 JUMP JUMPDEST POP PUSH1 0x80 DUP3 ADD MLOAD DUP2 PUSH1 0x4 ADD SWAP1 DUP1 MLOAD SWAP1 PUSH1 0x20 ADD SWAP1 PUSH2 0x6C8 SWAP3 SWAP2 SWAP1 PUSH2 0x854 JUMP JUMPDEST POP PUSH1 0xA0 DUP3 ADD MLOAD DUP2 PUSH1 0x5 ADD SWAP1 DUP1 MLOAD SWAP1 PUSH1 0x20 ADD SWAP1 PUSH2 0x6E5 SWAP3 SWAP2 SWAP1 PUSH2 0x854 JUMP JUMPDEST POP PUSH1 0xC0 DUP3 ADD MLOAD DUP2 PUSH1 0x6 ADD PUSH1 0x0 PUSH2 0x100 EXP DUP2 SLOAD DUP2 PUSH1 0xFF MUL NOT AND SWAP1 DUP4 ISZERO ISZERO MUL OR SWAP1 SSTORE POP POP POP PUSH1 0x0 PUSH1 0x1 DUP10 PUSH1 0x40 MLOAD PUSH2 0x71A SWAP2 SWAP1 PUSH2 0x10F1 JUMP JUMPDEST SWAP1 DUP2 MSTORE PUSH1 0x20 ADD PUSH1 0x40 MLOAD DUP1 SWAP2 SUB SWAP1 KECCAK256 PUSH1 0x0 ADD SLOAD SWAP1 POP PUSH1 0x0 DUP2 GT ISZERO PUSH2 0x770 JUMPI PUSH1 0x1 DUP1 DUP11 PUSH1 0x40 MLOAD PUSH2 0x748 SWAP2 SWAP1 PUSH2 0x10F1 JUMP JUMPDEST SWAP1 DUP2 MSTORE PUSH1 0x20 ADD PUSH1 0x40 MLOAD DUP1 SWAP2 SUB SWAP1 KECCAK256 PUSH1 0x0 ADD PUSH1 0x0 DUP3 DUP3 SLOAD PUSH2 0x768 SWAP2 SWAP1 PUSH2 0x1137 JUMP JUMPDEST SWAP3 POP POP DUP2 SWAP1 SSTORE POP JUMPDEST POP POP POP POP POP POP POP POP POP JUMP JUMPDEST PUSH1 0x60 PUSH1 0x0 PUSH1 0xA PUSH8 0xFFFFFFFFFFFFFFFF DUP2 GT ISZERO PUSH2 0x79A JUMPI PUSH2 0x799 PUSH2 0xA92 JUMP JUMPDEST JUMPDEST PUSH1 0x40 MLOAD SWAP1 DUP1 DUP3 MSTORE DUP1 PUSH1 0x20 MUL PUSH1 0x20 ADD DUP3 ADD PUSH1 0x40 MSTORE DUP1 ISZERO PUSH2 0x7C8 JUMPI DUP2 PUSH1 0x20 ADD PUSH1 0x20 DUP3 MUL DUP1 CALLDATASIZE DUP4 CALLDATACOPY DUP1 DUP3 ADD SWAP2 POP POP SWAP1 POP JUMPDEST POP SWAP1 POP PUSH1 0x0 JUMPDEST PUSH1 0x0 DUP1 SLOAD SWAP1 POP DUP2 LT ISZERO PUSH2 0x84C JUMPI PUSH1 0x1 PUSH1 0x0 DUP3 DUP2 SLOAD DUP2 LT PUSH2 0x7F1 JUMPI PUSH2 0x7F0 PUSH2 0x116B JUMP JUMPDEST JUMPDEST SWAP1 PUSH1 0x0 MSTORE PUSH1 0x20 PUSH1 0x0 KECCAK256 ADD PUSH1 0x40 MLOAD PUSH2 0x808 SWAP2 SWAP1 PUSH2 0x122E JUMP JUMPDEST SWAP1 DUP2 MSTORE PUSH1 0x20 ADD PUSH1 0x40 MLOAD DUP1 SWAP2 SUB SWAP1 KECCAK256 PUSH1 0x0 ADD SLOAD DUP3 DUP3 DUP2 MLOAD DUP2 LT PUSH2 0x82D JUMPI PUSH2 0x82C PUSH2 0x116B JUMP JUMPDEST JUMPDEST PUSH1 0x20 MUL PUSH1 0x20 ADD ADD DUP2 DUP2 MSTORE POP POP DUP1 DUP1 PUSH2 0x844 SWAP1 PUSH2 0x1245 JUMP JUMPDEST SWAP2 POP POP PUSH2 0x7CE JUMP JUMPDEST POP DUP1 SWAP2 POP POP SWAP1 JUMP JUMPDEST DUP3 DUP1 SLOAD PUSH2 0x860 SWAP1 PUSH2 0x1083 JUMP JUMPDEST SWAP1 PUSH1 0x0 MSTORE PUSH1 0x20 PUSH1 0x0 KECCAK256 SWAP1 PUSH1 0x1F ADD PUSH1 0x20 SWAP1 DIV DUP2 ADD SWAP3 DUP3 PUSH2 0x882 JUMPI PUSH1 0x0 DUP6 SSTORE PUSH2 0x8C9 JUMP JUMPDEST DUP3 PUSH1 0x1F LT PUSH2 0x89B JUMPI DUP1 MLOAD PUSH1 0xFF NOT AND DUP4 DUP1 ADD OR DUP6 SSTORE PUSH2 0x8C9 JUMP JUMPDEST DUP3 DUP1 ADD PUSH1 0x1 ADD DUP6 SSTORE DUP3 ISZERO PUSH2 0x8C9 JUMPI SWAP2 DUP3 ADD JUMPDEST DUP3 DUP2 GT ISZERO PUSH2 0x8C8 JUMPI DUP3 MLOAD DUP3 SSTORE SWAP2 PUSH1 0x20 ADD SWAP2 SWAP1 PUSH1 0x1 ADD SWAP1 PUSH2 0x8AD JUMP JUMPDEST JUMPDEST POP SWAP1 POP PUSH2 0x8D6 SWAP2 SWAP1 PUSH2 0x8DA JUMP JUMPDEST POP SWAP1 JUMP JUMPDEST JUMPDEST DUP1 DUP3 GT ISZERO PUSH2 0x8F3 JUMPI PUSH1 0x0 DUP2 PUSH1 0x0 SWAP1 SSTORE POP PUSH1 0x1 ADD PUSH2 0x8DB JUMP JUMPDEST POP SWAP1 JUMP JUMPDEST PUSH1 0x0 DUP2 MLOAD SWAP1 POP SWAP2 SWAP1 POP JUMP JUMPDEST PUSH1 0x0 DUP3 DUP3 MSTORE PUSH1 0x20 DUP3 ADD SWAP1 POP SWAP3 SWAP2 POP POP JUMP JUMPDEST PUSH1 0x0 DUP2 SWAP1 POP PUSH1 0x20 DUP3 ADD SWAP1 POP SWAP2 SWAP1 POP JUMP JUMPDEST PUSH1 0x0 DUP2 MLOAD SWAP1 POP SWAP2 SWAP1 POP JUMP JUMPDEST PUSH1 0x0 DUP3 DUP3 MSTORE PUSH1 0x20 DUP3 ADD SWAP1 POP SWAP3 SWAP2 POP POP JUMP JUMPDEST PUSH1 0x0 JUMPDEST DUP4 DUP2 LT ISZERO PUSH2 0x95D JUMPI DUP1 DUP3 ADD MLOAD DUP2 DUP5 ADD MSTORE PUSH1 0x20 DUP2 ADD SWAP1 POP PUSH2 0x942 JUMP JUMPDEST DUP4 DUP2 GT ISZERO PUSH2 0x96C JUMPI PUSH1 0x0 DUP5 DUP5 ADD MSTORE JUMPDEST POP POP POP POP JUMP JUMPDEST PUSH1 0x0 PUSH1 0x1F NOT PUSH1 0x1F DUP4 ADD AND SWAP1 POP SWAP2 SWAP1 POP JUMP JUMPDEST PUSH1 0x0 PUSH2 0x98E DUP3 PUSH2 0x923 JUMP JUMPDEST PUSH2 0x998 DUP2 DUP6 PUSH2 0x92E JUMP JUMPDEST SWAP4 POP PUSH2 0x9A8 DUP2 DUP6 PUSH1 0x20 DUP7 ADD PUSH2 0x93F JUMP JUMPDEST PUSH2 0x9B1 DUP2 PUSH2 0x972 JUMP JUMPDEST DUP5 ADD SWAP2 POP POP SWAP3 SWAP2 POP POP JUMP JUMPDEST PUSH1 0x0 PUSH2 0x9C8 DUP4 DUP4 PUSH2 0x983 JUMP JUMPDEST SWAP1 POP SWAP3 SWAP2 POP POP JUMP JUMPDEST PUSH1 0x0 PUSH1 0x20 DUP3 ADD SWAP1 POP SWAP2 SWAP1 POP JUMP JUMPDEST PUSH1 0x0 PUSH2 0x9E8 DUP3 PUSH2 0x8F7 JUMP JUMPDEST PUSH2 0x9F2 DUP2 DUP6 PUSH2 0x902 JUMP JUMPDEST SWAP4 POP DUP4 PUSH1 0x20 DUP3 MUL DUP6 ADD PUSH2 0xA04 DUP6 PUSH2 0x913 JUMP JUMPDEST DUP1 PUSH1 0x0 JUMPDEST DUP6 DUP2 LT ISZERO PUSH2 0xA40 JUMPI DUP5 DUP5 SUB DUP10 MSTORE DUP2 MLOAD PUSH2 0xA21 DUP6 DUP3 PUSH2 0x9BC JUMP JUMPDEST SWAP5 POP PUSH2 0xA2C DUP4 PUSH2 0x9D0 JUMP JUMPDEST SWAP3 POP PUSH1 0x20 DUP11 ADD SWAP10 POP POP PUSH1 0x1 DUP2 ADD SWAP1 POP PUSH2 0xA08 JUMP JUMPDEST POP DUP3 SWAP8 POP DUP8 SWAP6 POP POP POP POP POP POP SWAP3 SWAP2 POP POP JUMP JUMPDEST PUSH1 0x0 PUSH1 0x20 DUP3 ADD SWAP1 POP DUP2 DUP2 SUB PUSH1 0x0 DUP4 ADD MSTORE PUSH2 0xA6C DUP2 DUP5 PUSH2 0x9DD JUMP JUMPDEST SWAP1 POP SWAP3 SWAP2 POP POP JUMP JUMPDEST PUSH1 0x0 PUSH1 0x40 MLOAD SWAP1 POP SWAP1 JUMP JUMPDEST PUSH1 0x0 DUP1 REVERT JUMPDEST PUSH1 0x0 DUP1 REVERT JUMPDEST PUSH1 0x0 DUP1 REVERT JUMPDEST PUSH1 0x0 DUP1 REVERT JUMPDEST PUSH32 0x4E487B7100000000000000000000000000000000000000000000000000000000 PUSH1 0x0 MSTORE PUSH1 0x41 PUSH1 0x4 MSTORE PUSH1 0x24 PUSH1 0x0 REVERT JUMPDEST PUSH2 0xACA DUP3 PUSH2 0x972 JUMP JUMPDEST DUP2 ADD DUP2 DUP2 LT PUSH8 0xFFFFFFFFFFFFFFFF DUP3 GT OR ISZERO PUSH2 0xAE9 JUMPI PUSH2 0xAE8 PUSH2 0xA92 JUMP JUMPDEST JUMPDEST DUP1 PUSH1 0x40 MSTORE POP POP POP JUMP JUMPDEST PUSH1 0x0 PUSH2 0xAFC PUSH2 0xA74 JUMP JUMPDEST SWAP1 POP PUSH2 0xB08 DUP3 DUP3 PUSH2 0xAC1 JUMP JUMPDEST SWAP2 SWAP1 POP JUMP JUMPDEST PUSH1 0x0 PUSH8 0xFFFFFFFFFFFFFFFF DUP3 GT ISZERO PUSH2 0xB28 JUMPI PUSH2 0xB27 PUSH2 0xA92 JUMP JUMPDEST JUMPDEST PUSH2 0xB31 DUP3 PUSH2 0x972 JUMP JUMPDEST SWAP1 POP PUSH1 0x20 DUP2 ADD SWAP1 POP SWAP2 SWAP1 POP JUMP JUMPDEST DUP3 DUP2 DUP4 CALLDATACOPY PUSH1 0x0 DUP4 DUP4 ADD MSTORE POP POP POP JUMP JUMPDEST PUSH1 0x0 PUSH2 0xB60 PUSH2 0xB5B DUP5 PUSH2 0xB0D JUMP JUMPDEST PUSH2 0xAF2 JUMP JUMPDEST SWAP1 POP DUP3 DUP2 MSTORE PUSH1 0x20 DUP2 ADD DUP5 DUP5 DUP5 ADD GT ISZERO PUSH2 0xB7C JUMPI PUSH2 0xB7B PUSH2 0xA8D JUMP JUMPDEST JUMPDEST PUSH2 0xB87 DUP5 DUP3 DUP6 PUSH2 0xB3E JUMP JUMPDEST POP SWAP4 SWAP3 POP POP POP JUMP JUMPDEST PUSH1 0x0 DUP3 PUSH1 0x1F DUP4 ADD SLT PUSH2 0xBA4 JUMPI PUSH2 0xBA3 PUSH2 0xA88 JUMP JUMPDEST JUMPDEST DUP2 CALLDATALOAD PUSH2 0xBB4 DUP5 DUP3 PUSH1 0x20 DUP7 ADD PUSH2 0xB4D JUMP JUMPDEST SWAP2 POP POP SWAP3 SWAP2 POP POP JUMP JUMPDEST PUSH1 0x0 PUSH1 0x20 DUP3 DUP5 SUB SLT ISZERO PUSH2 0xBD3 JUMPI PUSH2 0xBD2 PUSH2 0xA7E JUMP JUMPDEST JUMPDEST PUSH1 0x0 DUP3 ADD CALLDATALOAD PUSH8 0xFFFFFFFFFFFFFFFF DUP2 GT ISZERO PUSH2 0xBF1 JUMPI PUSH2 0xBF0 PUSH2 0xA83 JUMP JUMPDEST JUMPDEST PUSH2 0xBFD DUP5 DUP3 DUP6 ADD PUSH2 0xB8F JUMP JUMPDEST SWAP2 POP POP SWAP3 SWAP2 POP POP JUMP JUMPDEST PUSH1 0x0 DUP2 MLOAD SWAP1 POP SWAP2 SWAP1 POP JUMP JUMPDEST PUSH1 0x0 DUP3 DUP3 MSTORE PUSH1 0x20 DUP3 ADD SWAP1 POP SWAP3 SWAP2 POP POP JUMP JUMPDEST PUSH1 0x0 DUP2 SWAP1 POP PUSH1 0x20 DUP3 ADD SWAP1 POP SWAP2 SWAP1 POP JUMP JUMPDEST PUSH1 0x0 DUP2 ISZERO ISZERO SWAP1 POP SWAP2 SWAP1 POP JUMP JUMPDEST PUSH2 0xC47 DUP2 PUSH2 0xC32 JUMP JUMPDEST DUP3 MSTORE POP POP JUMP JUMPDEST PUSH1 0x0 PUSH1 0xE0 DUP4 ADD PUSH1 0x0 DUP4 ADD MLOAD DUP5 DUP3 SUB PUSH1 0x0 DUP7 ADD MSTORE PUSH2 0xC6A DUP3 DUP3 PUSH2 0x983 JUMP JUMPDEST SWAP2 POP POP PUSH1 0x20 DUP4 ADD MLOAD DUP5 DUP3 SUB PUSH1 0x20 DUP7 ADD MSTORE PUSH2 0xC84 DUP3 DUP3 PUSH2 0x983 JUMP JUMPDEST SWAP2 POP POP PUSH1 0x40 DUP4 ADD MLOAD DUP5 DUP3 SUB PUSH1 0x40 DUP7 ADD MSTORE PUSH2 0xC9E DUP3 DUP3 PUSH2 0x983 JUMP JUMPDEST SWAP2 POP POP PUSH1 0x60 DUP4 ADD MLOAD DUP5 DUP3 SUB PUSH1 0x60 DUP7 ADD MSTORE PUSH2 0xCB8 DUP3 DUP3 PUSH2 0x983 JUMP JUMPDEST SWAP2 POP POP PUSH1 0x80 DUP4 ADD MLOAD DUP5 DUP3 SUB PUSH1 0x80 DUP7 ADD MSTORE PUSH2 0xCD2 DUP3 DUP3 PUSH2 0x983 JUMP JUMPDEST SWAP2 POP POP PUSH1 0xA0 DUP4 ADD MLOAD DUP5 DUP3 SUB PUSH1 0xA0 DUP7 ADD MSTORE PUSH2 0xCEC DUP3 DUP3 PUSH2 0x983 JUMP JUMPDEST SWAP2 POP POP PUSH1 0xC0 DUP4 ADD MLOAD PUSH2 0xD01 PUSH1 0xC0 DUP7 ADD DUP3 PUSH2 0xC3E JUMP JUMPDEST POP DUP1 SWAP2 POP POP SWAP3 SWAP2 POP POP JUMP JUMPDEST PUSH1 0x0 PUSH2 0xD18 DUP4 DUP4 PUSH2 0xC4D JUMP JUMPDEST SWAP1 POP SWAP3 SWAP2 POP POP JUMP JUMPDEST PUSH1 0x0 PUSH1 0x20 DUP3 ADD SWAP1 POP SWAP2 SWAP1 POP JUMP JUMPDEST PUSH1 0x0 PUSH2 0xD38 DUP3 PUSH2 0xC06 JUMP JUMPDEST PUSH2 0xD42 DUP2 DUP6 PUSH2 0xC11 JUMP JUMPDEST SWAP4 POP DUP4 PUSH1 0x20 DUP3 MUL DUP6 ADD PUSH2 0xD54 DUP6 PUSH2 0xC22 JUMP JUMPDEST DUP1 PUSH1 0x0 JUMPDEST DUP6 DUP2 LT ISZERO PUSH2 0xD90 JUMPI DUP5 DUP5 SUB DUP10 MSTORE DUP2 MLOAD PUSH2 0xD71 DUP6 DUP3 PUSH2 0xD0C JUMP JUMPDEST SWAP5 POP PUSH2 0xD7C DUP4 PUSH2 0xD20 JUMP JUMPDEST SWAP3 POP PUSH1 0x20 DUP11 ADD SWAP10 POP POP PUSH1 0x1 DUP2 ADD SWAP1 POP PUSH2 0xD58 JUMP JUMPDEST POP DUP3 SWAP8 POP DUP8 SWAP6 POP POP POP POP POP POP SWAP3 SWAP2 POP POP JUMP JUMPDEST PUSH1 0x0 PUSH1 0x20 DUP3 ADD SWAP1 POP DUP2 DUP2 SUB PUSH1 0x0 DUP4 ADD MSTORE PUSH2 0xDBC DUP2 DUP5 PUSH2 0xD2D JUMP JUMPDEST SWAP1 POP SWAP3 SWAP2 POP POP JUMP JUMPDEST PUSH2 0xDCD DUP2 PUSH2 0xC32 JUMP JUMPDEST DUP2 EQ PUSH2 0xDD8 JUMPI PUSH1 0x0 DUP1 REVERT JUMPDEST POP JUMP JUMPDEST PUSH1 0x0 DUP2 CALLDATALOAD SWAP1 POP PUSH2 0xDEA DUP2 PUSH2 0xDC4 JUMP JUMPDEST SWAP3 SWAP2 POP POP JUMP JUMPDEST PUSH1 0x0 DUP1 PUSH1 0x0 DUP1 PUSH1 0x0 DUP1 PUSH1 0x0 DUP1 PUSH2 0x100 DUP10 DUP12 SUB SLT ISZERO PUSH2 0xE11 JUMPI PUSH2 0xE10 PUSH2 0xA7E JUMP JUMPDEST JUMPDEST PUSH1 0x0 DUP10 ADD CALLDATALOAD PUSH8 0xFFFFFFFFFFFFFFFF DUP2 GT ISZERO PUSH2 0xE2F JUMPI PUSH2 0xE2E PUSH2 0xA83 JUMP JUMPDEST JUMPDEST PUSH2 0xE3B DUP12 DUP3 DUP13 ADD PUSH2 0xB8F JUMP JUMPDEST SWAP9 POP POP PUSH1 0x20 DUP10 ADD CALLDATALOAD PUSH8 0xFFFFFFFFFFFFFFFF DUP2 GT ISZERO PUSH2 0xE5C JUMPI PUSH2 0xE5B PUSH2 0xA83 JUMP JUMPDEST JUMPDEST PUSH2 0xE68 DUP12 DUP3 DUP13 ADD PUSH2 0xB8F JUMP JUMPDEST SWAP8 POP POP PUSH1 0x40 DUP10 ADD CALLDATALOAD PUSH8 0xFFFFFFFFFFFFFFFF DUP2 GT ISZERO PUSH2 0xE89 JUMPI PUSH2 0xE88 PUSH2 0xA83 JUMP JUMPDEST JUMPDEST PUSH2 0xE95 DUP12 DUP3 DUP13 ADD PUSH2 0xB8F JUMP JUMPDEST SWAP7 POP POP PUSH1 0x60 DUP10 ADD CALLDATALOAD PUSH8 0xFFFFFFFFFFFFFFFF DUP2 GT ISZERO PUSH2 0xEB6 JUMPI PUSH2 0xEB5 PUSH2 0xA83 JUMP JUMPDEST JUMPDEST PUSH2 0xEC2 DUP12 DUP3 DUP13 ADD PUSH2 0xB8F JUMP JUMPDEST SWAP6 POP POP PUSH1 0x80 DUP10 ADD CALLDATALOAD PUSH8 0xFFFFFFFFFFFFFFFF DUP2 GT ISZERO PUSH2 0xEE3 JUMPI PUSH2 0xEE2 PUSH2 0xA83 JUMP JUMPDEST JUMPDEST PUSH2 0xEEF DUP12 DUP3 DUP13 ADD PUSH2 0xB8F JUMP JUMPDEST SWAP5 POP POP PUSH1 0xA0 DUP10 ADD CALLDATALOAD PUSH8 0xFFFFFFFFFFFFFFFF DUP2 GT ISZERO PUSH2 0xF10 JUMPI PUSH2 0xF0F PUSH2 0xA83 JUMP JUMPDEST JUMPDEST PUSH2 0xF1C DUP12 DUP3 DUP13 ADD PUSH2 0xB8F JUMP JUMPDEST SWAP4 POP POP PUSH1 0xC0 DUP10 ADD CALLDATALOAD PUSH8 0xFFFFFFFFFFFFFFFF DUP2 GT ISZERO PUSH2 0xF3D JUMPI PUSH2 0xF3C PUSH2 0xA83 JUMP JUMPDEST JUMPDEST PUSH2 0xF49 DUP12 DUP3 DUP13 ADD PUSH2 0xB8F JUMP JUMPDEST SWAP3 POP POP PUSH1 0xE0 PUSH2 0xF5A DUP12 DUP3 DUP13 ADD PUSH2 0xDDB JUMP JUMPDEST SWAP2 POP POP SWAP3 SWAP6 SWAP9 POP SWAP3 SWAP6 SWAP9 SWAP1 SWAP4 SWAP7 POP JUMP JUMPDEST PUSH1 0x0 DUP2 MLOAD SWAP1 POP SWAP2 SWAP1 POP JUMP JUMPDEST PUSH1 0x0 DUP3 DUP3 MSTORE PUSH1 0x20 DUP3 ADD SWAP1 POP SWAP3 SWAP2 POP POP JUMP JUMPDEST PUSH1 0x0 DUP2 SWAP1 POP PUSH1 0x20 DUP3 ADD SWAP1 POP SWAP2 SWAP1 POP JUMP JUMPDEST PUSH1 0x0 DUP2 SWAP1 POP SWAP2 SWAP1 POP JUMP JUMPDEST PUSH2 0xFA9 DUP2 PUSH2 0xF96 JUMP JUMPDEST DUP3 MSTORE POP POP JUMP JUMPDEST PUSH1 0x0 PUSH2 0xFBB DUP4 DUP4 PUSH2 0xFA0 JUMP JUMPDEST PUSH1 0x20 DUP4 ADD SWAP1 POP SWAP3 SWAP2 POP POP JUMP JUMPDEST PUSH1 0x0 PUSH1 0x20 DUP3 ADD SWAP1 POP SWAP2 SWAP1 POP JUMP JUMPDEST PUSH1 0x0 PUSH2 0xFDF DUP3 PUSH2 0xF6A JUMP JUMPDEST PUSH2 0xFE9 DUP2 DUP6 PUSH2 0xF75 JUMP JUMPDEST SWAP4 POP PUSH2 0xFF4 DUP4 PUSH2 0xF86 JUMP JUMPDEST DUP1 PUSH1 0x0 JUMPDEST DUP4 DUP2 LT ISZERO PUSH2 0x1025 JUMPI DUP2 MLOAD PUSH2 0x100C DUP9 DUP3 PUSH2 0xFAF JUMP JUMPDEST SWAP8 POP PUSH2 0x1017 DUP4 PUSH2 0xFC7 JUMP JUMPDEST SWAP3 POP POP PUSH1 0x1 DUP2 ADD SWAP1 POP PUSH2 0xFF8 JUMP JUMPDEST POP DUP6 SWAP4 POP POP POP POP SWAP3 SWAP2 POP POP JUMP JUMPDEST PUSH1 0x0 PUSH1 0x20 DUP3 ADD SWAP1 POP DUP2 DUP2 SUB PUSH1 0x0 DUP4 ADD MSTORE PUSH2 0x104C DUP2 DUP5 PUSH2 0xFD4 JUMP JUMPDEST SWAP1 POP SWAP3 SWAP2 POP POP JUMP JUMPDEST PUSH32 0x4E487B7100000000000000000000000000000000000000000000000000000000 PUSH1 0x0 MSTORE PUSH1 0x22 PUSH1 0x4 MSTORE PUSH1 0x24 PUSH1 0x0 REVERT JUMPDEST PUSH1 0x0 PUSH1 0x2 DUP3 DIV SWAP1 POP PUSH1 0x1 DUP3 AND DUP1 PUSH2 0x109B JUMPI PUSH1 0x7F DUP3 AND SWAP2 POP JUMPDEST PUSH1 0x20 DUP3 LT DUP2 EQ ISZERO PUSH2 0x10AF JUMPI PUSH2 0x10AE PUSH2 0x1054 JUMP JUMPDEST JUMPDEST POP SWAP2 SWAP1 POP JUMP JUMPDEST PUSH1 0x0 DUP2 SWAP1 POP SWAP3 SWAP2 POP POP JUMP JUMPDEST PUSH1 0x0 PUSH2 0x10CB DUP3 PUSH2 0x923 JUMP JUMPDEST PUSH2 0x10D5 DUP2 DUP6 PUSH2 0x10B5 JUMP JUMPDEST SWAP4 POP PUSH2 0x10E5 DUP2 DUP6 PUSH1 0x20 DUP7 ADD PUSH2 0x93F JUMP JUMPDEST DUP1 DUP5 ADD SWAP2 POP POP SWAP3 SWAP2 POP POP JUMP JUMPDEST PUSH1 0x0 PUSH2 0x10FD DUP3 DUP5 PUSH2 0x10C0 JUMP JUMPDEST SWAP2 POP DUP2 SWAP1 POP SWAP3 SWAP2 POP POP JUMP JUMPDEST PUSH32 0x4E487B7100000000000000000000000000000000000000000000000000000000 PUSH1 0x0 MSTORE PUSH1 0x11 PUSH1 0x4 MSTORE PUSH1 0x24 PUSH1 0x0 REVERT JUMPDEST PUSH1 0x0 PUSH2 0x1142 DUP3 PUSH2 0xF96 JUMP JUMPDEST SWAP2 POP PUSH2 0x114D DUP4 PUSH2 0xF96 JUMP JUMPDEST SWAP3 POP DUP3 DUP3 LT ISZERO PUSH2 0x1160 JUMPI PUSH2 0x115F PUSH2 0x1108 JUMP JUMPDEST JUMPDEST DUP3 DUP3 SUB SWAP1 POP SWAP3 SWAP2 POP POP JUMP JUMPDEST PUSH32 0x4E487B7100000000000000000000000000000000000000000000000000000000 PUSH1 0x0 MSTORE PUSH1 0x32 PUSH1 0x4 MSTORE PUSH1 0x24 PUSH1 0x0 REVERT JUMPDEST PUSH1 0x0 DUP2 SWAP1 POP DUP2 PUSH1 0x0 MSTORE PUSH1 0x20 PUSH1 0x0 KECCAK256 SWAP1 POP SWAP2 SWAP1 POP JUMP JUMPDEST PUSH1 0x0 DUP2 SLOAD PUSH2 0x11BC DUP2 PUSH2 0x1083 JUMP JUMPDEST PUSH2 0x11C6 DUP2 DUP7 PUSH2 0x10B5 JUMP JUMPDEST SWAP5 POP PUSH1 0x1 DUP3 AND PUSH1 0x0 DUP2 EQ PUSH2 0x11E1 JUMPI PUSH1 0x1 DUP2 EQ PUSH2 0x11F2 JUMPI PUSH2 0x1225 JUMP JUMPDEST PUSH1 0xFF NOT DUP4 AND DUP7 MSTORE DUP2 DUP7 ADD SWAP4 POP PUSH2 0x1225 JUMP JUMPDEST PUSH2 0x11FB DUP6 PUSH2 0x119A JUMP JUMPDEST PUSH1 0x0 JUMPDEST DUP4 DUP2 LT ISZERO PUSH2 0x121D JUMPI DUP2 SLOAD DUP2 DUP10 ADD MSTORE PUSH1 0x1 DUP3 ADD SWAP2 POP PUSH1 0x20 DUP2 ADD SWAP1 POP PUSH2 0x11FE JUMP JUMPDEST DUP4 DUP9 ADD SWAP6 POP POP POP JUMPDEST POP POP POP SWAP3 SWAP2 POP POP JUMP JUMPDEST PUSH1 0x0 PUSH2 0x123A DUP3 DUP5 PUSH2 0x11AF JUMP JUMPDEST SWAP2 POP DUP2 SWAP1 POP SWAP3 SWAP2 POP POP JUMP JUMPDEST PUSH1 0x0 PUSH2 0x1250 DUP3 PUSH2 0xF96 JUMP JUMPDEST SWAP2 POP PUSH32 0xFFFFFFFFFFFFFFFFFFFFFFFFFFFFFFFFFFFFFFFFFFFFFFFFFFFFFFFFFFFFFFFF DUP3 EQ ISZERO PUSH2 0x1283 JUMPI PUSH2 0x1282 PUSH2 0x1108 JUMP JUMPDEST JUMPDEST PUSH1 0x1 DUP3 ADD SWAP1 POP SWAP2 SWAP1 POP JUMP INVALID LOG2 PUSH5 0x6970667358 0x22 SLT KECCAK256 INVALID DUP2 MLOAD 0x1E 0xE9 PUSH3 0x436DA8 LOG1 0xE4 DUP2 0xE9 CALLVALUE PUSH24 0xC20CB5675B807943AB8478B1A380F384A464736F6C634300 ADDMOD EXP STOP CALLER "
    },
    "gasEstimates": {
      "creation": {
        "codeDepositCost": "960800",
        "executionCost": "infinite",
        "totalCost": "infinite"
      },
      "external": {
        "getCompanies()": "infinite",
        "getComplaints(string)": "infinite",
        "getReputation()": "infinite",
        "newComplaint(string,string,string,string,string,string,string,bool)": "infinite"
      }
    },
    "methodIdentifiers": {
      "getCompanies()": "0c0b6691",
      "getComplaints(string)": "4b85a5e3",
      "getReputation()": "ffe6a18e",
      "newComplaint(string,string,string,string,string,string,string,bool)": "bd00b779"
    }
  },
  "storageLayout": {
    "storage": [
      {
        "astId": 32,
        "contract": "complaintContract.sol:complaintContract",
        "label": "companies",
        "offset": 0,
        "slot": "0",
        "type": "t_array(t_string_storage)dyn_storage"
      },
      {
        "astId": 37,
        "contract": "complaintContract.sol:complaintContract",
        "label": "companyMapping",
        "offset": 0,
        "slot": "1",
        "type": "t_mapping(t_string_memory_ptr,t_struct(companyData)24_storage)"
      }
    ],
    "types": {
      "t_array(t_string_storage)dyn_storage": {
        "base": "t_string_storage",
        "encoding": "dynamic_array",
        "label": "string[]",
        "numberOfBytes": "32"
      },
      "t_array(t_struct(complaint)17_storage)dyn_storage": {
        "base": "t_struct(complaint)17_storage",
        "encoding": "dynamic_array",
        "label": "struct complaintContract.complaint[]",
        "numberOfBytes": "32"
      },
      "t_bool": {
        "encoding": "inplace",
        "label": "bool",
        "numberOfBytes": "1"
      },
      "t_mapping(t_string_memory_ptr,t_struct(companyData)24_storage)": {
        "encoding": "mapping",
        "key": "t_string_memory_ptr",
        "label": "mapping(string => struct complaintContract.companyData)",
        "numberOfBytes": "32",
        "value": "t_struct(companyData)24_storage"
      },
      "t_string_memory_ptr": {
        "encoding": "bytes",
        "label": "string",
        "numberOfBytes": "32"
      },
      "t_string_storage": {
        "encoding": "bytes",
        "label": "string",
        "numberOfBytes": "32"
      },
      "t_struct(companyData)24_storage": {
        "encoding": "inplace",
        "label": "struct complaintContract.companyData",
        "members": [
          {
            "astId": 19,
            "contract": "complaintContract.sol:complaintContract",
            "label": "reputation",
            "offset": 0,
            "slot": "0",
            "type": "t_uint256"
          },
          {
            "astId": 23,
            "contract": "complaintContract.sol:complaintContract",
            "label": "complaints",
            "offset": 0,
            "slot": "1",
            "type": "t_array(t_struct(complaint)17_storage)dyn_storage"
          }
        ],
        "numberOfBytes": "64"
      },
      "t_struct(complaint)17_storage": {
        "encoding": "inplace",
        "label": "struct complaintContract.complaint",
        "members": [
          {
            "astId": 4,
            "contract": "complaintContract.sol:complaintContract",
            "label": "user",
            "offset": 0,
            "slot": "0",
            "type": "t_string_storage"
          },
          {
            "astId": 6,
            "contract": "complaintContract.sol:complaintContract",
            "label": "text",
            "offset": 0,
            "slot": "1",
            "type": "t_string_storage"
          },
          {
            "astId": 8,
            "contract": "complaintContract.sol:complaintContract",
            "label": "dateC",
            "offset": 0,
            "slot": "2",
            "type": "t_string_storage"
          },
          {
            "astId": 10,
            "contract": "complaintContract.sol:complaintContract",
            "label": "typeC",
            "offset": 0,
            "slot": "3",
            "type": "t_string_storage"
          },
          {
            "astId": 12,
            "contract": "complaintContract.sol:complaintContract",
            "label": "gender",
            "offset": 0,
            "slot": "4",
            "type": "t_string_storage"
          },
          {
            "astId": 14,
            "contract": "complaintContract.sol:complaintContract",
            "label": "relation",
            "offset": 0,
            "slot": "5",
            "type": "t_string_storage"
          },
          {
            "astId": 16,
            "contract": "complaintContract.sol:complaintContract",
            "label": "consent",
            "offset": 0,
            "slot": "6",
            "type": "t_bool"
          }
        ],
        "numberOfBytes": "224"
      },
      "t_uint256": {
        "encoding": "inplace",
        "label": "uint256",
        "numberOfBytes": "32"
      }
    }
  },
  "userdoc": {
    "kind": "user",
    "methods": {},
    "version": 1
  }
}